:10500000002C040000000000C2300400000000007A
:10501000F6300400000000005034040000000000DE
:105020002E31040000000000623104000000000086
:10503000963104000000000050340400000000001D
:105040005034040000000000503404000000000050
:105050005034040000000000503404000000000040
:105060005034040000000000503404000000000030
:10507000FA2C04000000000050340400000000007E
:105080005034040000000000503404000000000010
:105090005034040000000000503404000000000000
:1050A000C62D040000000000B22D04000000000026
:1050B000CA31040000000000503404000000000069
:1050C00050340400000000005034040000000000D0
:1050D00050340400000000005034040000000000C0
:1050E0005034040000000000CA2F0400000000003B
:1050F00050340400000000005034040000000000A0
:105100005034040000000000E02D04000000000006
:105110002C340400000000003E34040000000000B5
:105120003A2D0400000000002A2E040000000000B8
:105130007230040000000000702E04000000000027
:10514000503404000000000050340400000000004F
:10515000503404000000000050340400000000003F
:1051600050340400000000008A2E040000000000FB
:10517000503404000000000050340400000000001F
:10518000503404000000000050340400000000000F
:1051900050340400000000005034040000000000FF
:1051A00050340400000000005034040000000000EF
:1051B00050340400000000005034040000000000DF
:1051C00050340400000000005034040000000000CF
:1051D00050340400000000005034040000000000BF
:1051E00050340400000000005034040000000000AF
:1051F000503404000000000050340400000000009F
:10520000503404000000000050340400000000008E
:10521000503404000000000050340400000000007E
:10522000503404000000000050340400000000006E
:10523000503404000000000050340400000000005E
:10524000503404000000000050340400000000004E
:10525000EA2D040000000000A42E0400000000005D
:10526000503404000000000050340400000000002E
:10527000503404000000000050340400000000001E
:10528000503404000000000050340400000000000E
:1052900050340400000000005034040000000000FE
:1052A00050340400000000005034040000000000EE
:1052B00050340400000000005034040000000000DE
:1052C00050340400000000005034040000000000CE
:1052D00050340400000000005034040000000000BE
:1052E00050340400000000005034040000000000AE
:1052F000503404000000000050340400000000009E
:10530000503404000000000050340400000000008D
:10531000503404000000000050340400000000007D
:10532000503404000000000050340400000000006D
:105330005034040000000000E42E040000000000CF
:10534000362F040000000000A42F0400000000001D
:10535000503404000000000050340400000000003D
:10536000503404000000000050340400000000002D
:10537000503404000000000050340400000000001D
:10538000503404000000000050340400000000000D
:1053900050340400000000005034040000000000FD
:1053A00050340400000000005034040000000000ED
:1053B00050340400000000005034040000000000DD
:1053C00050340400000000005034040000000000CD
:1053D00050340400000000005034040000000000BD
:1053E00050340400000000005034040000000000AD
:1053F000503404000000000050340400000000009D
:10540000503404000000000050340400000000008C
:10541000503404000000000050340400000000007C
:10542000503404000000000050340400000000006C
:10543000503404000000000050340400000000005C
:10544000503404000000000050340400000000004C
:10545000503404000000000050340400000000003C
:10546000503404000000000050340400000000002C
:10547000503404000000000050340400000000001C
:10548000503404000000000050340400000000000C
:1054900050340400000000005034040000000000FC
:1054A00050340400000000005034040000000000EC
:1054B00050340400000000005034040000000000DC
:1054C00050340400000000005034040000000000CC
:0854D00050340400000000004C
:105800000FD323000EFF24000E01880000000000CB
:10581000000020000000E000020032000001200033
:1058200020028800140007006D0407000000E0005B
:1058300003003A00E0CB2F000100200002003700F7
:105840000000200001002000810F700001003200E4
:105850000F000700000020000000E00002003200FE
:10586000000002000000000008F702000000000035
:105870000040DA000000FE00403E22000000E00090
:105880000200320000202000900188000000060085
:10589000A1028800800478000000EB001F003700A0
:1058A000E284440054A0B4009905BA00E2844400A4
:1058B00054A0B4009906BA00E284440054A0B40095
:1058C0000006EB00476FDE00FD07B200AE01880066
:1058D000636CE10003003A000AD801000000EB000D
:1058E0000E003700606CE10008003A00004DEB004C
:1058F0000A05E800020039003420EC000AF0A0009C
:105900008B05E900F9FF3E00040037006168E10003
:10591000010032000086EB000B00070019C7BA0037
:105920000E04E0001905BA0003003A000A00E00086
:10593000DBFF3A0000000600FE07B200AE0288005E
:105940008A047800F5FF37000CD0A300E20F4D0069
:105950001C00390089027800354DBA000A05E800BC
:10596000020039003420EC000AF0A0008B05E900A9
:105970000F003200254DBA000A05E8000200390088
:105980003420EC000AF0A0008B05E900080032008A
:105990000C00E0000600320015CDBA000A05E80050
:1059A000020039003420EC000AF0A0008B05E90069
:1059B0008984E80054A0B4000B00E000E2FF3A0044
:1059C000000006009902BA00055D78008B05E90029
:1059D000F7FF3200C82ADE00055D78008B05E9007C
:1059E000F3FF32000C00E000F1FF320019DDBA00D5
:1059F000EEFF37003600F800809FBE00829FBE0099
:105A0000849FBE00869FBE003200F8003400F8007C
:105A100010002000A00188000020200000D0FE001F
:105A200000A8A90023720700B0188900B0188100EF
:105A30000000E0000C00350000A8AB0002003200BE
:105A400030002000501389003400F9003200F900C2
:105A50004F03BE004F02BE004F01BE004F00BE000C
:105A60003600F90000400600403122000008EB003B
:105A7000F1FF37003600F800809FBE00829FBE0015
:105A8000849FBE00869FBE000368A90000652200B7
:105A900010007800680060000B0032008032810046
:105AA0000040A000803289001FE1A9007C56070059
:105AB0004F03BE004F02BE004F01BE004F00BE00AC
:105AC0003600F90000400600C00E810000D8A30097
:105AD000090032002282AB001300320080328100C4
:105AE0000030A00080328900E0FF2F00A00888006D
:105AF0006B560700EEFF3700803281000030A000B7
:105B000080328900C00E8100670060000000400004
:105B100061662D000080400010007800A008880019
:105B20005F560700E2FF3700C00E8100670060008B
:105B30000000400061672D00008040001080EA00F6
:105B4000A00888000368A9004F03BE004F02BE00F2
:105B50004F01BE004F00BE003600F90000400600B5
:105B6000D9FF3700801F78002302AB00FEFF320010
:105B70000188A9002188A900034EA9001000200077
:105B8000703289004F007800004006003600F800AF
:105B9000809FBE00829FBE00849FBE00869FBE0085
:105BA0000168A9003E5607004F03BE004F02BE0029
:105BB0004F01BE004F00BE003600F9000040060055
:105BC0000308A90023A2A8000188A9002188A80031
:105BD00000400600801F78000828A9002262AB0060
:105BE000040032002262A900B08680001010B200CA
:105BF000150032002242AB00040032002242A9000C
:105C0000B08680001010B2000C0032002222AB00DF
:105C1000080032002222A900408622001008E80075
:105C2000B08680001010B20002003A00301021004F
:105C3000501389004F00780000400600201021001A
:105C400050138900F1FF3700101021005013890014
:105C5000E8FF37003600F800809FBE00829FBE003C
:105C6000849FBE00869FBE008086220010007800C0
:105C7000680060000D003A00404381000030A00041
:105C80004043890070B38600C00888000388A900DB
:105C9000D66807004F03BE004F02BE004F01BE0092
:105CA0004F00BE003600F90000400600404381006E
:105CB0000040A0004043890021E1A9000388A90019
:105CC000CA6807004F03BE004F02BE004F01BE006E
:105CD0004F00BE003600F90000400600F3FF370019
:105CE0003600F800809FBE00829FBE00849FBE00E9
:105CF000869FBE0003C8A900BC6807004F03BE0012
:105D00004F02BE004F01BE004F00BE003600F9003A
:105D1000004006003600F800809FBE00829FBE0053
:105D2000849FBE00869FBE000488A900AF6807005C
:105D30004F03BE004F02BE004F01BE004F00BE0029
:105D40003600F90000400600801F78000848A900CE
:105D50003262AB00040032003262A900B0868000DB
:105D60001010B200150032003242AB0004003200C5
:105D70003242A900B08680001010B2000C00320040
:105D80003222AB00080032003222A900C0A7220054
:105D90001008E800B08680001010B20002003A003F
:105DA00030202100501389004F0078000040060089
:105DB0002020210050138900F1FF3700102021001E
:105DC00050138900E8FF37003600F800809FBE00BE
:105DD000829FBE00849FBE00869FBE003200F800F6
:105DE0003400F80010002000A001880000202000EE
:105DF00000D0FE000BC8A9000070EC00686D070021
:105E0000364D070000D0BF00670060000800320078
:105E10003400F9003200F9004F03BE004F02BE000B
:105E20004F01BE004F00BE003600F90000400600E2
:105E30000610F8000A10F9000810F8000C10F9001C
:105E4000494E07000288A8003400F9003200F9002A
:105E50004F03BE004F02BE004F01BE004F00BE0008
:105E60003600F90000400600F1FF37003600F80068
:105E7000809FBE00829FBE00849FBE00869FBE00A2
:105E80003200F8003400F80010002000A001880063
:105E90000020200000D0FE000BE8A9003011810096
:105EA000306889004011810040688900AB700700AC
:105EB0001F4A0700D6F0AB0012003A00F110810033
:105EC000420F8100D08380000000410001004000AB
:105ED0000068890041700700DF700700C27007008A
:105EE0001A4B07003400F9003200F9004F03BE00DE
:105EF0004F02BE004F01BE004F00BE003600F90049
:105F000000400600410F810020808000008040009A
:105F10000068890031700700CF700700B270070079
:105F20000A4B07003400F9003200F9004F03BE00AD
:105F30004F02BE004F01BE004F00BE003600F90008
:105F400000400600EFFF3700809FBE003200F800DF
:105F50003400F80010002000A0018800002020007C
:105F600000D0FE00916180009063800000805000AE
:105F7000906388000C08A9002083A900000E20006F
:105F80002023B7003400F9003200F9004F00BE00B2
:105F9000004006003600F800809FBE00829FBE00D1
:105FA000849FBE00869FBE003200F8003400F800D7
:105FB00010002000A00188000020200000D0FE007A
:105FC0000288A9000060FE00D810AB001E003A0055
:105FD000676C070082590700114C0700F26A07003E
:105FE0008A480700D610AB002C0032006B4E070029
:105FF000043F07009E6E0700497007007013810080
:106000008113810061004000E08048007013890026
:106010008113890003A8A8000288AB0002003200A7
:10602000D710AB00120032003400F9003200F90042
:106030004F03BE004F02BE004F01BE004F00BE0026
:106040003600F90000400600D92C07003400F900A2
:106050003200F9004F03BE004F02BE004F01BE00E8
:106060004F00BE003600F90000400600F6FF370082
:1060700020002000501389003400F9003200F9009C
:106080004F03BE004F02BE004F01BE004F00BE00D6
:106090003600F90000400600EBFF3700C42C070073
:1060A0005F630700FA690700CE5907003B4E0700FF
:1060B000D43E07006E6E0700197007007013810050
:1060C0008113810061004000E08048007013890066
:1060D0008113890003A8A8000288AB00D0FF3A0012
:1060E000D1FF37003600F800809FBE00829FBE00BF
:1060F000849FBE00869FBE003200F8003400F80086
:1061000010002000A00188000020200000D0FE0028
:1061100003A8A900DB6B0700E08680000000E00018
:106120000A0032000000E900E08688003400F9002F
:106130003200F9004F03BE004F02BE004F01BE0007
:106140004F00BE003600F900004006007B600700EB
:10615000A08680002E6B070030012000E0868800BA
:106160003400F9003200F9004F03BE004F02BE00B8
:106170004F01BE004F00BE003600F900004006008F
:10618000F2FF37003600F800809FBE00829FBE00FD
:10619000849FBE00869FBE003200F8003400F800E5
:1061A00010002000A00188000020200000D0FE0088
:1061B000C028A90042062000F1C0B3000040EB0057
:1061C000AA6B070050002000501389003400F9002A
:1061D0003200F9004F03BE004F02BE004F01BE0067
:1061E0004F00BE003600F900004006003600F800FF
:1061F000809FBE00829FBE00849FBE00869FBE001F
:106200003200F8003400F80010002000A0018800DF
:106210000020200000D0FE001B700700D086880000
:10622000C068A90042062000F1C0B3000040EB00A6
:106230008E6B070060002000501389003400F900C5
:106240003200F9004F03BE004F02BE004F01BE00F6
:106250004F00BE003600F900004006003600F8008E
:10626000809FBE00829FBE00849FBE00869FBE00AE
:106270003200F8003400F80010002000A00188006F
:106280000020200000D0FE00C048A90042062000E7
:10629000F1C0B3000040EB00746B070070002000F9
:1062A000501389003400F9003200F9004F03BE009A
:1062B0004F02BE004F01BE004F00BE003600F90085
:1062C000004006003600F800809FBE00829FBE009E
:1062D000849FBE00869FBE003200F8003400F800A4
:1062E00010002000A00188000020200000D0FE0047
:1062F000C088A90042062000F1C0B3000040EB00B6
:106300005A6B070080002000501389003400F90008
:106310003200F9004F03BE004F02BE004F01BE0025
:106320004F00BE003600F900004006003600F800BD
:10633000809FBE00829FBE00849FBE00869FBE00DD
:106340003200F8003400F80010002000A00188009E
:106350000020200000D0FE00C0A8A90042062000B6
:10636000F1C0B3000040EB00406B0700900020003C
:10637000501389003400F9003200F9004F03BE00C9
:106380004F02BE004F01BE004F00BE003600F900B4
:10639000004006003600F800809FBE00829FBE00CD
:1063A000849FBE00869FBE00889FBE003200F8001A
:1063B0003400F80010002000A00188000020200018
:1063C00000D0FE0001A8A9006ED1BF00E14F50002F
:1063D000790032000D003900E24F50009B0032007E
:1063E000E34F50004C0032003400F9003200F90055
:1063F0004F04BE004F03BE004F02BE004F01BE005F
:106400004F00BE003600F90000400600B00020003A
:10641000401988002040280000198800408B800027
:10642000E10F5000CF003200E20F5000DF003200D9
:106430000118800023188000421880006018800036
:10644000818041008280400080804000C408DD00DF
:1064500013188000391880005218800070188000CE
:10646000838444008284440080844400C44CDD0062
:106470000210E200C10032001800280088804000AD
:1064800008007800D011B4004F01070040118900C6
:106490008880440008007800D211B4004A01070047
:1064A000411181000000EA00010050003011890014
:1064B0006E71EC0000D0BF00674060006FF1B70064
:1064C0000101200011198800E14F5000D70036006B
:1064D000414E2800011988000080FB0000004000A8
:1064E00041DC2D0000804000100078004019880039
:1064F0003400F9003200F9004F04BE004F03BE0023
:106500004F02BE004F01BE004F00BE003600F90032
:1065100000400600BDFF3700320E8000510E8000A3
:106520000000EB008001EB0002007000838070002F
:10653000008C8800118C8800201880000803B400AB
:1065400000118900001181004300DD000011890065
:10655000101880000603B40010118900101181008A
:106560004300DD00101189006E71EF00C0002000B3
:1065700000198800C0102000101988009091210097
:1065800040198800101020003019880021E3A8006D
:106590003400F9003200F9004F04BE004F03BE0082
:1065A0004F02BE004F01BE004F00BE003600F90092
:1065B0000040060095FF3700101880002418800066
:1065C0003318800042188000F116210091407800B5
:1065D0008180FB008180400005D72200818042003D
:1065E000000042000300400002004000800840001C
:1065F00020C0B3006EF1B700C00020000019880071
:10660000C010200010198800006020008019880048
:106610009091210040198800100020003019880056
:1066200021E3A8003400F9003200F9004F04BE0055
:106630004F03BE004F02BE004F01BE004F00BE0020
:106640003600F9000040060070FF3700408B8000E4
:10665000E10F50002C003200E20F50005A003200CF
:106660000118800023188000421880006018800004
:1066700081804100828040008080400010188000AE
:106680003418800053188000721880000000420007
:106690000300400002004000828E8000E8014100BB
:1066A000C419DE000301510001014100828E8800FF
:1066B000918E8000688140004411DE00828050008D
:1066C00080804000918E880030C0B3006EF1B7002A
:1066D0000041200010198800404E28000019880051
:1066E0003400F9003200F9004F04BE004F03BE0031
:1066F0004F02BE004F01BE004F00BE003600F90041
:106700000040060041FF370021188000C208DD006C
:10671000301880004200DD00828E8000E8014100D8
:10672000C419DE000301510001014100828E88007E
:10673000918E8000688140004411DE00828050000C
:1067400080804000918E880030C0B3006EF1B700A9
:106750000041200010198800404E280000198800D0
:10676000DFFF370021188000C608DD0039188000DF
:10677000C64CDD000210E2003FFF3A00180028007E
:106780008880400008007800D011B4008E00070017
:10679000401189008880440008007800D211B400BC
:1067A000890007003011890041FF37002018800060
:1067B0000803B400C500DD00301880000A03B400EF
:1067C000C504DD002AFF3700201880000803B4004C
:1067D00080004000301880000A03B4000000400030
:1067E000828E8000E8014100C419DE0003015100DF
:1067F00001014100828E8800918E800068814000F6
:106800004411DE008280500080804000918E88001C
:1068100030C0B3006EF1B7000041200010198800AD
:10682000404E280000198800ADFF3700410E2800B7
:1068300001198800410EB100D11988000080FB00C9
:106840000000400041DC2D00008040001000780076
:106850004019880026FF37000328A9002609E20016
:10686000050032008411F8001809F9001809F80031
:106870001A09F9002328A900004006000348A900CE
:106880001C09E200050032008411F8002209F90019
:106890002209F8002409F9002348A9000040060055
:1068A0000040DA000000FE00800378000000EB00EA
:1068B0001038E60000000600889FBE008781CF00E8
:1068C000E28051000139DD00000028008002510003
:1068D00005027800C12ADD000600240006A3B900E5
:1068E00005A4B90000002F000981B900060341008A
:1068F0008783490005CCB900008020000981B900D8
:10690000060341008783490005CCB90000B02F0081
:106910000981B900060341008783490005CCB9000D
:10692000003820000981B90006034100878349002F
:1069300005CCB90000D62F000981B900060341003B
:106940008783490005CCB900002120000981B900E6
:10695000060341008783490005CCB90030E52F00CC
:106960000981B90006034100878349004F33DE00E7
:106970004138DD0000037300CFBBDE0000002800BB
:1069800006034000E0834B004109DE007000110067
:106990000233DE000038DD000003730082BBDE003E
:1069A0000100A3000500390024A8250004B0B900A7
:1069B0004F00DE00C108DD00010370000600780012
:1069C0004F04BE0000000600010050000300380024
:1069D000000028004200AE00F0FF27000000060083
:1069E000000005005400F800423988005039880042
:1069F000613988000500FC005105200071398800CC
:106A0000A10A20007139880029E7A80000000000D1
:106A1000000000005400F900000006000400A1007E
:106A2000010037000400A0005400F800503988002D
:106A300061398800A00F2000A00288000000EB0050
:106A40002100240041398800F10F20003208BB00EA
:106A50000400A700B20078000198BB002CA7EC004E
:106A60008301E900F9FF3A00680151000400A70022
:106A700068015100680050001208BB00DDFF3700BC
:106A8000F30F20005400F800503988006139880065
:106A9000A102880011002400413988000208BB00CF
:106AA0000388BB00D3FF37005400F800403988004A
:106AB000D0FF3700F30F2000F50F20005400F8003E
:106AC0005039880061398800A00F2000A00288009A
:106AD0000000EB000208BB000398BB000408BB00E9
:106AE0000598BB001100240041398800C1FF370020
:106AF0005400F800A1028800800278006200400083
:106B00003549BA00E08048003204E0000410A700D4
:106B1000100032008301E9000E0032002549BA005E
:106B20003204E0000410A7000A0032008301E900EB
:106B3000080032000408A300EEFF320015C9BA00B5
:106B40003204E0000410A700020032008301E900D3
:106B5000E8FF3A005400F9000000060003F0A2002C
:106B6000889FBE008A9FBE008C1F78001901070015
:106B7000200133006450E1004F0032006420E10046
:106B80005200320003826C0007003B000905D00070
:106B90000306D000820F54000C065D00020039008D
:106BA00002003200890178000306780085825500D2
:106BB00004003D000003FD008103FD008502EA00A2
:106BC0008B854200840F720002003B0060001000C1
:106BD000E08018006011B8000005EB007A28E100A1
:106BE0000A00390006007800C75DDD00F707B20033
:106BF000878075002D003700828171000A017800BE
:106C0000610560008180D1000080D3008502E90029
:106C1000F9FF3B00060440008784480002003B0067
:106C200060041400E0841C000988A30007003200FF
:106C30008A81710082817100610164008904D10040
:106C40000884D3008B05E800170037000978A300FB
:106C500013003A000B00E000130034008B05E9003C
:106C60000804440089844C000A4474000978A30095
:106C70000D003A000B00E000070034008B05E9002E
:106C80000804440089844C0001003A000B002000F5
:106C90000978A300F7FF32000001EB000200370083
:106CA000828171000A0178008F0007000CF0A700B4
:106CB00001F0A000D80037006420E10002003A0093
:106CC000838F6C00D80033000801BE000200BE00B4
:106CD000D1003700889FBE008A9FBE008C1F7800BD
:106CE000BC000700C300330003866C006450E10061
:106CF0002E0032006420E100330032006150E100D8
:106D00002F0032006120E1003100320085855500FE
:106D1000EB07B00009002000080420000500370040
:106D20000804440089844C000A0031000603430033
:106D300087834B000001530081815B00F8FF330023
:106D40000203BE000800A0000804440089844C002F
:106D5000F6FF3900C639DD008301730001003200FF
:106D6000130020008904D1000884D3000998A300EF
:106D7000050032000800A7000300A0008904D1002C
:106D80000884D3008B05E8008904D1000884D3006F
:106D90000001EB000281D2005300070001F0A100C6
:106DA0000CF0A70001F0A0009B0037006420E10078
:106DB0009D0032000801BE000200BE00F7FF370050
:106DC0006120E100980032006000B800F3FF370056
:106DD0000000200001F82700F0FF3700839F6800C3
:106DE0000100E00002003D0060001000E08018009B
:106DF0000300E00002003D0060011100E081190085
:106E0000C00007004F00E00002003B0060001000DF
:106E1000E08018000000060014002000190137006F
:106E2000F4FF2F00170137000001BE0054000700D7
:106E30000470A70003F0A1006509B100160032003C
:106E40000D0035006828E10006003500F0FF2F0036
:106E5000F1FF27000300E00013003B0001002800C1
:106E60000000050000004000818048008502E90024
:106E7000FCFF3A0008003700F88F420002003C0097
:106E80008000EB00000005008100D1000080D300ED
:106E90008502E800FCFF3A000300E00002003B002E
:106EA00060001000E0801800000006004F89DE003E
:106EB000820178000E0137006011B8001C01370014
:106EC0000001EB00C80007000400320002002000AF
:106ED00003F8230001F0A70020FF070000000600D0
:106EE00004002000E7003700810020006180550089
:106EF0000B003D000B00200061FE2F000100E100AF
:106F00001D00340082817100610164008904D10098
:106F10000884D3000000E800FAFF3A007100200066
:106F2000610064000300700002006000090032008C
:106F300061044400E0844C000988A500050032008B
:106F40008B05E8006808E10002003A008904D100DE
:106F50000884D300F20F20000258E10005003D0034
:106F6000C75DDD00F907B200898075000800780070
:106F7000000006000BF827008B00780000000500D9
:106F8000C70ADE00F107B200F50FB20008003200B8
:106F9000E1CF4200020032000170A0002400050091
:106FA000810F700001003200040805004400050054
:106FB000810F700002003A00140005008502E9000C
:106FC0000000400081C04800FCFF3B000170A000B1
:106FD000240005000004BE00E9FF07000003BE0016
:106FE0000405BE000200BE00E5FF0700844F7500E7
:106FF000000006000200BE006450E10005003600FB
:107000006420E100020036000968A30001003A0094
:107010000800BE000160A0004F0678004F05BE00CA
:107020004F04BE0000000600F0FF2F00F1FF270014
:10703000F9FF3700889FBE008A9FBE008C1F780032
:10704000E4FF0700EBFF330003866C006450E100AF
:10705000240032006420E100270032006150E1008A
:10706000220032006120E100210032008B854200C5
:10707000EB07B1000134B800003AB8000804420040
:1070800089844A00013AB8000030B8008880400086
:1070900009014A00040033000000400081804800DC
:1070A000020149008B05E900C909DD008301700078
:1070B0000100320013002000C814DE004814DD0077
:1070C0004709DE001200B200C808DE000884700024
:1070D00085FF070001F0A1000CF0A70001F0A0005F
:1070E000CDFF37006120E100CFFF32000801BE0074
:1070F0000200BE00F7FF37006150E100FCFF3A00DC
:10710000C9FF37006022B800060220000000D0004E
:107110008180D2000482D2008582D2000000A000CB
:107120000202520083825A00030031000202420030
:1071300083824A000000A1000603E900F3FF3A0041
:1071400000000600889FBE008A9FBE008C1F78004A
:107150000006EB00E00F5000E08F5800E00F5900F0
:10716000E08F590007003D006044B8006055B8004A
:107170000000540081805C0002015D0083815D009D
:107180001C002000E00F5200E08F5A00E00F5B006F
:10719000E08F5B0007003D006044B8006055B80018
:1071A0000402540085825C0006035D0087835D0055
:1071B0000C00A2008D0007000C00E0000600320069
:1071C0006022B8006033B8000000520081805A008D
:1071D00002015B0083815B004F0678004F05BE0013
:1071E0004F04BE0000000600889FBE008A9FBE00BC
:1071F0000003BE0062FF070085057800828152000F
:10720000020020006220E10004003A00F307B10010
:10721000040035007718E100040035000600BE00C8
:10722000140037006000B8000F003700F50F200091
:10723000FAFF2F008502D1000A85D3008301E900FF
:10724000FCFF3B008184620000046500890F74002C
:10725000F2FF32008582EA000A85EA00818462003A
:107260000004650020FF070007F0A70001F0A00060
:107270000081EB000200E0004F05BE004F04BE009D
:1072800000000600889FBE008A9FBE00841F780011
:1072900050FF07004F00780011003300F0FF2F006F
:1072A000838F6C0006003B00040565000A00A70000
:1072B0000800370009F0A600100020000800370081
:1072C000820F5400838F5C000300390010002000FF
:1072D00001003E000000200009F0A7000000EA00C5
:1072E0004F05BE004F04BE000000E0000000060095
:1072F000881F7800030478000300E00007003D00C9
:1073000060001000E080180060011900E0811900A1
:1073100002003B0001F02D000300370004000700CD
:1073200008F0A70001F0A0004F047800000006005C
:10733000889FBE008A9FBE00008270000402710018
:1073400004827100260032000004BE000200BE006C
:107350006011B8006B092000950220000182CF0067
:107360000A0039000541B1000082CF000700390052
:107370000541B1000982CF00040039000541B10088
:107380000882CF00010039000541B10005425200DA
:10739000120032000A003B0082817100610164002A
:1073A0008100D1000080D3008984D3000884D300F9
:1073B0008B05E8000442E800F7FF3A0007003700B9
:1073C0000804440089844C00000048008180480083
:1073D0008B05E9000442E900F9FF3A00C2FE07000C
:1073E0004F05BE004F04BE0000000600889FBE008F
:1073F0008A9FBE008C9FBE000404B8000506B8003A
:107400008904460060854E000606B8000A0546005D
:10741000E0854E000706B8008B054600040EB80054
:10742000890446000A854E00E0854D00050EB8002F
:107430000A0546008B854E00060EB8008B054600F7
:107440000416B8000A0546008B854E000516B800E4
:107450008B054600041EB8008B0546000800BE00E0
:107460000A01BE004F06BE004F05BE004F04BE001D
:10747000000006002F8F0000210000000EFF00001A
:10748000240000000E010000880000000000000041
:10749000000000000C0000000700000080FF00005A
:1074A0002000000001000000200000000F0000008C
:1074B00007000000000000002000000000000000A5
:1074C000E0000000020000003200000000000000A8
:1074D000020000000000000000000000D6090000CB
:1074E000020000000000000000000000004000005A
:1074F000DA00000000000000FE00000000030000B1
:107500002000000000000000E00000000200000079
:107510003200000000200000200000009001000068
:10752000880000000000000006000000A10200002A
:1075300088000000800000007800000000000000CB
:10754000EB0000001A00000037000000E28000009D
:107550004000000054A00000B400000091010000B1
:10756000BA000000E28000004000000054A00000CB
:10757000B400000091020000BA000000E2800000A8
:107580004000000054A00000B40000000002000011
:10759000EB000000472B0000DE000000F5070000B4
:1075A000B2000000A601000088000000602C00006E
:1075B000E1000000080000003A000000004900005F
:1075C000EB00000002010000E800000002000000E3
:1075D0003900000034200000EC00000002F0000040
:1075E000A000000083010000E9000000F9FF000096
:1075F0003E00000004000000370000006128000089
:10760000E1000000010000003200000000820000E4
:10761000EB00000004000000070000001101000062
:10762000BA00000002000000E0000000E3FF0000DC
:107630003A000000000000000600000004D0000036
:10764000A3000000E20F0000490000001C00000041
:107650003900000081020000780000003549000078
:10766000BA00000002010000E80000000200000073
:107670003900000034200000EC00000002F000009F
:10768000A000000083010000E90000000F000000DE
:107690003200000025490000BA000000020100008D
:1076A000E800000002000000390000003420000063
:1076B000EC00000002F00000A000000083010000C8
:1076C000E900000008000000320000000400000093
:1076D000E0000000060000003200000015C90000B4
:1076E000BA00000002010000E800000002000000F3
:1076F0003900000034200000EC00000002F000001F
:10770000A000000083010000E9000000818000006B
:10771000E800000054A00000B400000003000000D6
:10772000E0000000E2FF00003A000000000000005E
:107730000600000091020000BA0000000559000098
:107740007800000083010000E9000000F7FF00005E
:1077500032000000C82A0000DE00000005590000C9
:107760007800000083010000E9000000F3FF000042
:107770003200000004000000E0000000F1FF000003
:107780003200000011D90000BA000000EEFF000036
:107790003700000000400000DA0000000000000098
:1077A000FE000000000200007800000080010000E0
:1077B000EB0000000200000037000000315A00001A
:1077C0007800000083010000E8000000828F0000C4
:1077D00051000000FCFF00003A0000000000000023
:1077E0000600000002020000000000007FD7000039
:1077F00000000000BDDF000000000000DFF7000017
:107800000000000000FD000000000000DFFD00009F
:1078100000000000BDDF000000000000DFF70000F6
:107820000000000000000000000000002110000027
:107830000000000042200000000000006330000053
:10784000000000008440000000000000A55000007F
:1078500000000000C660000000000000E7700000AB
:1078600000000000088100000000000029910000D5
:10787000000000004AA10000000000006BB1000001
:10788000000000008CC1000000000000ADD100002D
:1078900000000000CEE1000000000000EFF1000059
:1078A0000000000000000000FA00000070BF0000AF
:1078B0008000000000000000E00000000300000065
:1078C000320000000400000007000000000000007B
:1078D000EB00000070BF0000880000000080000086
:1078E000FA00000000000000060000001000000088
:1078F000FA0000001CD00000BF000000204700007C
:10790000980000001CD00000BF00000006F400003A
:10791000B700000000000000EB00000020A0000005
:10792000880000002E400000900000000080000051
:10793000FB00000070070000980000007E010000BE
:1079400090000000E30F0000510000002100000043
:10795000320000007E00000090000000E30F0000F5
:1079600050000000070000003C0000007E01000005
:1079700090000000E10F0000510000000B0000002B
:10798000320000007E00000090000000E20F0000C6
:107990005000000011000000320000003A0000001A
:1079A000370000007E01000090000000E40F00009E
:1079B000510000001B000000320000007E000000AB
:1079C00090000000E50F00005000000032000000B1
:1079D000320000003300000037000000714000005A
:1079E00021000000C02D0000280000009048000089
:1079F00078000000D02D0000280000001041000099
:107A00007800000092400000980000003000000064
:107A10002000000020A00000880000002A000000D4
:107A2000370000007705000007000000000F00008D
:107A3000780000001E000000E0000000FEFF0000D3
:107A40003A000000100000002000000020A000000C
:107A5000880000002300000037000000D0800000F4
:107A600080000000E300000050000000D001000092
:107A700021000000A6010000070000001000000027
:107A80002000000020A00000880000001C00000072
:107A900037000000D1010000210000006400000058
:107AA00047000000030000000900000031580000FA
:107AB0007800000040000000B1000000410000001C
:107AC000B100000011020000210000006800000069
:107AD00047000000030000000900000031580000CA
:107AE0007800000040000000B100000041000000EC
:107AF000B10000004E01000090000000DE01000017
:107B0000900000002E00000090000000BE00000069
:107B1000900000009C0200000700000060070000C9
:107B20009800000071400000210000006C0000007F
:107B3000470000009048000078000000104100005D
:107B4000900000009240000098000000300000000B
:107B50002000000020A000008800000002000000BB
:107B6000370000001000000020000000008000002E
:107B70008800000000800000FA0000000000000003
:107B8000060000000A000000FA00000020070000C4
:107B90009800000031070000980000001301000069
:107BA000370000003E0000009000000000000000D0
:107BB000E90000003007000098000000D1800000BC
:107BC00080000000703E000020000000808F000058
:107BD000500000000200000036000000000000001D
:107BE000EB000000D0800000880000001080000042
:107BF0008000000000000000E0000000960000008F
:107C00003A00000060C00000B3000000004F000018
:107C1000780000008F00000037000000502E0000A8
:107C20002800000010410000780000001E800000C5
:107C3000FB00000066000000500000008080000093
:107C4000E8000000A001000021000000008000000A
:107C5000400000001040000078000000804F00004D
:107C6000510000003B0000003A000000602E0000C0
:107C70002800000010410000780000001E80000075
:107C8000FB00000065000000500000008080000044
:107C9000E8000000A00100002100000000800000BA
:107CA000400000001040000078000000804F0000FD
:107CB00051000000310000003A000000702E00006A
:107CC0002800000010410000780000001E80000025
:107CD000FB000000640000005000000080800000F5
:107CE000E8000000A001000021000000008000006A
:107CF000400000001040000078000000804F0000AD
:107D000051000000270000003A000000802E000013
:107D10002800000010410000780000001E800000D4
:107D2000FB000000630000005000000080800000A5
:107D3000E8000000A0010000210000000080000019
:107D4000400000001040000078000000804F00005C
:107D5000510000001D0000003A000000902E0000BD
:107D60002800000010410000780000001E80000084
:107D7000FB00000000800000E9000000808000009F
:107D8000E8000000A00100002100000000800000C9
:107D9000400000001040000078000000804F00000C
:107DA00051000000130000003A000000A02E000067
:107DB0002800000010410000780000001E80000034
:107DC000FB00000000000000E900000080800000CF
:107DD000E8000000A0010000210000000080000079
:107DE000400000001040000078000000804F0000BC
:107DF00051000000090000003A000000B02E000011
:107E00002800000010410000780000001E800000E3
:107E1000FB00000080800000E8000000A0010000DE
:107E20002100000000800000400000001040000021
:107E300078000000804F0000510000004500000065
:107E400032000000E02D000028000000104100007A
:107E5000780000001E800000FB00000066000000AB
:107E60005000000080800000E8000000A001000039
:107E700021000000008000004000000010400000D1
:107E800078000000804F0000510000003F0000001B
:107E90003A000000F02D0000280000001041000012
:107EA000780000001E800000FB000000650000005C
:107EB0005000000080800000E8000000A0010000E9
:107EC0002100000000800000400000001040000081
:107ED00078000000804F00005100000035000000D5
:107EE0003A000000002E00002800000010410000B1
:107EF000780000001E800000FB000000640000000D
:107F00005000000080800000E8000000A001000098
:107F10002100000000800000400000001040000030
:107F200078000000804F0000510000002B0000008E
:107F30003A000000102E0000280000001041000050
:107F4000780000001E800000FB00000063000000BD
:107F50005000000080800000E8000000A001000048
:107F600021000000008000004000000010400000E0
:107F700078000000804F0000510000002100000048
:107F80003A000000202E00002800000010410000F0
:107F9000780000001E800000FB0000000080000050
:107FA000E900000080800000E8000000A00100005F
:107FB0002100000000800000400000001040000090
:107FC00078000000804F0000510000001700000002
:107FD0003A000000302E0000280000001041000090
:107FE000780000001E800000FB0000000000000080
:107FF000E900000080800000E8000000A00100000F
:10800000210000000080000040000000104000003F
:1080100078000000804F0000510000000D000000BB
:108020003A000000402E000028000000104100002F
:10803000780000001E800000FB000000808000002F
:10804000E8000000A0010000210000000080000006
:10805000400000001040000078000000804F000049
:1080600051000000040000003A0000000904000074
:108070000700000000000000EB000000D0800000BE
:10808000880000007C000000370000001E4F000048
:10809000E80000009E800000FB000000D08000008F
:1080A00080000000808F0000500000006DFF000085
:1080B000390000002E000000900000001040000079
:1080C0007800000000800000FB0000004007000076
:1080D000980000004E00000090000000E40F000037
:1080E0005000000019000000320000004E000000A7
:1080F00090000000F00F000050000000470000005A
:10810000320000004E00000090000000E10F00006F
:108110005000000001000000320000005500000087
:1081200037000000208000008000000000000000F8
:10813000E00000000C00000032000000D2800000CF
:10814000800000002E000000900000009041000020
:108150007800000082800000E8000000A00100001C
:1081600021000000008000004000000003480000E3
:108170007800000002000000E8000000D08000004D
:108180008800000000000000EB00000020800000DC
:1081900088000000510000003700000000000000CF
:1081A000EB000000D0800000880000004E000000BE
:1081B0003700000020800000800000000000000068
:1081C000E00000000C00000032000000D28000003F
:1081D000800000002E000000900000009041000090
:1081E0007800000082800000E8000000A00100008C
:1081F0002100000000800000400000000348000053
:108200007800000002000000E8000000D0800000BC
:108210008800000000000000EB000000208000004B
:10822000880000003F00000037000000D080000000
:1082300080000000E10F0000500000003C00000042
:1082400036000000D08000008000000000800000A8
:10825000E900000080800000E8000000A0010000AC
:1082600021000000008000004000000010400000DD
:10827000780000002047000098000000D080000037
:108280008000000000000000E90000008080000085
:10829000E8000000A00100002100000000800000B4
:1082A000400000001040000078000000304700004F
:1082B00098000000D08000008000000000800000D6
:1082C000E900000061010000B8000000C0010000EA
:1082D000210000006801000007000000800000008D
:1082E000780000001E00000090000000808F000059
:1082F00050000000250000003A000000D08000007F
:1083000080000000E20F000050000000220000008A
:1083100036000000100000002000000070BF0000C8
:108320008800000010000000200000001080000005
:10833000880000001D0000003700000020800000C1
:108340008000000000000000E00000000C000000C1
:1083500032000000D2800000800000002E000000EB
:108360009000000090410000780000008280000032
:10837000E8000000A00100002100000000800000D3
:1083800040000000034800007800000002000000E8
:10839000E8000000D080000088000000000000001D
:1083A000EB00000020800000880000000E000000AC
:1083B00037000000100000002000000020800000B6
:1083C000880000000B00000037000000D280000091
:1083D000800000002E00000090000000904100008E
:1083E0007800000082800000E8000000A00100008A
:1083F0002100000000800000400000000348000051
:108400007800000002000000E8000000D0800000BA
:108410008800000000000000EB0000002080000049
:10842000880000002E000000900000000000000006
:10843000E800000020070000980000003E00000057
:108440009000000000000000E000000003000000B9
:108450003400000070BF0000800000000000000039
:10846000E0000000E7FE0000320000000080000095
:10847000FA000000000000000600000008000000F4
:10848000FA00000030070000980000000000000023
:10849000EB000000100700009800000020A0000082
:1084A0008000000000000000E00000005C00000010
:1084B0003200000020A000008000000061010000E8
:1084C000B800000060400000210000002901000009
:1084D00007000000200700009800000022A0000014
:1084E00080000000CE41000090000000828000006B
:1084F000E800000040400000210000000080000073
:108500004000000003480000780000000200000066
:10851000E800000020A000008800000022A0000069
:1085200080000000DE41000090000000828000001A
:10853000E800000040400000210000000080000032
:108540004000000003480000780000000200000026
:10855000E800000020A00000880000001E000000CD
:108560009000000080000000780000003E00000045
:1085700090000000808000004000000010C000005B
:10858000B300000080480000780000001E000000DA
:108590009000000000000000E8000000100700004C
:1085A0009800000000400000EB000000004F0000B9
:1085B000780000002C000000370000001E80000042
:1085C000FB00000080800000E80000004040000048
:1085D000210000000080000040000000104000006A
:1085E00078000000E44F0000500000000E00000082
:1085F000320000001E800000FB00000080800000B0
:10860000E800000040400000210000000080000061
:10861000400000001040000078000000E14F000022
:108620005000000007000000320000001E80000023
:10863000FB00000080800000E800000040400000D7
:1086400021000000008000004000000010400000F9
:1086500078000000F04F000050000000090000000A
:108660003A0000001E0000009000000080000000A2
:10867000780000003E0000009000000080800000B4
:108680004000000000C10000B3000000804800006E
:10869000780000001E0000009000000000000000B4
:1086A000E800000010070000980000001E00000015
:1086B0009000000080000000780000003E000000F4
:1086C0009000000000810000400000001E800000BB
:1086D000FB00000080800000E80000004040000037
:1086E0002100000000800000400000001040000059
:1086F0007800000000490000780000001E00000023
:108700009000000000000000E800000010070000DA
:10871000980000001E4F0000E80000009E8000004E
:10872000FB00000020A0000080000000808F0000FF
:1087300050000000D0FF0000390000001E000000C3
:108740009000000080000000780000003E00000063
:1087500090000000808000004000000040C0000049
:10876000B300000080480000780000001E000000F8
:108770009000000000000000E8000000100700006A
:108780009800000000000000EB00000020A00000A6
:10879000880000001E000000900000000080000023
:1087A000FA000000000000000600000018000000B1
:1087B000FA000000100F000098000000210F0000D8
:1087C0009800000000400000EB000000404F000057
:1087D0009800000060000000B8000000008F00005A
:1087E000BE000000C1000000370000001E000000B5
:1087F0007800000080000000780000001E080000E3
:10880000900000000100000040000000100F000078
:10881000980000001E0800009000000010400000BA
:108820007800000006F00000B70000001E080000FD
:1088300090000000630000004000000010400000B5
:10884000780000000CF00000B70000001E080000D7
:1088500090000000640000004000000070800000F4
:108860008800000006D00000BF000000008000006B
:10887000FB0000006500000040000000CF80000009
:10888000DE000000008F0000BE0000009E0000001F
:10889000780000002E080000900000000100000099
:1088A00050000000200F0000980000000040000071
:1088B000EB000000404F00009800000000000000A6
:1088C000EB00000050070000980000000A000000C4
:1088D00037000000DE000000900000001E080000CD
:1088E0009000000000800000400000009040000068
:1088F000780000004E480000900000000140000099
:1089000040000000404F0000980000005E000000A2
:108910009000000000000000E80000005007000088
:108920009800000006D00000BF000000008000009A
:10893000FB00000065000000400000008000000017
:10894000780000005E00000090000000808F0000B2
:1089500050000000EFFF00003E0000004E48000005
:108960009000000000040000E00000009000000003
:108970003A0000000CD00000BF00000000800000A2
:10898000FB000000300F0000980000003E080000CF
:1089900090000000E20F00005000000066000000A0
:1089A000320000003E08000090000000E40F0000CC
:1089B0005000000072000000320000003E0800007D
:1089C0009000000000000000E00000000100000036
:1089D000320000007D000000370000000040000071
:1089E000EB0000000BF00000B700000000400000AA
:1089F000EB0000000AF00000B70000001E080000B5
:108A00009000000000000000E8000000104000009E
:108A10007800000009F00000B70000001E08000008
:108A20009000000000800000E800000010400000FE
:108A30007800000008F00000B7000000428000004D
:108A4000800000005380000080000000B080000023
:108A500080000000C18000008000000002010000D2
:108A6000400000008381000048000000908000006A
:108A700080000000A18000008000000002000000D3
:108A8000400000008380000048000000408000009B
:108A900088000000518000008800000042000000B3
:108AA000370000004080000080000000518000007E
:108AB0008000000081000000D10000000080000064
:108AC000D3000000300700009800000041070000BC
:108AD000980000003E01000090000000CE01000060
:108AE00090000000F07F0000220000000100000064
:108AF00020000000800F000051000000818F000066
:108B00005900000023000000360000003E01000074
:108B100090000000CE01000090000000E0FF000087
:108B2000240000001100000020000000800F000061
:108B300051000000818F0000590000001C0000005F
:108B40003E00000006D00000BF000000E34F000020
:108B5000500000000A0000003E00000000800000FD
:108B6000EB00000080800000EB00000070070000B8
:108B700098000000010F00009800000006D00000DF
:108B8000BF00000000810000FB00000071800000B9
:108B9000800000006E0000004700000080FD000023
:108BA0000700000006000000370000007180000090
:108BB000800000006E00000047000000030000007D
:108BC000090000003158000078000000400000005B
:108BD000B100000041000000B10000007E01000073
:108BE000900000008E090000900000003E00000090
:108BF00090000000CE00000090000000B8030000CC
:108C00000700000020070000980000002E00000070
:108C10009000000000000000E0000000FDFF0000E8
:108C20003A000000408000008000000051800000F9
:108C3000800000006400000040000000E0800000B0
:108C400048000000408000008800000051800000C3
:108C500088000000708000008000000064000000B8
:108C600040000000708000008800000006D0000076
:108C7000BF000000E34F00005000000004000000AF
:108C80003600000006D00000BF0000006440000075
:108C90005000000006F00000B700000002000000D5
:108CA0003700000000400000EB00000006F000006C
:108CB000B700000006D00000BF0000000004000064
:108CC000E0000000BBFF00003A00000024000000AC
:108CD0003700000000400000EB00000015F000002D
:108CE000B70000007080000080000000104000000D
:108CF0007800000014F00000B70000007080000051
:108D00008000000000000000E800000010400000AB
:108D10007800000013F00000B700000000400000E1
:108D2000EB00000012F00000B7000000600000003F
:108D3000B8000000B080000088000000C180000082
:108D4000880000001500000037000000708000005F
:108D500080000000104000007800000019F00000C2
:108D6000B7000000708000008000000000000000DC
:108D7000E8000000104000007800000018F000003B
:108D8000B700000000400000EB00000017F00000FA
:108D9000B700000000400000EB00000016F00000EB
:108DA000B700000060000000B800000090800000E4
:108DB00088000000A180000088000000060000007C
:108DC0003700000060000000B80000009080000044
:108DD00088000000A1800000880000006000000002
:108DE000B8000000B080000088000000C1800000D2
:108DF000880000002E08000090000000E40F000032
:108E0000500000003CFF00003E0000000080000019
:108E1000FA00000000000000060000000A00000048
:108E2000FA00000020070000980000003207000050
:108E300098000000430700009800000000000000B8
:108E4000EB000000000F000078000000250000008B
:108E5000370000001E00000078000000CC00000079
:108E6000DE0000002E000000900000001040000016
:108E70007800000000800000FB00000044000000BB
:108E8000DE00000000800000FB0000000080000009
:108E90006800000010070000980000001E0000009D
:108EA000900000006F0000006000000080000000E3
:108EB00040000000C02E00002800000000800000DC
:108EC0004000000090000000780000001E0000003C
:108ED0007800000044000000DD000000008F00006A
:108EE000680000001E00000078000000CC000000B8
:108EF000DE0000002E000000900000001040000086
:108F00007800000000800000FB00000000800000EE
:108F10006800000010070000980000001E0000001C
:108F2000900000006F000000600000008000000062
:108F300040000000C02E000028000000008000005B
:108F40004000000090000000780000001E000000BB
:108F50007800000044000000DD000000008F0000E9
:108F6000680000002E0000009000000000000000DB
:108F7000E800000020070000980000003E0000000C
:108F800090000000CE000000900000006100000092
:108F900050000000E0800000580000003007000092
:108FA0009800000041070000980000003E0100000A
:108FB00090000000CE010000900000000080000042
:108FC000EB00000080800000EB000000800F00003C
:108FD00051000000818F000059000000CEFF00000A
:108FE0003A0000001E000000780000000080000031
:108FF000FA0000000000000006000000160000005B
:10900000FA0000007007000098000000010F000047
:1090100098000000120F000098000000230F0000CD
:109020009800000000000000EB00000010070000A6
:10903000980000007E000000900000008E080000F4
:109040009000000050070000980000006107000039
:10905000980000006200000037000000006000007F
:10906000FE0000005E01000090000000EE01000024
:1090700090000000F01F0000200000000100000030
:1090800020000000800F000051000000818F0000D0
:10909000590000000C000000360000005E010000D6
:1090A00090000000EE01000090000000E07F000052
:1090B000220000000100000020000000800F0000DE
:1090C00051000000818F00005900000005000000E1
:1090D0003E000000F00F00002000000040070000EC
:1090E0009800000000800000EB0000003007000046
:1090F000980000000E000000370000004E480000FD
:109100009000000080800000FB000000400500008F
:109110002000000001080000780000005E00000050
:109120009000000010800000BA000000400700001E
:109130009800000000000000000000000000000097
:10914000000000005E000000900000001000000021
:10915000BA00000030070000980000000000000086
:1091600000000000000000000000000000000000FF
:10917000EB000000000F0000780000003400000049
:10918000370000001E00000090000000CC0000002E
:10919000DE0000001E000000780000000E0000004D
:1091A0004000000066000000400000001040000089
:1091B0007800000000800000FB0000004400000078
:1091C000DE00000000800000FB00000000800000C6
:1091D0006800000020070000980000002E0000003A
:1091E000900000006F0000006000000080000000A0
:1091F00040000000C02E0000280000000080000099
:109200004000000090000000780000001E000000F8
:109210009000000044000000DD000000008000001D
:109220006800000010070000980000001E00000009
:1092300090000000CC000000DE0000001E000000D6
:10924000780000000E0000004000000066000000F2
:109250004000000010400000780000000080000086
:10926000FB000000008000006800000020070000F4
:10927000980000002E000000900000006F00000029
:10928000600000008000000040000000C02E0000D0
:109290002800000000800000400000009000000056
:1092A000780000001E000000900000004400000054
:1092B000DD000000008000006800000010070000D2
:1092C000980000001E0F0000E80000001E080000CB
:1092D00090000000AE080000900000006100000057
:1092E00050000000E080000058000000100F000057
:1092F00098000000210F0000980000001E080000E8
:1093000090000000AE08000090000000E00F000098
:1093100050000000E08F0000580000000300000033
:109320003200000031000000200000009E8F00008D
:1093300010000000C9FF0000360000005E000000C1
:1093400090000000EE0000009000000062000000AD
:1093500040000000E08000004800000050070000CE
:109360009800000061070000980000001E0800003F
:1093700090000000AE08000090000000E00F000028
:1093800050000000E08F00005800000099FF00002E
:109390003A0000001E000000900000000080000065
:1093A000FA000000000000000600000000000000BD
:1093B000FA00000000800000800000000080000033
:1093C000FA0000000000000006000000020000009B
:1093D000FA0000004400000007000000C500000083
:1093E0000700000000000000E00000000E00000088
:1093F0003A00000004010000070000000000000027
:10940000E00000000B0000003200000000740000CB
:109410002000000010400000780000000044000020
:10942000B200000000040000E000000005000000A1
:109430003200000000740000200000001040000016
:10944000780000006140000060000000000400009F
:10945000E00000000100000032000000F000000009
:1094600007000000150100000700000026000000B2
:109470003700000000600000FE000000C501000091
:109480000700000083FC000007000000001000003F
:109490002000000010000000780000008040000064
:1094A000EB000000114700009800000000000000E1
:1094B000E0000000020000003D00000010C00000BD
:1094C000B300000010470000980000009E4000001C
:1094D0009000000061C100006000000050E000004A
:1094E000200000009040000078000000E0CF000065
:1094F000B300000000C00000600000000240000057
:109500007000000051E000002000000080480000D2
:109510007800000000100000200000001000000093
:109520007800000080400000EB000000014F0000C8
:109530007800000000000000E000000002000000D1
:109540003500000010C00000B3000000004F000014
:10955000780000009E4000007800000061C000001C
:109560006000000044010000DD00000040E1000058
:10957000200000009040000078000000F0CE0000C5
:10958000B300000000C000006000000002400000C6
:109590007000000041E10000200000008048000051
:1095A00078000000C0FF000007000000000000007D
:1095B000E0000000D7FF000032000000780100004A
:1095C0000700000005E10000A9000000010E0000F6
:1095D000A8000000108E0000A8000000C0000000DD
:1095E0000700000000000000EB0000000080000009
:1095F000FA0000000000000006000000000000006B
:10960000FA000000407400002000000090400000BC
:109610007800000000CE0000B300000000C0000091
:1096200060000000A0400000B30000004174000092
:109630002000000080480000780000004074000016
:10964000200000001040000078000000F2C300007D
:10965000B300000082400000600000004074000081
:1096600020000000014800007800000061070000B1
:1096700020000000607400002000000001080000CD
:109680007800000040A70000A900000032000000A0
:10969000200000008107000020000000A009000059
:1096A0002000000033740000200000008149000009
:1096B0007800000080490000780000008249000026
:1096C000780000001200000020000000610400008B
:1096D000200000007005000020000000237400003E
:1096E000200000008149000078000000804900004F
:1096F000780000008249000078000000307400000B
:1097000020000000104000007800000002C70000A8
:10971000B3000000824000006000000000C30000B1
:10972000B300000080CF000050000000F9FF0000EF
:109730003A000000207400002000000010400000EB
:109740007800000000420000B200000000040000A9
:10975000E0000000FBFF00003200000040A7000016
:10976000A900000032000000200000008107000076
:1097700020000000A0090000200000003374000059
:1097800020000000814900007800000080490000AE
:1097900078000000824900007800000012000000FC
:1097A000200000006104000020000000700500009F
:1097B0002000000023740000200000008149000008
:1097C0007800000080490000780000008249000015
:1097D00078000000307400002000000010400000FD
:1097E0007800000002C70000B300000082400000C3
:1097F0006000000000C30000B300000080CF000044
:1098000050000000F9FF00003A0000002074000042
:10981000200000001040000078000000004200001E
:10982000B200000000040000E0000000FBFF0000A8
:109830003200000080000000EB00000040E6000065
:1098400020000000010800007800000040E6000051
:1098500020000000900000007800000040E50000BB
:1098600020000000010800007800000040E5000032
:1098700020000000900000007800000040E400009C
:1098800020000000010800007800000040E4000013
:1098900020000000900000007800000040E300007D
:1098A00020000000010800007800000040E30000F4
:1098B00020000000900000007800000040E200005E
:1098C00020000000010800007800000040E20000D5
:1098D00020000000900000007800000040E100003F
:1098E0002000000001080000780000008000000057
:1098F000EB000000E0E40000200000000108000090
:1099000078000000E0E4000020000000900000006B
:1099100078000000E0E200002000000001080000E4
:1099200078000000E0E2000020000000900000004D
:1099300078000000E0E100002000000001080000C5
:109940007800000005E10000A900000004210000EB
:10995000A900000004C10000A900000004410000AB
:10996000A90000004010000020000000904000000E
:109970007800000000C30000B300000080C00000B9
:1099800070000000401000002000000001480000AE
:1099900078000000214E00002E0000002010000082
:1099A00020000000010800007800000005E1000030
:1099B000A8000000010E0000A9000000108E0000A9
:1099C000A9000000014E0000A9000000054E0000A3
:1099D000A90000006AEE0000A80000005A2E000056
:1099E000A80000005C2E0000A90000001B6E000013
:1099F000A90000001D6E0000A8000000008000000B
:109A0000FA0000000000000006000000080000004E
:109A1000FA00000000000000EB000000000F000052
:109A20007800000010EE0000A9000000110E0000F8
:109A3000A80000001D0E0000A800000000000000AB
:109A4000EB00000020070000980000002400000048
:109A5000370000002E000000900000006140000070
:109A600060000000614000006000000061400000F4
:109A700060000000C7000000DD00000040E10000C1
:109A8000200000001040000078000000007400007A
:109A9000A1000000014000007000000041E1000052
:109AA0002000000080480000780000000000000056
:109AB000EB00000010070000980000000400000008
:109AC0003700000000000000000000001E00000041
:109AD0009000000000000000E800000010070000F7
:109AE000980000009E00000090000000F05200006E
:109AF00027000000808F000050000000F8FF0000E9
:109B00003600000040E1000020000000104000008E
:109B10007800000000800000FB000000470000000B
:109B2000DE000000804000007800000030E100000E
:109B3000200000001040000078000000614000009C
:109B40006000000080CF0000500000000100000015
:109B5000320000001E0F0000E80000002E00000090
:109B60009000000000000000E80000002007000056
:109B7000980000002E00000090000000E90F000097
:109B800050000000D9FF00003600000010EE000079
:109B9000A80000001D0E0000A90000000000000049
:109BA000EB00000030070000980000001E000000DD
:109BB000E0000000020000003A0000001000000079
:109BC0002000000030070000980000003E00000068
:109BD0009000000000800000FA000000000000007B
:109BE0000600000002000000FA00000000C00000B3
:109BF00022000000000F0000780000001E0000009E
:109C0000780000000000000001000000008000005B
:109C1000FA0000000000000006000000060000003E
:109C2000FA00000080000000EB000000400500008A
:109C300020000000010800007800000000C00000C3
:109C40002200000010800000BA00000001000000A7
:109C500020000000C0000000DD0000000000000047
:109C600020000000008F0000BE00000000C00000C7
:109C70002200000010000000BA0000006101000096
:109C8000B80000001E000000BE0000000000000040
:109C9000710000008180000071000000008F000052
:109CA000BE0000001E010000BE000000F0FF00002A
:109CB0002F000000F10F000020000000800F0000C6
:109CC00051000000818F00005900000003000000D7
:109CD0003A00000000000000EB0000002007000038
:109CE0009800000002000000370000001000000093
:109CF0002000000020070000980000002E00000057
:109D00009000000000800000FA0000000000000049
:109D10000600000000000000FA00000060CE000015
:109D2000A900000011EE0000A8000000207400004F
:109D3000200000009000000078000000F00B000000
:109D400020000000008100006000000061040000AD
:109D500020000000700500002000000023740000B7
:109D600020000000814900007800000080490000C8
:109D7000780000008249000078000000406C00007C
:109D800020000000904000007800000000C80000A3
:109D9000B300000080C0000060000000406C0000C4
:109DA000200000000148000078000000406C000026
:109DB00020000000904000007800000000C8000073
:109DC000B300000000C000006000000071C7000088
:109DD000B30000000140000070000000416C000072
:109DE000200000008048000078000000106900009A
:109DF00020000000904000007800000000CC00002F
:109E0000B300000000C0000060000000000400007B
:109E1000A000000011690000200000008048000040
:109E20007800000020740000200000009000000076
:109E30007800000000040000200000000081000005
:109E400070000000610400002000000070050000A8
:109E50002000000023740000200000008149000061
:109E6000780000008049000078000000824900006E
:109E700078000000F10100002000000080220000B6
:109E800020000000010800007800000080000000B1
:109E9000EB0000000022000020000000010800008C
:109EA0007800000021E20000A8000000200200006D
:109EB000A900000080000000EB000000202200004C
:109EC000200000000108000078000000234200008C
:109ED000A800000022220000A900000000000000ED
:109EE000EB00000080C700008800000010AE0000FA
:109EF000A900000010CE0000A8000000207400009F
:109F0000200000009000000078000000F00B00002E
:109F100020000000008100006000000061040000DB
:109F200020000000700500002000000023740000E5
:109F300020000000814900007800000080490000F6
:109F4000780000008249000078000000606C00008A
:109F500020000000904000007800000000C80000D1
:109F6000B300000080C0000060000000606C0000D2
:109F7000200000000148000078000000606C000034
:109F800020000000904000007800000000C80000A1
:109F9000B300000000C000006000000061C20000CB
:109FA000B30000000140000070000000616C000080
:109FB00020000000804800007800000030680000A9
:109FC00020000000904000007800000000CC00005D
:109FD000B300000000C0000060000000304000003E
:109FE000B30000003168000020000000804800003D
:109FF00078000000207400002000000090000000A5
:10A000007800000000040000200000000081000033
:10A0100070000000610400002000000070050000D6
:10A02000200000002374000020000000814900008F
:10A03000780000008049000078000000824900009C
:10A0400078000000F10100002000000080230000E3
:10A0500020000000010800007800000080000000DF
:10A06000EB000000002300002000000001080000B9
:10A070007800000031E20000A8000000300200007B
:10A08000A900000080000000EB0000002023000079
:10A0900020000000010800007800000033420000AA
:10A0A000A800000032220000A9000000008000008B
:10A0B000FA000000000000000600000000000000A0
:10A0C000FA00000080C700008000000000000000CF
:10A0D000E00000000A0000003200000020820000C2
:10A0E000A900000023C20000A90000000000000039
:10A0F000EB00000080C70000880000006AEE00004E
:10A10000A80000005A2E0000A80000005C2E0000ED
:10A11000A90000001B6E0000A90000001D6E0000D9
:10A12000A8000000090000003700000020820000A5
:10A13000A800000023C20000A800000010000000DA
:10A140002000000080C70000880000006AEE0000C8
:10A15000A90000005A2E0000A90000005C2E00009B
:10A16000A80000001B6E0000A80000001D6E00008B
:10A17000A900000000800000FA00000000000000BC
:10A180000600000000000000FA00000021E20000CC
:10A19000A9000000207400002000000090000000D2
:10A1A00078000000F00B000020000000008100009B
:10A1B0006000000061040000200000007005000045
:10A1C00020000000237400002000000081490000EE
:10A1D00078000000804900007800000082490000FB
:10A1E00078000000406C000020000000904000005B
:10A1F0007800000000C80000B300000080C000002C
:10A2000060000000406C00002000000001480000D9
:10A21000780000001069000020000000904000005D
:10A220007800000000CC0000B300000080C00000F7
:10A2300060000000106900002000000001480000DC
:10A240007800000020740000200000009000000052
:10A2500078000000000400002000000000810000E1
:10A260007000000061040000200000007005000084
:10A27000200000002374000020000000814900003D
:10A28000780000008049000078000000824900004A
:10A290007800000060CE0000A800000000800000F0
:10A2A000FA000000000000000600000004000000AA
:10A2B000FA000000630000004700000025000000D5
:10A2C0000700000000000000E000000003000000A4
:10A2D0003200000063000000470000001100000091
:10A2E0002000000013FB000007000000007F0000BA
:10A2F00021000000000F0000780000001E00000098
:10A30000780000002EFC000007000000204700003D
:10A31000980000002E4000009000000000040000A3
:10A32000E00000001600000032000000054E0000B2
:10A33000A800000006000000370000001E0000001A
:10A340007800000010400000780000001E0F0000A0
:10A35000E80000003D00000007000000630000006E
:10A360004700000010000000070000002E40000021
:10A370009000000000400000E900000020470000BD
:10A38000980000002E40000090000000E14F000007
:10A3900040000000F4FF00003A00000030220000FE
:10A3A0002000000010400000780000006140000024
:10A3B0006000000000040000E0000000FBFF00005F
:10A3C00032000000054E0000A900000063000000FC
:10A3D00047000000020000000700000000800000AD
:10A3E000FA00000000000000060000000400000069
:10A3F000FA000000100700009800000000000000B4
:10A40000EB000000000F0000780000002022000098
:10A4100020000000104000007800000061400000B3
:10A420006000000000040000E00000000D000000DB
:10A430003200000060220000200000001000000038
:10A440007800000080400000780000001E0000003E
:10A450009000000001480000780000002022000069
:10A460002000000010400000780000006240000062
:10A470006000000000040000E00000000100000097
:10A480003200000022220000A9000000100000009D
:10A4900020000000000F00007800000020230000D2
:10A4A0002000000010400000780000006140000023
:10A4B0006000000000040000E00000000D0000004B
:10A4C00032000000602300002000000010000000A7
:10A4D0007800000080400000780000001E000000AE
:10A4E00090000000014800007800000020230000D8
:10A4F00020000000104000007800000062400000D2
:10A500006000000000040000E00000000100000006
:10A510003200000032220000A900000010000000FC
:10A5200020000000000F0000780000001E00000066
:10A530007800000000800000FA0000000000000029
:10A540000600000002000000FA000000004F0000BA
:10A5500078000000302200002000000010400000C1
:10A56000780000006240000060000000000400006D
:10A57000E0000000FBFF00003A0000009E800000A9
:10A58000FB00000040220000200000000108000045
:10A590007800000030230000200000001040000080
:10A5A000780000006240000060000000000400002D
:10A5B000E0000000FBFF00003A0000009E80000069
:10A5C000FB00000040230000200000000108000004
:10A5D0007800000000800000FA0000000000000089
:10A5E000060000000E000000FA000000004000001D
:10A5F000EB000000004F0000780000008000000029
:10A60000EB000000400500002000000001080000F1
:10A610007800000000000000EB0000001080000047
:10A62000BA00000001000000200000003007000018
:10A630009800000041070000980000003E00000064
:10A6400090000000CE00000090000000C00100005B
:10A65000DD000000020000002000000000000000FB
:10A66000EB00000010000000BA0000000100000034
:10A670002000000000000000710000008180000048
:10A680007100000030070000980000004107000042
:10A690009800000020000000200000001080000052
:10A6A000BA00000001000000200000005007000078
:10A6B0009800000061070000980000005E000000A4
:10A6C00090000000EE00000090000000C0010000BB
:10A6D000DD0000000200000020000000200000005B
:10A6E0002000000010000000BA000000010000007F
:10A6F00020000000000000007100000081800000C8
:10A700007100000050070000980000006107000081
:10A710009800000060000000B80000001007000072
:10A720009800000021070000980000001E040000AF
:10A73000E00000001C0000003A0000000080000063
:10A7400022000000010000002000000010070000AF
:10A750009800000021070000980000001000000091
:10A76000370000001E00000090000000AE00000056
:10A77000900000001C000000070000009072000024
:10A78000200000001040000078000000004200009F
:10A79000B200000000040000E00000000F00000014
:10A7A0003A0000001E00000090000000AE00000013
:10A7B0009000000002800000200000000300000064
:10A7C0002000000000000000410000008180000027
:10A7D0004900000010070000980000002107000059
:10A7E000980000001E01000090000000AE01000073
:10A7F00090000000F0FF00002400000011000000A5
:10A8000020000000800F000051000000818F000038
:10A8100059000000E9FF00003600000090720000BF
:10A8200020000000104000007800000000800000C0
:10A83000FB00000045000000DE0000006140000059
:10A840006000000000800000FB00000000800000AD
:10A85000FA000000000000000600000008000000F0
:10A86000FA000000200700009800000031070000F7
:10A87000980000002E00000090000000BE000000C4
:10A8800090000000008F0000BE0000002E4000007D
:10A890009000000080800000FB00000040050000E8
:10A8A0002000000001080000780000009E00000069
:10A8B00090000000C07200002000000001080000AD
:10A8C000780000009E00000078000000A0720000E8
:10A8D0002000000001080000780000009E00000039
:10A8E0007800000000800000EB00000080080000FD
:10A8F000BB00000031000000240000008072000056
:10A90000200000000108000078000000C3E80000FB
:10A91000A900000050050000200000007039000070
:10A9200088000000A00A000020000000703900002C
:10A930008800000029E70000A800000000000000D7
:10A940000000000000000000000000009072000005
:10A9500020000000904000007800000000C80000C7
:10A96000B300000000C00000600000000004000010
:10A97000E0000000FAFF00003A000000C3E8000019
:10A98000A8000000907200002000000010400000AD
:10A990007800000000800000FB000000450000007F
:10A9A000DE00000061400000600000000080000048
:10A9B000FB00000000800000FA0000000000000022
:10A9C0000600000010000000FA0000004007000030
:10A9D0009800000051070000980000006207000086
:10A9E0009800000073070000980000004E0000006F
:10A9F00090000000DE00000090000000008F0000CA
:10AA0000BE0000006E00000090000000FE0000008C
:10AA100090000000200700009800000031070000AF
:10AA20009800000011000000240000008072000067
:10AA30002000000001080000780000009E000000D7
:10AA400090000000C072000020000000010800001B
:10AA5000780000009E00000078000000A072000056
:10AA6000200000000108000078000000A10F000095
:10AA70002000000040050000200000000108000048
:10AA8000780000004E00000090000000DE00000092
:10AA90009000000063010000600000006000000002
:10AAA000B8000000030000002000000002000000C9
:10AAB000700000008380000070000000E00F0000C4
:10AAC00050000000E08F0000580000000D00000062
:10AAD0003200000080000000EB0000000080000059
:10AAE000EB00000080080000BB0000001100000027
:10AAF00020000000F00F000020000000808800000F
:10AB0000BB000000AE00000090000000200000002C
:10AB10002000000001080000BB000000BE00000093
:10AB200090000000300000002000000001880000BC
:10AB3000BB0000000C00000037000000AE00000069
:10AB40009000000000000000EB0000000108000081
:10AB5000BB000000BE0000009000000010000000DC
:10AB60002000000001880000BB0000002100000060
:10AB70002000000000800000EB00000080080000C2
:10AB8000BB0000003100000020000000F00F0000BA
:10AB90002000000080880000BB000000C3E8000027
:10ABA000A9000000500500002000000070390000DE
:10ABB00088000000A00A000020000000703900009A
:10ABC0008800000029E70000A80000000000000045
:10ABD0000000000000000000000000009072000073
:10ABE00020000000904000007800000000C8000035
:10ABF000B300000000C0000060000000000400007E
:10AC0000E0000000FAFF00003A000000C3E8000086
:10AC1000A80000009072000020000000104000001A
:10AC20007800000000800000FB00000045000000EC
:10AC3000DE000000614000006000000000800000B5
:10AC4000FB00000000800000FA000000000000008F
:10AC5000060000000010000000000000F0070000E7
:10AC6000000000008000000000000000F01700005D
:10AC70000000000002010000000000008000000051
:10AC8000000000000000000000000000340C000084
:10AC9000190600000C0300008501000003010000FC
:10ACA00081000000400000001F000000359B0000F4
:10ACB0009ACD0000D1E6000068F300009BF7000089
:10ACC000CDFB0000E6FD0000F3FE0000D114000003
:10ACD000688A00003DC500009EE200006AEC0000AA
:10ACE00035F600001AFB00008DFD000098210000E1
:10ACF000CC1000006408000032040000CC02000008
:10AD000066010000B300000059000000CA640000A2
:10AD1000653200002E190000970C00006408000046
:10AD200032040000190200000C0100002EEB0000AC
:10AD300097750000C23A0000611D000095130000E5
:10AD4000CA090000E50400007202000000C1000012
:10AD50008140000001C000008041000001C00000EF
:10AD60008041000000C100008140000001C00000DF
:10AD70008041000000C100008140000000C10000CF
:10AD80008140000001C000008041000001C00000BF
:10AD90008041000000C100008140000000C10000AF
:10ADA0008140000001C000008041000000C100009F
:10ADB0008140000001C000008041000001C000008F
:10ADC0008041000000C100008140000001C000007F
:10ADD0008041000000C100008140000000C100006F
:10ADE0008140000001C000008041000000C100005F
:10ADF0008140000001C000008041000001C000004F
