:10500000002C040000000000CC310400000000006F
:1050100002320400000000006E35040000000000B1
:105020003E32040000000000743204000000000062
:10503000AA320400000000006E35040000000000E9
:105040006E350400000000006E3504000000000012
:105050006E350400000000006E3504000000000002
:105060006E350400000000006E35040000000000F2
:105070007A2D0400000000006E35040000000000DE
:105080006E350400000000006E35040000000000D2
:105090006E350400000000006E35040000000000C2
:1050A0007E2E0400000000006A2E040000000000B4
:1050B000E0320400000000006E3504000000000033
:1050C0006E350400000000006E3504000000000092
:1050D0006E350400000000006E3504000000000082
:1050E0006E35040000000000A6300400000000003F
:1050F0006E350400000000006E3504000000000062
:105100006E350400000000009A2E0400000000002C
:105110004A350400000000005C3504000000000077
:10512000EC2D040000000000E42E0400000000004C
:1051300072310400000000002E2F04000000000067
:105140006E350400000000006E3504000000000011
:105150006E350400000000006E3504000000000001
:10516000BC2D0400000000004A2F040000000000D5
:105170006E350400000000006E35040000000000E1
:105180006E350400000000006E35040000000000D1
:105190006E350400000000006E35040000000000C1
:1051A0006E350400000000006E35040000000000B1
:1051B0006E350400000000006E35040000000000A1
:1051C0006E350400000000006E3504000000000091
:1051D0006E350400000000006E3504000000000081
:1051E0006E350400000000006E3504000000000071
:1051F0006E350400000000006E3504000000000061
:105200006E350400000000006E3504000000000050
:105210006E350400000000006E3504000000000040
:105220006E350400000000006E3504000000000030
:105230006E350400000000006E3504000000000020
:105240006E350400000000006E3504000000000010
:10525000A42E040000000000662F040000000000DF
:105260006E350400000000006E35040000000000F0
:105270006E350400000000006E35040000000000E0
:105280006E350400000000006E35040000000000D0
:105290006E350400000000006E35040000000000C0
:1052A0006E350400000000006E35040000000000B0
:1052B0006E350400000000006E35040000000000A0
:1052C0006E350400000000006E3504000000000090
:1052D0006E350400000000006E3504000000000080
:1052E0006E350400000000006E3504000000000070
:1052F0006E350400000000006E3504000000000060
:105300006E350400000000006E350400000000004F
:105310006E350400000000006E350400000000003F
:105320006E350400000000006E350400000000002F
:105330006E35040000000000A62F040000000000ED
:10534000FE2F040000000000803004000000000078
:105350006E350400000000006E35040000000000FF
:105360006E350400000000006E35040000000000EF
:105370006E350400000000006E35040000000000DF
:105380006E350400000000006E35040000000000CF
:105390006E350400000000006E35040000000000BF
:1053A0006E350400000000006E35040000000000AF
:1053B0006E350400000000006E350400000000009F
:1053C0006E350400000000006E350400000000008F
:1053D0006E350400000000006E350400000000007F
:1053E0006E350400000000006E350400000000006F
:1053F0006E350400000000006E350400000000005F
:105400006E350400000000006E350400000000004E
:105410006E350400000000006E350400000000003E
:105420006E350400000000006E350400000000002E
:105430006E350400000000006E350400000000001E
:105440006E350400000000006E350400000000000E
:105450006E350400000000006E35040000000000FE
:105460006E350400000000006E35040000000000EE
:105470006E350400000000006E35040000000000DE
:105480006E350400000000006E35040000000000CE
:105490006E350400000000006E35040000000000BE
:1054A0006E350400000000006E35040000000000AE
:1054B0006E350400000000006E350400000000009E
:1054C0006E350400000000006E350400000000008E
:0854D0006E350400000000002D
:10580000EFE123000EFF27000E01880000000000DA
:10581000000020000000E000020032000001200033
:1058200020028800140007005F0507000000E00068
:1058300003003A00A07C280011002000020037007D
:105840000000200001002000810F700001003200E4
:105850000F000700000020000000E00002003200FE
:105860000000020000000000C28D020001000000E4
:105870000040DA000000FE0020F122000000E000FD
:105880000200320000202000900188000000060085
:10589000A1028800800478000000EB001F003700A0
:1058A000E284440054A0B4009905BA00E2844400A4
:1058B00054A0B4009906BA00E284440054A0B40095
:1058C0000006EB00476FDE00FD07B200AE01880066
:1058D000636CE10003003A000AD801000000EB000D
:1058E0000E003700606CE10008003A00004DEB004C
:1058F0000A05E800020039003420EC000AF0A0009C
:105900008B05E900F9FF3E00040037006168E10003
:10591000010032000086EB000B00070019C7BA0037
:105920000E04E0001905BA0003003A000A00E00086
:10593000DBFF3A0000000600FE07B200AE0288005E
:105940008A047800F5FF37000CD0A300E20F4D0069
:105950001C00390089027800354DBA000A05E800BC
:10596000020039003420EC000AF0A0008B05E900A9
:105970000F003200254DBA000A05E8000200390088
:105980003420EC000AF0A0008B05E900080032008A
:105990000C00E0000600320015CDBA000A05E80050
:1059A000020039003420EC000AF0A0008B05E90069
:1059B0008984E80054A0B4000B00E000E2FF3A0044
:1059C000000006009902BA00055D78008B05E90029
:1059D000F7FF3200C82ADE00055D78008B05E9007C
:1059E000F3FF32000C00E000F1FF320019DDBA00D5
:1059F000EEFF37007E72040001000000D272040046
:105A000001000000B8900400010000001E91040095
:105A100001000000466A040001000000900A040032
:105A2000010000002611040001000000720E0400B5
:105A300001000000240F0400010000001C0D040000
:105A4000010000009EED04000000000044EE040090
:105A5000000000007EFC04000000000068760400E6
:105A6000010000006E770400010000000C770400C4
:105A700001000000C676040001000000243F04007D
:105A800001000000AC3B0400010000007E3B04006C
:105A9000010000007040040001000000863B04008B
:105AA000010000008E3B040001000000963B040052
:105AB0000100000058400400010000009E3B04006B
:105AC00001000000A43B0400010000008840040025
:105AD00001000000404004000100000028400400D4
:105AE000010000001040040001000000F83F040025
:105AF000010000003600F800809FBE00829FBE00BB
:105B0000849FBE00869FBE003200F8003400F8007B
:105B100010002000A00188000020200000D0FE001E
:105B200000A8A900C6A5020001000000601B8900B2
:105B3000601B81000000E0000C00350000A8AB00F5
:105B40000200320030002000001689003400F90005
:105B50003200F9004F03BE004F02BE004F01BE00ED
:105B60004F00BE003600F90000400600A0362200BB
:105B70000008EB00F1FF37003600F800809FBE0000
:105B8000829FBE00849FBE00869FBE003200F80048
:105B90003400F80010002000A00188000020200040
:105BA00000D0FE00308C8000100078004A310200E6
:105BB000010000000468A9003400F9003200F90077
:105BC0004F03BE004F02BE004F01BE004F00BE009B
:105BD0003600F900004006003600F800809FBE0045
:105BE000829FBE00849FBE00869FBE000368A900FE
:105BF000606A220010007800680060000C0032002B
:105C0000303581000040A000303589001FE1A90037
:105C1000965A0200010000004F03BE004F02BE0072
:105C20004F01BE004F00BE003600F90000400600E4
:105C30007011810000D8A3000A0032002282AB005C
:105C400015003200303581000030A0003035890069
:105C5000E0FF2F00A0088800965A02000100000013
:105C6000EDFF3700303581000030A000303589006D
:105C700070118100670060000000400001972E0055
:105C80000080400010007800A0088800965A0200AA
:105C900001000000E0FF3700701181006700600024
:105CA0000000400001982E00008040001080EA00B3
:105CB000A00888000368A9004F03BE004F02BE0081
:105CC0004F01BE004F00BE003600F9000040060044
:105CD000D7FF3700801F78002302AB00FEFF3200A1
:105CE0000188A9002188A900034EA9001000200006
:105CF000203589004F007800004006003600F8008B
:105D0000809FBE00829FBE00849FBE00869FBE0013
:105D10000168A900965A0200010000004F03BE006E
:105D20004F02BE004F01BE004F00BE003600F9001A
:105D3000004006000308A90023A2A8000188A900CA
:105D40002188A80000400600801F78000828A900CC
:105D50002262AB00040032002262A900E0878000CA
:105D60001010B200150032002242AB0004003200D5
:105D70002242A900E08780001010B2000C0032001F
:105D80002222AB00080032002222A900A08B2200B0
:105D90001008E800E08780001010B20002003A000E
:105DA00030102100001689004F00780000400600E6
:105DB0002010210000168900F1FF3700101021008B
:105DC00000168900E8FF37003600F800809FBE000B
:105DD000829FBE00849FBE00869FBE00E08B220093
:105DE00010007800680060000E003A00F045810065
:105DF0000030A000F0458900C04B8700C008880033
:105E00000388A900E4930200010000004F03BE00D4
:105E10004F02BE004F01BE004F00BE003600F90029
:105E200000400600F04581000040A000F0458900D8
:105E300021E1A9000388A900E49302000100000009
:105E40004F03BE004F02BE004F01BE004F00BE0018
:105E50003600F90000400600F2FF37003600F80077
:105E6000809FBE00829FBE00849FBE00869FBE00B2
:105E700003C8A900E4930200010000004F03BE0024
:105E80004F02BE004F01BE004F00BE003600F900B9
:105E9000004006003600F800809FBE00829FBE00D2
:105EA000849FBE00869FBE000488A900E493020080
:105EB000010000004F03BE004F02BE004F01BE00B4
:105EC0004F00BE003600F90000400600801F780039
:105ED0000848A9003262AB00040032003262A90017
:105EE000E08780001010B200150032003242AB0093
:105EF000040032003242A900E08780001010B20096
:105F00000C0032003222AB00080032003222A9001D
:105F100020AD22001008E800E08780001010B200D9
:105F200002003A0030202100001689004F0078005E
:105F3000004006002020210000168900F1FF3700F4
:105F40001020210000168900E8FF37003600F80015
:105F5000809FBE00829FBE00849FBE00869FBE00C1
:105F60003200F8003400F80010002000A001880082
:105F70000020200000D0FE000BC8A9000070EC003B
:105F80008E9F0200010000006E430200010000002D
:105F900000D0BF0067006000080032003400F90044
:105FA0003200F9004F03BE004F02BE004F01BE0099
:105FB0004F00BE003600F900004006000610F80051
:105FC0000A10F9000810F8000C10F900CE45020084
:105FD000010000000288A8003400F9003200F90036
:105FE0004F03BE004F02BE004F01BE004F00BE0077
:105FF0003600F90000400600F0FF37003600F800D8
:10600000809FBE00829FBE00849FBE00869FBE0010
:106010003200F8003400F80010002000A0018800D1
:106020000020200000D0FE000BE8A900E013810052
:10603000106E8900F0138100206E8900FAA402001E
:10604000010000000036020001000000FCF0AB007F
:1060500016003A00A1138100F2118100D083800064
:106060000000410001004000E06D890038A40200FA
:106070000100000098A502000100000060A50200D8
:106080000100000026380200010000003400F90081
:106090003200F9004F03BE004F02BE004F01BE00A8
:1060A0004F00BE003600F90000400600F1118100EB
:1060B0002080800000804000E06D890038A402004C
:1060C0000100000098A502000100000060A5020088
:1060D0000100000026380200010000003400F90031
:1060E0003200F9004F03BE004F02BE004F01BE0058
:1060F0004F00BE003600F90000400600EBFF3700FD
:10610000809FBE003200F8003400F800100020002C
:10611000A00188000020200000D0FE0091618000D6
:106120009063800000805000906388000C08A900F4
:106130002083A900000E20002023B7003400F900BE
:106140003200F9004F00BE00004006003600F800A3
:10615000809FBE00829FBE00849FBE00869FBE00BF
:106160003200F8003400F80010002000A001880080
:106170000020200000D0FE000288A9000060FE0080
:10618000FE10AB0027003A006E9E020001000000E6
:106190006063020001000000903A0200010000006C
:1061A000D499020001000000AC2A020001000000A6
:1061B000FC10AB0031003200EA4602000100000092
:1061C00074170200010000007CA102000100000021
:1061D000DCA40200010000002016810031168100BD
:1061E00061004000E08048002016890031168900D7
:1061F00003A8A8000288AB0002003200FD10AB002B
:10620000130032003400F9003200F9004F03BE00E1
:106210004F02BE004F01BE004F00BE003600F90025
:106220000040060098C70200000000003400F9009A
:106230003200F9004F03BE004F02BE004F01BE0006
:106240004F00BE003600F90000400600F5FF3700A1
:1062500020002000001689003400F9003200F90007
:106260004F03BE004F02BE004F01BE004F00BE00F4
:106270003600F90000400600EAFF370098C7020028
:1062800000000000CC8D02000100000042980200D6
:10629000010000006464020001000000EA46020000
:1062A0000100000074170200010000007CA1020040
:1062B00001000000DCA402000100000020168100A3
:1062C0003116810061004000E080480020168900FE
:1062D0003116890003A8A8000288AB00C7FF3A0066
:1062E000C8FF37003600F800809FBE00829FBE00C6
:1062F000849FBE00869FBE003200F8003400F80084
:1063000010002000A00188000020200000D0FE0026
:1063100003A8A900449C0200010000007A7E02004C
:1063200001000000108880000000E0000A00320038
:106330000000E900108888003400F9003200F900FC
:106340004F03BE004F02BE004F01BE004F00BE0013
:106350003600F90000400600387B02000100000012
:10636000D08780000A9B020001000000300120005D
:10637000108888003400F9003200F9004F03BE0095
:106380004F02BE004F01BE004F00BE003600F900B4
:1063900000400600F0FF37003600F800809FBE0086
:1063A000829FBE00849FBE00869FBE003200F80020
:1063B0003400F80010002000A00188000020200018
:1063C00000D0FE00C028A90042062000F1C0B300A2
:1063D0000040EB00389C020001000000500020004B
:1063E000001689003400F9003200F9004F03BE00A6
:1063F0004F02BE004F01BE004F00BE003600F90044
:10640000004006003600F800809FBE00829FBE005C
:10641000849FBE00869FBE003200F8003400F80062
:1064200010002000A00188000020200000D0FE0005
:10643000B0A502000100000000888800C068A90023
:1064400042062000F1C0B3000040EB00389C02007F
:106450000100000060002000001689003400F900EF
:106460003200F9004F03BE004F02BE004F01BE00D4
:106470004F00BE003600F900004006003600F8006C
:10648000809FBE00829FBE00849FBE00869FBE008C
:106490003200F8003400F80010002000A00188004D
:1064A0000020200000D0FE00C048A90042062000C5
:1064B000F1C0B3000040EB00389C02000100000076
:1064C00070002000001689003400F9003200F90045
:1064D0004F03BE004F02BE004F01BE004F00BE0082
:1064E0003600F900004006003600F800809FBE002C
:1064F000829FBE00849FBE00869FBE003200F800CF
:106500003400F80010002000A001880000202000C6
:1065100000D0FE00C088A90042062000F1C0B300F0
:106520000040EB00389C02000100000080002000C9
:10653000001689003400F9003200F9004F03BE0054
:106540004F02BE004F01BE004F00BE003600F900F2
:10655000004006003600F800809FBE00829FBE000B
:10656000849FBE00869FBE003200F8003400F80011
:1065700010002000A00188000020200000D0FE00B4
:10658000C0A8A90042062000F1C0B3000040EB0003
:10659000389C0200010000009000200000168900D5
:1065A0003400F9003200F9004F03BE004F02BE0074
:1065B0004F01BE004F00BE003600F900004006004B
:1065C0003600F800809FBE00829FBE00849FBE0000
:1065D000869FBE00889FBE003200F8003400F8009D
:1065E00010002000A00188000020200000D0FE0044
:1065F00001A8A900BCD1BF00E14F50007B003200D0
:106600000D003900E24F50009D003200E34F500072
:106610004E0032003400F9003200F9004F04BE0091
:106620004F03BE004F02BE004F01BE004F00BE0030
:106630003600F90000400600B00020004019880034
:106640002040280000198800B08D8000E10F500024
:10665000D1003200E20F5000E30032000118800048
:10666000231880004218800060188000818041005B
:106670008280400080804000C408DD001318800044
:1066800039188000521880007018800083844400FC
:106690008284440080844400C44CDD000210E20087
:1066A000C3003200180028008880400008007800ED
:1066B0002612B400C836020000000000F013890062
:1066C00088804400080078002812B400C836020010
:1066D00000000000F11381000000EA0001005000FA
:1066E000E0138900BC71EC0000D0BF00674060007F
:1066F000BDF1B7000101200011198800E14F5000E1
:10670000D9003600414E2800011988000080FB00A6
:106710000000400081382F00008040001000780009
:10672000401988003400F9003200F9004F04BE001F
:106730004F03BE004F02BE004F01BE004F00BE001F
:106740003600F90000400600BBFF3700320E800023
:10675000510E80000000EB008001EB000200700091
:1067600083807000708E8800818E880020188000E1
:106770000803B400B0138900B01381004300DD00AA
:10678000B0138900101880000603B400C0138900FC
:10679000C01381004300DD00C0138900BC71EF000D
:1067A000C000200000198800C010200010198800C7
:1067B00090912100401988001010200030198800A5
:1067C00021E3A8003400F9003200F9004F04BE00B4
:1067D0004F03BE004F02BE004F01BE004F00BE007F
:1067E0003600F9000040060093FF370010188000C3
:1067F000241880003318800042188000D11B21002B
:10680000914078008180FB0081804000A5E2220059
:10681000818042000000420003004000020040006E
:106820008008400020C0B300BCF1B700C0002000C9
:1068300000198800C0102000101988000060200096
:1068400080198800909121004019880010002000D4
:106850003019880021E3A8003400F9003200F90063
:106860004F04BE004F03BE004F02BE004F01BE00EA
:106870004F00BE003600F900004006006EFF3700F2
:10688000B08D8000E10F50002C003200E20F50006C
:106890005C0032000118800023188000421880003C
:1068A000601880008180410082804000808040002C
:1068B000101880003418800053188000721880006F
:1068C00000004200030040000200400032918000BE
:1068D000E8014100C419DE0003015100010141003B
:1068E0003291880041918000688140004411DE00AF
:1068F00082805000808040004191880030C0B30009
:10690000BCF1B7000041200010198800404E28005B
:10691000001988003400F9003200F9004F04BE006D
:106920004F03BE004F02BE004F01BE004F00BE002D
:106930003600F900004006003FFF370021188000B4
:10694000C208DD00301880004200DD003291800076
:10695000E8014100C419DE000301510001014100BA
:106960003291880041918000688140004411DE002E
:1069700082805000808040004191880030C0B30088
:10698000BCF1B7000041200010198800404E2800DB
:1069900000198800DFFF370021188000C608DD00DD
:1069A00039188000C64CDD000210E2003DFF3A00BD
:1069B0001800280088804000080078002612B400E3
:1069C000C836020000000000F013890088804400EF
:1069D000080078002812B400C83602000000000049
:1069E000E01389003FFF3700201880000803B4003F
:1069F000C500DD00301880000A03B400C504DD00C6
:106A000026FF3700201880000803B40080004000F3
:106A1000301880000A03B40000004000329180006A
:106A2000E8014100C419DE000301510001014100E9
:106A30003291880041918000688140004411DE005D
:106A400082805000808040004191880030C0B300B7
:106A5000BCF1B7000041200010198800404E28000A
:106A600000198800ABFF3700410E2800011988008B
:106A7000410EB100D11988000080FB0000004000E9
:106A800081382F00008040001000780040198800F5
:106A900024FF37000328A9002609E2000500320080
:106AA000D211F8001809F9001809F8001A09F900BC
:106AB0002328A900004006000348A9001C09E200A1
:106AC00005003200D211F8002209F9002209F8006D
:106AD0002409F9002348A900004006000040DA001C
:106AE0000000FE000A00FA00E20F500034003E00F1
:106AF000E0578100E10F500003003200E20F500028
:106B000011003A000C003700032220000300E000CF
:106B100001003A000040DA002002E20002003500E5
:106B20002822EF0021E2A8002342AB000D003A002A
:106B30002342A8000B003700032320000300E000DD
:106B400001003A000040DA003002E20002003500A5
:106B50003822EF0031E2A8003342AB0001003A00D6
:106B60003342A800820178000B0037003102FB009D
:106B7000E10F500004003A002322AB00FEFF3A0070
:106B800024118800030037003322AB00FEFF3A00D7
:106B9000A41188008301E9000300E000F3FF3A003C
:106BA000E10F500003003A002302AB00FEFF320069
:106BB0000B0037003302AB00FEFF32000800370045
:106BC00033002000B3BF9F00C0BF9F00D1BF9F0014
:106BD000E2BF9F006A805700890707006FB99700DE
:106BE000020078000080FA0000000600889FBE00C6
:106BF00080047800F05781000000E00004003A00B3
:106C00000E0007000084EB000000E00008003500E3
:106C1000F85781000900E000050032000900440037
:106C2000060007000000E00001003D000084EB00CA
:106C3000080078004F04BE000000060080007800C5
:106C40000100E00003003A00E0E72200F05789006D
:106C5000000005000080EB00E2E12300828F50007D
:106C600002003E00F15789000000EB000000060022
:106C7000800378000000EB001038E60000000600FA
:106C8000889FBE008781CF00E28051000139DD007E
:106C9000000028008002510005027800C12ADD00B2
:106CA0000600240006A3B90005A4B90000002F00C7
:106CB0000981B900060341008783490005CCB9006A
:106CC000008020000981B900060341008783490044
:106CD00005CCB90000B02F000981B90006034100BE
:106CE0008783490005CCB900003820000981B9002C
:106CF000060341008783490005CCB90000D62F0068
:106D00000981B900060341008783490005CCB90019
:106D1000002120000981B900060341008783490052
:106D200005CCB90030E52F000981B9000603410008
:106D3000878349004F33DE004138DD0000037300D4
:106D4000CFBBDE000000280006034000E0834B00BC
:106D50004109DE00700011000233DE000038DD0062
:106D60000003730082BBDE000100A30005003900B0
:106D700024A8250004B0B9004F00DE00C108DD00E2
:106D800001037000060078004F04BE0000000600FA
:106D90000100500003003800000028004200AE004F
:106DA000F0FF270000000600000005005400F80076
:106DB0004239880050398800613988000500FC009C
:106DC0005105200071398800A10A2000713988001E
:106DD00029E7A80000000000000000005400F900AE
:106DE000000006000400A100010037000400A0001C
:106DF0005400F8005039880061398800A00F200045
:106E0000A00288000000EB00210024004139880026
:106E1000F10F20003208BB000400A700B200780088
:106E20000198BB002CA7EC008301E900F9FF3A00B0
:106E3000680151000400A70068015100680050007B
:106E40001208BB00DDFF3700F30F20005400F800EC
:106E50005039880061398800A1028800110024009F
:106E6000413988000208BB000388BB00D3FF37000C
:106E70005400F80040398800D0FF3700F30F20009D
:106E8000F50F20005400F80050398800613988005F
:106E9000A00F2000A00288000000EB000208BB0049
:106EA0000398BB000408BB000598BB001100240038
:106EB00041398800C1FF37005400F800A102880062
:106EC00080027800620040003549BA00E080480046
:106ED0003204E0000410A700100032008301E90032
:106EE0000E0032002549BA003204E0000410A70069
:106EF0000A0032008301E900080032000408A30000
:106F0000EEFF320015C9BA003204E0000410A700F9
:106F1000020032008301E900E8FF3A005400F90062
:106F2000000006003400F8003200F8000203BE0042
:106F3000820270008502720002F0A6008301E80060
:106F4000A301880000F0A6008100E80091018800FC
:106F50001500B2000C003200104978000402E9006C
:106F60001500320061014100020039003420EC00BC
:106F70000200280061004000F7FF39003220EC00D9
:106F800000002800F4FF3700100978000482E900AF
:106F90000900320062014100020039003420EC0097
:106FA0000200280062004000F7FF39003220EC00A8
:106FB00000002800F4FF37003200F9003400F90027
:106FC0000601BE000000060003F0A200889FBE007C
:106FD0008A9FBE008C1F7800190107002001330032
:106FE0006450E1004F0032006420E10052003200A2
:106FF00003826C0007003B000905D0000306D000A7
:10700000820F54000C065D000200390002003200BD
:1070100089017800030678008582550004003D0050
:107020000003FD008103FD008502EA008B8542001C
:10703000840F720002003B0060001000E080180026
:107040006011B8000005EB007A28E1000A00390061
:1070500006007800C75DDD00F707B2008780750085
:107060002D003700828171000A01780061056000FF
:107070008180D1000080D3008502E900F9FF3B0048
:10708000060440008784480002003B0060041400AE
:10709000E0841C000988A300070032008A81710087
:1070A00082817100610164008904D1000884D300E9
:1070B0008B05E800170037000978A30013003A0099
:1070C0000B00E000130034008B05E90008044400C5
:1070D00089844C000A4474000978A3000D003A002A
:1070E0000B00E000070034008B05E90008044400B1
:1070F00089844C0001003A000B0020000978A300AD
:10710000F7FF32000001EB000200370082817100BE
:107110000A0178008F0007000CF0A70001F0A00022
:10712000D80037006420E10002003A00838F6C0031
:10713000D80033000801BE000200BE00D1003700B5
:10714000889FBE008A9FBE008C1F7800BC0007008D
:10715000C300330003866C006450E1002E0032004F
:107160006420E100330032006150E1002F00320062
:107170006120E1003100320085855500EB07B00049
:10718000090020000804200005003700080444001E
:1071900089844C000A0031000603430087834B00BA
:1071A0000001530081815B00F8FF33000203BE0041
:1071B0000800A0000804440089844C00F6FF390050
:1071C000C639DD0083017300010032001300200086
:1071D0008904D1000884D3000998A3000500320077
:1071E0000800A7000300A0008904D1000884D30090
:1071F0008B05E8008904D1000884D3000001EB006E
:107200000281D2005300070001F0A1000CF0A7009A
:1072100001F0A0009B0037006420E1009D003200D7
:107220000801BE000200BE00F7FF37006120E10048
:10723000980032006000B800F3FF37000000200023
:1072400001F82700F0FF3700839F68000100E0008D
:1072500002003D0060001000E08018000300E00024
:1072600002003D0060011100E0811900C00007002C
:107270004F00E00002003B0060001000E0801800BA
:1072800000000600140020001C013700F4FF2F004E
:107290001A0137000001BE00540007000470A70067
:1072A00003F0A1006509B100160032000D003500A1
:1072B0006828E10006003500F0FF2F00F1FF2700ED
:1072C0000300E00013003B0001002800000005005F
:1072D00000004000818048008502E900FCFF3A0080
:1072E00008003700F88F420002003C008000EB00ED
:1072F000000005008100D1000080D3008502E80075
:10730000FCFF3A000300E00002003B0060001000B8
:10731000E0801800000006004F89DE00820178003E
:10732000110137006011B8001F0137000001EB00A8
:10733000CB000700040032000200200003F8230005
:1073400001F0A70020FF0700000006000400200055
:10735000EA00370081002000618055000B003D00ED
:107360000B00200061FE2F000100E1001D00340031
:1073700082817100610164008904D1000884D30016
:107380000000E800FAFF3A0071002000610064008C
:107390000300700002006000090032006104440034
:1073A000E0844C000988A500050032008B05E80048
:1073B0006808E10002003A008904D1000884D30083
:1073C000F20F20000258E10005003D00C75DDD001E
:1073D000F907B200898075000800780000000600F7
:1073E0000BF827008B00780000000500C70ADE00BC
:1073F000F107B200F50FB20008003200E1CF420001
:10740000020032000170A00024000500810F70000E
:10741000010032000408050044000500810F7000DF
:1074200002003A00140005008502E9000000400057
:1074300081C04800FCFF3B000170A0002400050053
:107440000004BE00E9FF07000003BE000405BE0003
:107450000200BE00E5FF0700844F75000000060033
:107460000200BE006450E100050036006420E10027
:10747000020036000968A30001003A000800BE00BF
:107480000160A0004F0678004F05BE004F04BE000B
:1074900000000600F0FF2F00F1FF2700F9FF370082
:1074A000889FBE008A9FBE008C1F7800E4FF070003
:1074B000EBFF330003866C006450E10024003200CF
:1074C0006420E100270032006150E1002200320018
:1074D0006120E100210032008B854200EB07B10002
:1074E0000134B800003AB8000804420089844A0018
:1074F000013AB8000030B8008880400009014A0015
:10750000040033000000400081804800020149006F
:107510008B05E900C909DD0083017000010032001C
:1075200013002000C814DE004814DD004709DE0007
:107530001200B200C808DE000884700085FF070052
:1075400001F0A1000CF0A70001F0A000CDFF370072
:107550006120E100CFFF32000801BE000200BE0042
:10756000F7FF37006150E100FCFF3A00C9FF370028
:107570006022B800060220000000D0008180D20006
:107580000482D2008582D2000000A00002025200D4
:1075900083825A00030031000202420083824A00C3
:1075A0000000A1000603E900F3FF3A000000060016
:1075B000EFFF07000400BE0000000600889FBE0029
:1075C0008A9FBE008C1F78000006EB00E00F500081
:1075D000E08F5800E00F5900E08F590007003D0090
:1075E0006044B8006055B8000000540081805C0021
:1075F00002015D0083815D001C002000E00F52004D
:10760000E08F5A00E00F5B00E08F5B0007003D0059
:107610006044B8006055B8000402540085825C00E4
:1076200006035D0087835D000C00A2008D0007004B
:107630000C00E000060032006022B8006033B800A1
:107640000000520081805A0002015B0083815B00D0
:107650004F0678004F05BE004F04BE000000060034
:10766000889FBE008A9FBE000003BE005FFF070028
:107670008505780082815200020020006220E1002E
:1076800004003A00F307B100040035007718E10068
:10769000040035000600BE00140037006000B8008A
:1076A0000F003700F50F2000FAFF2F008502D100F0
:1076B0000A85D3008301E900FCFF3B00818462005E
:1076C00000046500890F7400F2FF32008582EA0031
:1076D0000A85EA0081846200000465001DFF07003E
:1076E00007F0A70001F0A0000081EB000200E0001D
:1076F0004F05BE004F04BE0000000600889FBE007C
:107700008A9FBE00841F78004DFF07004F0078005D
:1077100011003300F0FF2F00838F6C0006003B0048
:10772000040565000A00A7000800370009F0A6005C
:107730001000200008003700820F5400838F5C0087
:10774000030039001000200001003E00000020006E
:1077500009F0A7000000EA004F05BE004F04BE007C
:107760000000E00000000600881F78000304780095
:107770000300E00007003D0060001000E0801800FA
:1077800060011900E081190002003B0001F02D00AA
:10779000030037000400070008F0A70001F0A00074
:1077A0004F04780000000600889FBE008A9FBE003C
:1077B0000082700004027100048271002600320011
:1077C0000004BE000200BE006011B8006B0920007A
:1077D000950220000182CF000A0039000541B10066
:1077E0000082CF00070039000541B1000982CF00B7
:1077F000040039000541B1000882CF0001003900C2
:107800000541B10005425200120032000A003B005F
:1078100082817100610164008100D1000080D30089
:107820008984D3000884D3008B05E8000442E80073
:10783000F7FF3A00070037000804440089844C0031
:1078400000004800818048008B05E9000442E900FF
:10785000F9FF3A00BFFE07004F05BE004F04BE000F
:1078600000000600889FBE008A9FBE008C9FBE005D
:107870000404B8000506B8008904460060854E007F
:107880000606B8000A054600E0854E000706B80067
:107890008B054600040EB800890446000A854E0098
:1078A000E0854D00050EB8000A0546008B854E00A8
:1078B000060EB8008B0546000416B8000A054600FF
:1078C0008B854E000516B8008B054600041EB800D7
:1078D0008B0546000800BE000A01BE004F06BE0030
:1078E0004F05BE004F04BE00000006000000FA0075
:1078F000E88157004FB99700020007000080FA00A6
:10790000000006000C00FA00881F780001047800CF
:1079100082007800030178000002EB000800E0001C
:10792000010032000802E900E4BF9F008001EB0083
:10793000A3BF9F0090BF9F00B0BF9F00200C2000FE
:10794000C0BF9F006E805700030107000800E000E1
:10795000020032009FB897008048EB004F04780087
:107960000080FA0000000600889FBE008A9FBE00CB
:107970008C9FBE0081E62200427381000200E0007D
:107980000B003A00648140004273890092738900C1
:10799000A100980081738900214190000204A00099
:1079A000A2409800614190000204A000E2409800CB
:1079B000670440004244DE004244DD0084738100DD
:1079C000E1E72200E9E12300818454002D0020003A
:1079D000110009008D04D800800678000886E800B0
:1079E0000C0646008001EB00020037001300200067
:1079F0000B027800A44090000108A30002003200AE
:107A00000A003700120A780014017800A2409000A2
:107A10000108A300FBFF320088004200810F5100E3
:107A2000020039000800E00041003D0094057800A4
:107A30000B00A100848F5500EDFF3E00E18F510047
:107A4000EAFF3A008D0F540002003600890F5400FF
:107A5000130039006141B8006148B900B4FF2F003C
:107A6000050020000000520081805A00800F510064
:107A7000818F590002003500640544000900370079
:107A8000E0E722001AE22300000555000805450042
:107A9000110009000985D8008985B9000100370067
:107AA0000C0578000A00780050FC0700E10F400048
:107AB00005003A00640544000A0078004BFC07000A
:107AC000E10F40002C0032009173810080087800A3
:107AD00091738100E481400021419000830F5000A8
:107AE000020032000204A000010037000204A100DD
:107AF000A2409800640555000A0540000A08780075
:107B00009A73890081E62200010D7800927381004A
:107B1000A24090000104A00021419800A0409000E4
:107B20000104A100214098008001EB00B0FF370064
:107B300081738900810F510008003600110178001F
:107B400091019000A2738900B373890094087800B2
:107B50000041EB0081738100A24098008373810093
:107B6000030A7800A44090000104A000214298007C
:107B700064004200010037000000EB004F06BE0029
:107B80004F05BE004F04BE00000006000000E000EC
:107B9000080032006400500081738100810F5000A2
:107BA0000100310080738900A04090000104A10011
:107BB0002140980000000600889FBE008A9FBE00FA
:107BC0000004BE000900E00007003A000000EB00DE
:107BD0000800E0003600320008007800EBFF0700E4
:107BE0000000EB00320037000800E00003003A001C
:107BF000090078005CFF07002D0037006400540086
:107C00009005780068F897000008A3000200320091
:107C100008007800DDFF07000900780052FF070028
:107C2000800478000000EB000900E0002000320032
:107C3000888F54001B00320069BD9700090555006C
:107C400042D5DE0088855500C2DDDE000A017800DD
:107C50008B0F5500010036000B0178004211DD004A
:107C600088007800090078002B000700888F5400F6
:107C70000E0031004255DD000A854400880F550092
:107C80000A0036000804550042C4DE004244DD000C
:107C900008844400A0738100B1738100008CBE0091
:107CA0000200370008007800010037000900780062
:107CB0004F05BE004F04BE0000000600881F78007C
:107CC0000102B8006123B8000001EB00860F5200EA
:107CD000878F5A000D003A00808CB90008007800A8
:107CE00021FF07000001EB000000E0000700320068
:107CF00080007800020037008058EB000804E9009B
:107D00000800E000FCFF3A00000178000200780063
:107D10004F04780000000600800178000200370060
:107D2000B15978000201E9000200E000FCFF3A00CE
:107D300000000600D0019000028151004240A900DD
:107D40000300340010017800014978000208E800BF
:107D50000100780000000600F6874700889FBE00FB
:107D60008A9FBE008C9FBE008E1F780000057800A1
:107D7000A1B79F00020778008004EB009202370051
:107D8000AFB097008100E800A1B79F0051C2B300D7
:107D9000814F500003003A00AFB097000004EB00A1
:107DA00011003700BA0090000000FB000168A3003A
:107DB0000700320009017800800078000A0078008E
:107DC000DCFF07000000E00005003A007E023700FB
:107DD0008A00780088020700E10F40007A02320032
:107DE0008904E8007802370001007800314178000A
:107DF000D3C2B300834F51000C00320007003C0097
:107E0000EDC15100834F51000A003200EBC1410027
:107E1000834F51000D003A000800370003C3B30040
:107E2000834F510009003A00060037000830A000D7
:107E3000EDFF37000800A000EBFF37000810A0009E
:107E4000E9FF37000820A000E7FF37000818A3006B
:107E5000010032000800A1000838A3000100320030
:107E60000820A1008200FB000103B100E98F50004F
:107E70000C003E00000178008000EB00EA08B90029
:107E8000B200FB000103B1008080400002007800D6
:107E90009201FB000303B100E98F5100F7FF3600A8
:107EA000060037008000EB00A3C2B300834F5100EF
:107EB00002003A00CE0078000000E8008005EB00E8
:107EC000E2C2B300904F110008003A0008E0A000A1
:107ED00064415100D04F11000200320000017800CF
:107EE00006003700CE0578000000E80000017800A9
:107EF00008003700EA58B900808541000200780088
:107F0000B201FB000303B100E98F5100F9FF360015
:107F1000F6FF370032407800A2B79F00C3C6B30017
:107F2000834F5000250032000F003C0032C6B300E2
:107F3000824F50008800320004003C000004E00042
:107F4000260232006B4151000F00370042C6B300D9
:107F5000824F50001700320065414100824F5000AF
:107F600094003A001300370032C7B300824F50002C
:107F70001B00320007003C0064415100824F50005A
:107F8000100032000241E800824F500089003A00A0
:107F90000F00370052C7B300824F50008A003200F2
:107FA00063414100824F500082003A00E0DF9F00B1
:107FB00009003700E0DF9F00850037000840A0007F
:107FC000D4FF3700E0DF9F000860A000800037008A
:107FD000E0DF9F000850A0000870A0007C00370080
:107FE000E0DF9F004E007800000678000000E0000F
:107FF00001003A00CCD822000C0178000000EB0010
:10800000010037000000E800800141001304E00097
:10801000FCFF3A00800678000B00E000030032000D
:108020008D8F5500010031008B0678008005EB0034
:108030008D8F5000010036008D855000680464006B
:108040002A003A00110037003A0090000068A300AF
:108050000700320009017800010220000A007800C0
:1080600034FF07000000E00006003A000600370079
:108070008A00780000022000DF010700E10F4000C5
:10808000010032008904E8008B05E9000B00E000E4
:10809000EDFF3A008085EB00140037003A009000B5
:1080A0000068A300090032000C007800B000FB005B
:1080B00000067800090178000A0078001DFF07001B
:1080C0000000E00008003A00080037008C0078004B
:1080D0003100FB00010678008A007800C601070025
:1080E000E10F4000010032008904E8000D00780033
:1080F0008006E9000000E000E8FF3A000800E00028
:10810000B1013200110037003A0090000068A3006E
:108110000700320009017800010220000A007800FF
:1081200004FF07000000E00006003A0006003700E8
:108130008A00780000022000AF010700E10F400034
:10814000010032008904E8008B05E9000B00E00023
:10815000EDFF3A009C0137004E017800CF91DE0020
:10816000C81ADE004818DD004812DE000402700064
:10817000E4DF9F000848A300080032000404E00088
:1081800006003200E14F420004003200F4DF9F009D
:1081900082E79F002D00200002003700F2DF9F00E1
:1081A0001D002000E2FD2F000F0141000206E80043
:1081B00099FF3700E0DF9F00ECFD2F000F0646001F
:1081C0001D00200094FF3700E0DF9F00080CB30083
:1081D00008017800020CB200700064000200E000A8
:1081E0000F003A000000E00004003200640757006E
:1081F0001E0678009E069000020037004E067800AA
:10820000CFE6DE00E00F5600E08F5E000C003D0080
:108210003800B30060061600E0861E000800370034
:108220000000E00004003200640757001E067800DA
:108230009E069000020037004E0678008006EB0094
:108240000B00E00005003A008C8576000BF0A700DB
:108250008B05EA008B05E900CF5DDE008801780020
:10826000030CB200E3B79F0000042000808F510090
:108270002300320003003C000300E000080032004D
:108280002D003700000820006FB29700800F5200C9
:108290000D003200000C2000800F520026003A0032
:1082A00042D9220010C0B30064014100B20F560051
:1082B000A28F5E001F0039000040E800EA4F500026
:1082C000F9FF3A001B00370010C0B3000201200084
:1082D00003002000820F5600838F5E0015003900D6
:1082E000441ADD00CC11DE00830172004411DD0070
:1082F0000040E800E84F5000F6FF3A000D0037005C
:1083000010C0B3008200200003002000820F56003E
:10831000838F5E0007003900431ADD00CD11DE00B7
:10832000830172004311DD000040E800EB4F500074
:10833000F6FF3A00E0DF9F006FD997000200FB00D4
:108340008B0F500002003D00EBDF9F000300370061
:10835000808F550001003D00800578000100E0009D
:108360000300320063006400010032008100E90074
:1083700008E8A300050032008B8F50000200340093
:108380008B805000010037008000EB00EFD9970090
:108390000300FB000002EB00D4B79F00808F500069
:1083A0000200340000805000D0B79F000828A300CE
:1083B00040003200610164000818A3000F00320081
:1083C0003A0090000068A30006003200B1022000CD
:1083D0000200E000010032008180E800090178001D
:1083E0000D003700B00220000200E0000100320062
:1083F0000080E8008A0078000E0037000200E000EC
:10840000100032003A0090000068A300070032001C
:1084100009017800010220000A00780045FE0700EB
:108420000000E00006003A00060037008A007800ED
:1084300000022000F0000700E10F400001003200C0
:108440008904E8005FB097000000E0005A003200A5
:10845000BCB79F00CDB79F00800678003A0090001F
:108460000068A30007003200090178000103200022
:108470000A0078002FFE07000000E00006003A0026
:10848000060037008A00780000032000DA000700A9
:10849000E10F4000010032008904E8008D06E90088
:1084A000EEFF3A00DDB79F003FB69700CFB69700CA
:1084B00041003700DFB197000300E0001A003200EE
:1084C0000838A30018003A00BCB79F00CDB79F0042
:1084D000830678003A0090000068A300070032008D
:1084E00009017800010220000A00780011FE07004F
:1084F0000000E00006003A00060037008A0078001D
:1085000000022000BC000700E10F40000100320023
:108510008904E8008D06E900EEFF3A00DDB79F0010
:108520003FB69700CFB69700610164000818A3001A
:108530000F0032003A0090000068A30006003200ED
:10854000B10220000200E000010032008180E8005A
:10855000090178000D003700B00220000200E000A1
:10856000010032000080E8008A0078000E00370029
:108570000200E000100032003A0090000068A30002
:108580000700320009017800010220000A0078008B
:10859000E8FD07000000E00006003A000600370092
:1085A0008A0078000002200093000700E10F4000DD
:1085B000010032008904E8000B03E900E331B9004F
:1085C000B2B79F004233DD0040D9220000034300D0
:1085D0008E01780093B79F000807780006047800A2
:1085E0005D0037008B05E900000420006FB29700A2
:1085F000800F52003900320003003C000400E0000C
:10860000080032003F00370000082000EFB097005C
:10861000808F500021003200000C2000808F50001D
:1086200038003A000E48A30011003200180278000A
:10863000980290000401BE000C00BE00F4B79F0039
:1086400085BF9F00CAFB0700E0DF9F000000FB0022
:10865000CF80DE007FB297008FBA97000401BE0082
:10866000E90007000006560081865E00070037001B
:1086700018017800110009000286D800A20020002D
:10868000110009000280D800E1DF9F006FD9970038
:108690000243B000E2DF9F001A003700B0D722008B
:1086A0000E58A30001003200A0D6220041D92200BA
:1086B000810054000C01BE008100E900030033007A
:1086C0008301D1000281D300FBFF3700EF0061007E
:1086D0000100400010407800090037000C00BE0087
:1086E0003FB297000402E900030033008100D1008B
:1086F0000080D300FBFF3700674060000043B000FC
:10870000E0DF9F00BA0090006FD997000200FB00E5
:108710000168A3000700320009017800800078009A
:108720000A00780083FD07000000E00005003A0021
:10873000050037008A0078002F000700E10F400095
:10874000010032008904E8003FB297006302520042
:10875000B4B79F00640454000B00E000A1FF3A008E
:108760000E0478001FB797000838A30016003200E7
:108770005FB097000000E0001300340000047800B0
:108780003A0090000068A300070032000901780059
:10879000010220000A00780066FD07000000E000EA
:1087A00006003A00060037008A0078000002200028
:1087B00011000700E10F4000010032008904E800C9
:1087C0000804E900EEFF3A00AFB0970011407800CE
:1087D000E0DF9F000004E00069FD3A000900780036
:1087E0004F0778004F06BE004F05BE004F04BE0085
:1087F0006F01B10000000600889FBE0001047800F0
:10880000B80090008084EB000118A3003A00320009
:10881000180190000198A30002003A000200E00055
:1088200035003A000190A0003104980080047800DF
:10883000F90FB2000200E00002003A0028009000A8
:10884000000C7800EA8F540005003A000178A3007C
:1088500003003A0088007800D0002000E6FF0700FF
:1088600018009000D8009000810F50000B003200DB
:108870000000E8001004980018007800094878000B
:10888000000CE80011C0B30080E722000148780026
:10889000EA8F540018003A0005003700880078007D
:1088A00009407800170007008004780012003700A4
:1088B000380090000088A3000F00320018019000DB
:1088C000A80090004800900086F8070098009000EB
:1088D000810F500004003200380090000003B30004
:1088E000300498008084EB000000EB001004980036
:1088F00028009000000C7800090078004F04BE00AA
:10890000000006000200FA00889FBE00A0FF9F0042
:1089100001047800380090000068A30033003A009A
:10892000E200600005003A000003B3003004980044
:10893000110498000080EB002E003700D80490004E
:108940000900E00006003A0012002000E68057000F
:108950004800900063F807001904980023003700CE
:10896000A80090000100E00008003A00B1E72200F2
:1089700021049800010C7800210020005104980087
:10898000110498000030A0003004980018019000F5
:10899000A80090004800900052F8070028009000BE
:1089A0008080EB0011049800AFF897000148780030
:1089B000000CE8002FF89700EA4F50000B003A0037
:1089C000380090000088A3000800320018019000D1
:1089D000A80090004800900042F807000000EB005B
:1089E00010049800A8009000010C7800AFF89700E0
:1089F0000100FB004F04BE000080FA0000000600EA
:108A000000C0DA0000000600020AB900001BB9002D
:108A10000200B8008100420081004300000006000F
:108A20002F8F0000210000000EFF00002800000032
:108A30000E0100008800000000000000000000009F
:108A40000C0000000700000060FC00002000000097
:108A500001000000200000000F00000007000000DF
:108A6000000000002000000000000000E000000006
:108A700002000000320000000000000002000000C0
:108A800000000000000000000A0C000002000000CE
:108A9000000000000000000000400000DA000000BC
:108AA00000000000FE0000000003000020000000A5
:108AB00000000000E00000000200000032000000A2
:108AC000002000002000000090010000880000004D
:108AD0000000000006000000A10200008800000065
:108AE000800000007800000000000000EB000000A3
:108AF0001A00000037000000E28000004000000083
:108B000054A00000B400000091010000BA00000071
:108B1000E28000004000000054A00000B40000000B
:108B200091020000BA000000E28000004000000056
:108B300054A00000B400000000020000EB000000A0
:108B4000472B0000DE000000F5070000B200000027
:108B5000A601000088000000602C0000E100000079
:108B6000080000003A00000000490000EB0000008F
:108B700002010000E80000000200000039000000CF
:108B800034200000EC00000002F00000A000000013
:108B900083010000E9000000F9FF00003E00000032
:108BA000040000003700000061280000E100000020
:108BB000010000003200000000820000EB00000015
:108BC000040000000700000011010000BA000000CE
:108BD00002000000E0000000E3FF00003A00000097
:108BE000000000000600000004D00000A300000008
:108BF000E20F0000490000001C00000039000000E6
:108C0000810200007800000035490000BA00000031
:108C100002010000E800000002000000390000002E
:108C200034200000EC00000002F00000A000000072
:108C300083010000E90000000F0000003200000086
:108C400025490000BA00000002010000E800000011
:108C5000020000003900000034200000EC00000099
:108C600002F00000A000000083010000E900000005
:108C7000080000003200000004000000E0000000D6
:108C8000060000003200000015C90000BA00000014
:108C900002010000E80000000200000039000000AE
:108CA00034200000EC00000002F00000A0000000F2
:108CB00083010000E900000081800000E80000005E
:108CC00054A00000B400000003000000E000000019
:108CD000E2FF00003A000000000000000600000073
:108CE00091020000BA000000055900007800000061
:108CF00083010000E9000000F7FF000032000000DF
:108D0000C82A0000DE0000000559000078000000BD
:108D100083010000E9000000F3FF000032000000C2
:108D200004000000E0000000F1FF0000320000003D
:108D300011D90000BA000000EEFF0000370000006B
:108D400000400000DA00000000000000FE0000000B
:108D5000000200007800000080010000EB0000002D
:108D60000200000037000000315A000078000000C7
:108D700083010000E8000000828F00005100000025
:108D8000FCFF00003A0000000000000006000000A8
:108D900002020000000000007FD700000000000079
:108DA000BDDF000000000000DFF700000000000051
:108DB00000FD000000000000DFFD000000000000DA
:108DC000BDDF000000000000DFF700000000000031
:108DD0000000000000000000211000000000000062
:108DE000422000000000000063300000000000008E
:108DF0008440000000000000A550000000000000BA
:108E0000C660000000000000E770000000000000E5
:108E1000088100000000000029910000000000000F
:108E20004AA10000000000006BB10000000000003B
:108E30008CC1000000000000ADD100000000000067
:108E4000CEE1000000000000EFF100000000000093
:108E500000000000FA00000070BF00008000000069
:108E600000000000E00000000300000032000000ED
:108E7000040000000700000000000000EB000000FC
:108E800070BF00008800000000800000FA000000B1
:108E9000000000000600000010000000FA000000C2
:108EA0001CD00000BF000000204700009800000018
:108EB0001CD00000BF00000006F40000B700000056
:108EC00000000000EB00000020A00000880000006F
:108ED0002E4000009000000000800000FB00000019
:108EE00070070000980000007E0100009000000064
:108EF000E30F0000510000002100000032000000DC
:108F00007E00000090000000E30F00005000000011
:108F1000070000003C0000007E01000090000000FF
:108F2000E10F0000510000000B00000032000000C3
:108F30007E00000090000000E20F000050000000E2
:108F400011000000320000003A000000370000006D
:108F50007E01000090000000E40F000051000000BE
:108F60001B000000320000007E00000090000000A6
:108F7000E50F000050000000320000003200000049
:108F800033000000370000007140000021000000A5
:108F9000C02D00002800000090480000780000006C
:108FA000D02D0000280000001041000078000000D3
:108FB00092400000980000003000000020000000F7
:108FC00020A00000880000002A00000037000000F8
:108FD0005E05000007000000000F000078000000A0
:108FE0001E000000E0000000FEFF00003A0000004C
:108FF000100000002000000020A0000088000000F9
:109000002300000037000000D08000008000000036
:10901000E300000050000000D0010000210000002B
:10902000A601000007000000100000002000000062
:1090300020A00000880000001C0000003700000095
:10904000D101000021000000640000004700000082
:109050000300000009000000315800007800000003
:1090600040000000B100000041000000B10000001D
:10907000110200002100000068000000470000000D
:1090800003000000090000003158000078000000D3
:1090900040000000B100000041000000B1000000ED
:1090A0004E01000090000000DE0100009000000072
:1090B0002E00000090000000BE00000090000000A4
:1090C0009C020000070000006007000098000000FC
:1090D00071400000210000006C000000470000000B
:1090E000904800007800000010410000900000004F
:1090F00092400000980000003000000020000000B6
:1091000020A00000880000000200000037000000DE
:109110001000000020000000008000008800000017
:1091200000800000FA0000000000000006000000BF
:109130000A000000FA00000020070000980000006C
:109140003107000098000000130100003700000004
:109150003E0000009000000000000000E900000058
:109160003007000098000000D1800000800000005F
:10917000703E000020000000808F000050000000C2
:10918000020000003600000000000000EB000000BC
:10919000D0800000880000001080000080000000E7
:1091A00000000000E0000000960000003A0000000F
:1091B00060C00000B3000000004F00007800000015
:1091C0008F00000037000000502E00002800000033
:1091D00010410000780000001E800000FB0000002D
:1091E000660000005000000080800000E8000000E1
:1091F000A0010000210000000080000040000000ED
:109200001040000078000000804F00005100000076
:109210003B0000003A000000602E00002800000023
:1092200010410000780000001E800000FB000000DC
:10923000650000005000000080800000E800000091
:10924000A00100002100000000800000400000009C
:109250001040000078000000804F00005100000026
:10926000310000003A000000702E000028000000CD
:1092700010410000780000001E800000FB0000008C
:10928000640000005000000080800000E800000042
:10929000A00100002100000000800000400000004C
:1092A0001040000078000000804F000051000000D6
:1092B000270000003A000000802E00002800000077
:1092C00010410000780000001E800000FB0000003C
:1092D000630000005000000080800000E8000000F3
:1092E000A0010000210000000080000040000000FC
:1092F0001040000078000000804F00005100000086
:109300001D0000003A000000902E00002800000020
:1093100010410000780000001E800000FB000000EB
:1093200000800000E900000080800000E8000000EC
:10933000A0010000210000000080000040000000AB
:109340001040000078000000804F00005100000035
:10935000130000003A000000A02E000028000000CA
:1093600010410000780000001E800000FB0000009B
:1093700000000000E900000080800000E80000001C
:10938000A00100002100000000800000400000005B
:109390001040000078000000804F000051000000E5
:1093A000090000003A000000B02E00002800000074
:1093B00010410000780000001E800000FB0000004B
:1093C00080800000E8000000A001000021000000F3
:1093D0000080000040000000104000007800000005
:1093E000804F0000510000004500000032000000E6
:1093F000E02D00002800000010410000780000006F
:109400001E800000FB00000066000000500000000D
:1094100080800000E8000000A001000021000000A2
:1094200000800000400000001040000078000000B4
:10943000804F0000510000003F0000003A00000093
:10944000F02D00002800000010410000780000000E
:109450001E800000FB0000006500000050000000BE
:1094600080800000E8000000A00100002100000052
:109470000080000040000000104000007800000064
:10948000804F000051000000350000003A0000004D
:10949000002E0000280000001041000078000000AD
:1094A0001E800000FB00000064000000500000006F
:1094B00080800000E8000000A00100002100000002
:1094C0000080000040000000104000007800000014
:1094D000804F0000510000002B0000003A00000007
:1094E000102E00002800000010410000780000004D
:1094F0001E800000FB000000630000005000000020
:1095000080800000E8000000A001000021000000B1
:1095100000800000400000001040000078000000C3
:10952000804F000051000000210000003A000000C0
:10953000202E0000280000001041000078000000EC
:109540001E800000FB00000000800000E900000019
:1095500080800000E8000000A00100002100000061
:109560000080000040000000104000007800000073
:10957000804F000051000000170000003A0000007A
:10958000302E00002800000010410000780000008C
:109590001E800000FB00000000000000E900000049
:1095A00080800000E8000000A00100002100000011
:1095B0000080000040000000104000007800000023
:1095C000804F0000510000000D0000003A00000034
:1095D000402E00002800000010410000780000002C
:1095E0001E800000FB00000080800000E8000000FA
:1095F000A0010000210000000080000040000000E9
:109600001040000078000000804F00005100000072
:10961000040000003A000000E00200000700000023
:1096200000000000EB000000D08000008800000077
:109630007C000000370000001E4F0000E800000022
:109640009E800000FB000000D08000008000000031
:10965000808F0000500000006DFF00003900000006
:109660002E00000090000000104000007800000074
:1096700000800000FB000000400700009800000090
:109680004E00000090000000E40F000050000000B9
:1096900019000000320000004E00000090000000A1
:1096A000F00F0000500000004700000032000000F2
:1096B0004E00000090000000E10F0000500000008C
:1096C00001000000320000005500000037000000DB
:1096D000208000008000000000000000E00000008A
:1096E0000C00000032000000D2800000800000006A
:1096F0002E00000090000000904100007800000063
:1097000082800000E8000000A001000021000000AD
:1097100000800000400000000348000078000000C6
:1097200002000000E8000000D08000008800000077
:1097300000000000EB000000208000008800000016
:10974000510000003700000000000000EB000000A6
:10975000D0800000880000004E00000037000000AC
:10976000208000008000000000000000E0000000F9
:109770000C00000032000000D280000080000000D9
:109780002E000000900000009041000078000000D2
:1097900082800000E8000000A0010000210000001D
:1097A0000080000040000000034800007800000036
:1097B00002000000E8000000D080000088000000E7
:1097C00000000000EB000000208000008800000086
:1097D0003F00000037000000D08000008000000043
:1097E000E10F0000500000003C00000036000000C7
:1097F000D08000008000000000800000E900000030
:1098000080800000E8000000A001000021000000AE
:1098100000800000400000001040000078000000C0
:109820002047000098000000D08000008000000069
:1098300000000000E900000080800000E800000057
:10984000A001000021000000008000004000000096
:109850001040000078000000304700009800000031
:10986000D08000008000000000800000E9000000BF
:1098700061010000B8000000C001000021000000EC
:109880006801000007000000800000007800000070
:109890001E00000090000000808F000050000000BB
:1098A000250000003A000000D08000008000000089
:1098B000E20F00005000000022000000360000000F
:1098C000100000002000000070BF000088000000B1
:1098D0001000000020000000108000008800000040
:1098E0001D00000037000000208000008000000004
:1098F00000000000E00000000C000000320000004A
:10990000D2800000800000002E00000090000000C7
:10991000904100007800000082800000E800000014
:10992000A0010000210000000080000040000000B5
:10993000034800007800000002000000E80000007A
:10994000D08000008800000000000000EB00000054
:1099500020800000880000000E000000370000009A
:10996000100000002000000020800000880000009F
:109970000B00000037000000D280000080000000D3
:109980002E000000900000009041000078000000D0
:1099900082800000E8000000A0010000210000001B
:1099A0000080000040000000034800007800000034
:1099B00002000000E8000000D080000088000000E5
:1099C00000000000EB000000208000008800000084
:1099D0002E0000009000000000000000E8000000E1
:1099E00020070000980000003E00000090000000EA
:1099F00000000000E0000000030000003400000050
:109A000070BF00008000000000000000E0000000C7
:109A1000E7FE00003200000000800000FA000000B5
:109A2000000000000600000008000000FA0000002E
:109A3000300700009800000000000000EB0000006C
:109A4000100700009800000020A000008000000027
:109A500000000000E00000005C0000003200000098
:109A600020A000008000000061010000B80000009C
:109A700060400000210000002901000007000000F4
:109A8000200700009800000022A0000080000000D5
:109A9000CE4100009000000082800000E80000003D
:109AA0004040000021000000008000004000000055
:109AB000034800007800000002000000E8000000F9
:109AC00020A000008800000022A00000800000000C
:109AD000DE4100009000000082800000E8000000ED
:109AE0004040000021000000008000004000000015
:109AF000034800007800000002000000E8000000B9
:109B000020A00000880000001E000000900000005F
:109B100080000000780000003E000000900000007F
:109B2000808000004000000010C00000B300000072
:109B300080480000780000001E0000009000000037
:109B400000000000E800000010070000980000007E
:109B500000400000EB000000004F00007800000013
:109B60002C000000370000001E800000FB000000F9
:109B700080800000E800000040400000210000005C
:109B8000008000004000000010400000780000004D
:109B9000E44F0000500000000E0000003200000002
:109BA0001E800000FB00000080800000E800000034
:109BB0004040000021000000008000004000000044
:109BC0001040000078000000E14F0000500000004D
:109BD00007000000320000001E800000FB000000B3
:109BE00080800000E80000004040000021000000EC
:109BF00000800000400000001040000078000000DD
:109C0000F04F000050000000090000003A00000082
:109C10001E0000009000000080000000780000009E
:109C20003E00000090000000808000004000000026
:109C300000C10000B3000000804800007800000070
:109C40001E0000009000000000000000E80000007E
:109C500010070000980000001E00000090000000A7
:109C600080000000780000003E000000900000002E
:109C700000810000400000001E800000FB0000008A
:109C800080800000E800000040400000210000004B
:109C9000008000004000000010400000780000003C
:109CA00000490000780000001E0000009000000045
:109CB00000000000E800000010070000980000000D
:109CC0001E4F0000E80000009E800000FB00000026
:109CD00020A0000080000000808F000050000000E5
:109CE000D0FF0000390000001E00000090000000BE
:109CF00080000000780000003E000000900000009E
:109D0000808000004000000040C00000B300000060
:109D100080480000780000001E0000009000000055
:109D200000000000E800000010070000980000009C
:109D300000000000EB00000020A0000088000000F0
:109D40001E0000009000000000800000FA000000EB
:109D5000000000000600000018000000FA000000EB
:109D6000100F000098000000210F00009800000074
:109D700000400000EB000000404F00009800000091
:109D800060000000B8000000008F0000BE0000006E
:109D9000C1000000370000001E0000007800000035
:109DA00080000000780000001E0800009000000005
:109DB0000100000040000000100F000098000000AB
:109DC0001E08000090000000104000007800000015
:109DD00006F00000B70000001E0800009000000020
:109DE0006300000040000000104000007800000008
:109DF0000CF00000B70000001E08000090000000FA
:109E00006400000040000000708000008800000036
:109E100006D00000BF00000000800000FB00000032
:109E20006500000040000000CF800000DE00000060
:109E3000008F0000BE0000009E00000078000000BF
:109E40002E080000900000000100000050000000FB
:109E5000200F00009800000000400000EB00000010
:109E6000404F00009800000000000000EB000000E0
:109E700050070000980000000A00000037000000B2
:109E8000DE000000900000001E08000090000000AE
:109E900000800000400000009040000078000000BA
:109EA0004E4800009000000001400000400000000B
:109EB000404F0000980000005E000000900000008D
:109EC00000000000E80000005007000098000000BB
:109ED00006D00000BF00000000800000FB00000072
:109EE00065000000400000008000000078000000D5
:109EF0005E00000090000000808F00005000000015
:109F0000EFFF00003E0000004E48000090000000FF
:109F100000040000E0000000900000003A00000093
:109F20000CD00000BF00000000800000FB0000001B
:109F3000300F0000980000003E0800009000000074
:109F4000E20F000050000000660000003200000038
:109F50003E08000090000000E40F000050000000E8
:109F600072000000320000003E0800009000000077
:109F700000000000E00000000100000032000000CE
:109F80007D0000003700000000400000EB000000F2
:109F90000BF00000B700000000400000EB000000E4
:109FA0000AF00000B70000001E080000900000004A
:109FB00000000000E80000001040000078000000F1
:109FC00009F00000B70000001E080000900000002B
:109FD00000800000E8000000104000007800000051
:109FE00008F00000B7000000428000008000000080
:109FF0005380000080000000B0800000800000005E
:10A00000C18000008000000002010000400000004C
:10A010008381000048000000908000008000000064
:10A02000A18000008000000002000000400000004D
:10A03000838000004800000040800000880000008D
:10A04000518000008800000042000000370000003E
:10A05000408000008000000051800000800000006F
:10A0600081000000D100000000800000D30000004B
:10A070003007000098000000410700009800000031
:10A080003E01000090000000CE01000090000000A2
:10A09000F07F00002200000001000000200000000E
:10A0A000800F000051000000818F00005900000067
:10A0B00023000000360000003E0100009000000078
:10A0C000CE01000090000000E07F00002A000000A8
:10A0D0002100000020000000800F0000510000005F
:10A0E000818F0000590000001C0000003E000000AD
:10A0F00006D00000BF000000E34F00005000000049
:10A100000A0000003E00000000800000EB0000009C
:10A1100080800000EB000000700700009800000045
:10A12000010F00009800000006D00000BF000000F2
:10A1300000810000FB000000718000008000000032
:10A140006E0000004700000080FD000007000000D6
:10A150000600000037000000718000008000000051
:10A160006E0000004700000003000000090000002E
:10A17000315800007800000040000000B1000000ED
:10A1800041000000B10000007E01000090000000CE
:10A190008E090000900000003E00000090000000CA
:10A1A000CE000000900000009F03000007000000A8
:10A1B00020070000980000002E0000009000000022
:10A1C00000000000E0000000FDFF00003A00000079
:10A1D00040800000800000005180000080000000EE
:10A1E0006400000040000000E08000004800000023
:10A1F00040800000880000005180000088000000BE
:10A20000708000008000000064000000400000003A
:10A21000708000008800000006D00000BF00000031
:10A22000E34F000050000000040000003600000072
:10A2300006D00000BF000000644000005000000095
:10A2400006F00000B7000000020000003700000028
:10A2500000400000EB00000006F00000B700000026
:10A2600006D00000BF00000000040000E000000075
:10A27000BBFF00003A00000024000000370000008F
:10A2800000400000EB00000015F00000B7000000E7
:10A290007080000080000000104000007800000086
:10A2A00014F00000B7000000708000008000000083
:10A2B00000000000E80000001040000078000000EE
:10A2C00013F00000B700000000400000EB000000A9
:10A2D00012F00000B700000060000000B8000000AD
:10A2E000B080000088000000C180000088000000ED
:10A2F00015000000370000007080000080000000A2
:10A30000104000007800000019F00000B7000000C5
:10A31000708000008000000000000000E8000000E5
:10A32000104000007800000018F00000B7000000A6
:10A3300000400000EB00000017F00000B700000034
:10A3400000400000EB00000016F00000B700000025
:10A3500060000000B800000090800000880000004D
:10A36000A180000088000000060000003700000007
:10A3700060000000B800000090800000880000002D
:10A38000A18000008800000060000000B80000000C
:10A39000B080000088000000C1800000880000003C
:10A3A0002E08000090000000E40F000050000000A4
:10A3B0003CFF00003E00000000800000FA000000AA
:10A3C00000000000060000000A000000FA00000083
:10A3D00020070000980000003207000098000000ED
:10A3E000430700009800000000000000EB000000A0
:10A3F000000F00007800000025000000370000007A
:10A400001E00000078000000CC000000DE0000000C
:10A410002E000000900000001040000078000000B6
:10A4200000800000FB00000044000000DE0000008F
:10A4300000800000FB0000000080000068000000B9
:10A4400010070000980000001E00000090000000AF
:10A450006F0000006000000080000000400000006D
:10A46000C02E000028000000008000004000000016
:10A4700090000000780000001E000000780000003E
:10A4800044000000DD000000008F000068000000B4
:10A490001E00000078000000CC000000DE0000007C
:10A4A0002E00000090000000104000007800000026
:10A4B00000800000FB000000008000006800000039
:10A4C00010070000980000001E000000900000002F
:10A4D0006F000000600000008000000040000000ED
:10A4E000C02E000028000000008000004000000096
:10A4F00090000000780000001E00000078000000BE
:10A5000044000000DD000000008F00006800000033
:10A510002E0000009000000000000000E800000095
:10A5200020070000980000003E000000900000009E
:10A53000CE0000009000000061000000500000000C
:10A54000E080000058000000300700009800000084
:10A5500041070000980000003E010000900000004C
:10A56000CE0100009000000000800000EB00000021
:10A5700080800000EB000000800F00005100000010
:10A58000818F000059000000CEFF00003A0000005B
:10A590001E0000007800000000800000FA000000AB
:10A5A000000000000600000016000000FA00000095
:10A5B0007007000098000000010F000098000000E4
:10A5C000120F000098000000230F00009800000008
:10A5D00000000000EB0000001007000098000000E1
:10A5E0007E000000900000008E0800009000000037
:10A5F000500700009800000061070000980000006C
:10A60000620000003700000000600000FE00000053
:10A610005E01000090000000EE01000090000000CC
:10A62000F01F0000200000000100000020000000DA
:10A63000800F000051000000818F000059000000D1
:10A640000C000000360000005E01000090000000D9
:10A65000EE01000090000000E07F000022000000FA
:10A660000100000020000000800F000051000000E9
:10A67000818F000059000000050000003E0000002E
:10A68000F00F0000200000004007000098000000CC
:10A6900000800000EB000000300700009800000080
:10A6A0000E000000370000004E480000900000003F
:10A6B00080800000FB00000040050000200000003A
:10A6C00001080000780000005E000000900000001B
:10A6D00010800000BA000000400700009800000051
:10A6E000000000000000000000000000000000006A
:10A6F0005E0000009000000010000000BA000000A2
:10A70000300700009800000000000000000000007A
:10A71000000000000000000000000000EB0000004E
:10A72000000F000078000000340000003700000037
:10A730001E00000090000000CC000000DE000000C1
:10A740001E000000780000000E0000004000000025
:10A75000660000004000000010400000780000008B
:10A7600000800000FB00000044000000DE0000004C
:10A7700000800000FB000000008000006800000076
:10A7800020070000980000002E000000900000004C
:10A790006F0000006000000080000000400000002A
:10A7A000C02E0000280000000080000040000000D3
:10A7B00090000000780000001E00000090000000E3
:10A7C00044000000DD000000008000006800000080
:10A7D00010070000980000001E000000900000001C
:10A7E000CC000000DE0000001E0000007800000029
:10A7F0000E00000040000000660000004000000065
:10A80000104000007800000000800000FB00000005
:10A810000080000068000000200700009800000091
:10A820002E000000900000006F000000600000009B
:10A830008000000040000000C02E00002800000042
:10A840000080000040000000900000007800000040
:10A850001E0000009000000044000000DD00000029
:10A860000080000068000000100700009800000051
:10A870001E0F0000E80000001E080000900000000D
:10A88000AE080000900000006100000050000000D1
:10A89000E080000058000000100F00009800000049
:10A8A000210F0000980000001E080000900000002A
:10A8B000AE08000090000000E00F00005000000013
:10A8C000E08F00005800000003000000320000008C
:10A8D00031000000200000009E8F000010000000EA
:10A8E000C9FF0000360000005E000000900000007C
:10A8F000EE00000090000000620000004000000038
:10A90000E0800000480000005007000098000000B0
:10A9100061070000980000001E0800009000000081
:10A92000AE08000090000000E00F000050000000A2
:10A93000E08F00005800000099FF00003A0000007E
:10A940001E0000009000000000800000FA000000DF
:10A95000000000000600000000000000FA000000F7
:10A96000008000008000000000800000FA0000006D
:10A97000000000000600000000000000FA000000D7
:10A9800060CE0000A900000011EE0000A800000049
:10A9900020740000200000009000000078000000FB
:10A9A000F00B0000200000000081000060000000AB
:10A9B000610400002000000070050000200000007D
:10A9C000237400002000000081490000780000008E
:10A9D00080490000780000008249000078000000F3
:10A9E000406C000020000000904000007800000053
:10A9F00000C80000B300000080C00000600000003C
:10AA0000406C0000200000000148000078000000B9
:10AA1000406C000020000000904000007800000022
:10AA200000C80000B300000000C00000600000008B
:10AA300071C70000B300000001400000700000007A
:10AA4000416C0000200000008048000078000000F9
:10AA50001069000020000000904000007800000015
:10AA600000CC0000B300000000C000006000000047
:10AA700000040000A0000000116900002000000098
:10AA800080480000780000002074000020000000D2
:10AA9000900000007800000000040000200000008A
:10AAA0000081000070000000610400002000000030
:10AAB000700500002000000023740000200000004A
:10AAC0008149000078000000804900007800000003
:10AAD0008249000078000000F10100002000000021
:10AAE0008022000020000000010800007800000023
:10AAF00080000000EB0000000022000020000000A9
:10AB0000010800007800000021E20000A800000019
:10AB100020020000A900000080000000EB000000FF
:10AB20002022000020000000010800007800000042
:10AB300023420000A800000022220000A90000001B
:10AB400000000000EB00000080C70000880000004B
:10AB500010AE0000A900000010CE0000A800000008
:10AB60002074000020000000900000007800000029
:10AB7000F00B0000200000000081000060000000D9
:10AB800061040000200000007005000020000000AB
:10AB900023740000200000008149000078000000BC
:10ABA0008049000078000000824900007800000021
:10ABB000606C000020000000904000007800000061
:10ABC00000C80000B300000080C00000600000006A
:10ABD000606C0000200000000148000078000000C8
:10ABE000606C000020000000904000007800000031
:10ABF00000C80000B300000000C0000060000000BA
:10AC000061C20000B30000000140000070000000BD
:10AC1000616C000020000000804800007800000007
:10AC20003068000020000000904000007800000024
:10AC300000CC0000B300000000C000006000000075
:10AC400030400000B3000000316800002000000028
:10AC50008048000078000000207400002000000000
:10AC600090000000780000000004000020000000B8
:10AC7000008100007000000061040000200000005E
:10AC80007005000020000000237400002000000078
:10AC90008149000078000000804900007800000031
:10ACA0008249000078000000F1010000200000004F
:10ACB0008023000020000000010800007800000050
:10ACC00080000000EB0000000023000020000000D6
:10ACD000010800007800000031E20000A800000038
:10ACE00030020000A900000080000000EB0000001E
:10ACF0002023000020000000010800007800000070
:10AD000033420000A800000032220000A900000029
:10AD100000800000FA0000000000000006000000B3
:10AD200000000000FA00000080C700008000000062
:10AD300000000000E00000000A00000032000000F7
:10AD400020820000A900000023C20000A90000002A
:10AD500000000000EB00000080C700008800000039
:10AD60006AEE0000A80000005A2E0000A8000000B3
:10AD70005C2E0000A90000001B6E0000A90000006E
:10AD80001D6E0000A8000000090000003700000050
:10AD900020820000A800000023C20000A8000000DC
:10ADA000100000002000000080C7000088000000A4
:10ADB0006AEE0000A90000005A2E0000A900000061
:10ADC0005C2E0000A80000001B6E0000A800000020
:10ADD0001D6E0000A900000000800000FA000000C5
:10ADE000000000000600000000000000FA00000063
:10ADF00021E20000A90000002074000020000000F3
