:020000040000fa
:1000080004300000083000000c3000001030000000
:1000180014300000003000001830000000300000ec
:100028001c30000020300000243000002830000080
:100038002c30000000300000303000003430000068
:10004800383000003c3000004030000044300000f0
:10005800483000004c3000005030000054300000a0
:10006800583000005c300000603000006430000050
:10007800683000006c300000003000007030000074
:1000880074300000783000007c30000080300000c0
:1000980084300000883000008c3000009030000070
:1000a80000300000003000000030000094300000f4
:1000b800983000009c300000a030000000300000a4
:1000c800a4300000a830000000300000ac30000070
:1000d800b0300000b4300000b8300000bc30000080
:1000e800c0300000c4300000c8300000cc30000030
:1000f800d030000000300000d43000000030000094
:10010800d8300000dc300000e0300000e4300000af
:10011800e8300000ec300000f0300000f43000005f
:10012800f8300000fc300000003000000031000012
:1001380004310000083100000c31000010310000cb
:1001480014310000183100001c310000203100007b
:1001580024310000283100002c310000303100002b
:100168000030000034310000383100003c3100001c
:100178004031000044310000483100004c3100009b
:100188005031000054310000583100005c3100004b
:100198006031000064310000683100006c310000fb
:1001a8007031000074310000783100007c310000ab
:1001b8008031000084310000883100008c3100005b
:1001c8009031000094310000983100009c3100000b
:1001d800a0310000a4310000003000000030000011
:1001e8000030000000300000a8310000ac310000f1
:1001f800b0310000b4310000b8310000bc3100005b
:10020800c0310000c4310000c8310000cc3100000a
:10021800d0310000d4310000d8310000dc310000ba
:10022800e031000000300000003000000030000025
:1002380000300000003000000030000000300000f6
:1002480000300000003000000030000000300000e6
:100258000030000000300000e4310000e831000008
:10026800ec310000003000000030000000300000d9
:1002780000300000f0310000f431000000300000d0
:10028800f8310000fc3100000030000000300000b0
:100298000030000000300000003000000030000096
:1002a8000030000000300000003000000030000086
:1002b8000030000000300000003000000030000076
:1002c8000030000000320000043200000832000054
:1002d8000c32000010320000143200001832000006
:1002e8001c320000203200002432000028320000b6
:1002f8002c320000303200003432000000300000a0
:100308000030000000300000003000000030000025
:1003180000300000383200003c320000403200005b
:100328004432000048320000003000000030000075
:1003380000300000003000000030000000300000f5
:1003480000300000003000000030000000300000e5
:1003580000300000003000000030000000300000d5
:1003680000300000003000000030000000300000c5
:1003780000300000003000000030000000300000b5
:1003880000300000003000000030000000300000a5
:100398000030000000300000003000000030000095
:1003a8000030000000300000003000000030000085
:1003b8000030000000300000003000000030000075
:1003c8000030000000300000003000000030000065
:1003d8000030000000300000003000000030000055
:1003e8000030000000300000003000000030000045
:0803f80000300000003000009d
:020000040000fa
:105000000202000018010000103200005369000085
:105010006d7000006c650000784d00006f7400003a
:10502000696f00006e530000453000003230000010
:1050300041000000534500003032000030410000c4
:105040002d320000334d00004d4e00004e4e00004a
:105050004e58000058000000000000000000000052
:105060000000000000000000000000000000000040
:105070000000000000000000000000000000000030
:105080000000000000000000000000000000000020
:105090000000000000000000000000000000000010
:1050a00000000000000000000000000001000000ff
:1050b00000000000840100000780000000000000e4
:1050c000000000000000000000000000602600005a
:1050d0003232000000000000000000000400000068
:1050e00000000000ff000000881900000000000020
:1050f00000000000000000000000000000000000b0
:10510000000000000000000000000000000000009f
:10511000000000000000000000000000000000008f
:10512000400000000000000000000000000000003f
:10513000000000000000000000000000fa00000075
:10514000fa00000000000000000000000000000065
:10515000000000000000000000000000000000004f
:10516000000000000000000000000000000000003f
:10517000000000000500000005000000a400000081
:10518000060100004801000083000000e803000061
:10519000e8030000e8030000e80300000500000049
:1051a00000000000000000000000000000000000ff
:1051b0004006000000000000000000005553000001
:1051c00000000000f4010000f401000000000000f5
:1051d00000000000000000000000000000000000cf
:1051e00010040000000000000000000000000000ab
:1051f00000000000000000000000000000000000af
:10520000000000000000000000000000000000009e
:10521000010000000100000000000000010000008b
:1052200000800000ffff0000ff7f00000000000082
:10523000040000000000000000000000000000006a
:10524000000000000010000000000000000000004e
:1052500000000000000000000000000064000000ea
:10526000e8030000640000001500000000000000da
:10527000000000000000000000000000000000002e
:10528000000000000000000000100000000000000e
:105290000020000000000000581b0000000000007b
:1052a00070170000000000008813000000000000dc
:1052b00000000000000000000000000000000000ee
:1052c00000000000000000000000000000000000de
:1052d00000000000000000000000000000000000ce
:1052e00000000000000000000000000000000000be
:1052f00000000000000000000000000000000000ae
:10530000e8030000e8030000e8030000e8030000f1
:10531000e8030000e8030000e803000000000000cc
:10532000000000000000000000000000000000007d
:10533000000000000000000000000000000000006d
:10534000000000000000000000000000000000005d
:10535000000000000000000000000000000000004d
:10557000000000000000000001000000c800000062
:10558000000000002d000000650000002a0000005f
:105590002b000000010000000000000000000000df
:1055a00000000000000000000000000000000000fb
:1055b00002000000000000000000000000000000e9
:1055c00000000000000000000000000003000000d8
:1055d00000000000000000000000000000000000cb
:1055e00000000000000000000400000000000000b7
:1055f00000000000000000000000000000000000ab
:105600000000000005000000000000000000000095
:10561000000000000000000000000000000000008a
:105620000600000000000000000000000000000074
:105630000000000000000000000000000700000063
:10564000000000000000000000000000000000005a
:105650000000000000000000080000000000000042
:10566000000000000000000000000000000000003a
:105670000000000001000000000000000000000029
:105680000000000000000000000000000200000018
:10569000000000000000000000000000000000000a
:1056a00000000000030000000000000000000000f7
:1056b00000000000000000000000000004000000e6
:1056c00000000000000000000000000000000000da
:1056d00000000000050000000000000000000000c5
:1056e00000000000000000000000000006000000b4
:1056f00000000000000000000000000000000000aa
:105700000000000007000000000000000000000092
:105710000000000000000000000000000800000081
:105720000000000000000000000000000000000079
:105730000000000000000000000000000000000069
:105740000000000000000000000000000000000059
:105750000000000000000000000000000000000049
:105760000000000000000000000000000000000039
:105770000000000000000000000000000000000029
:105780000000000000000000000000000000000019
:105790000000000000000000000000000000000009
:1057a00000000000000000000000000000000000f9
:1057b00000000000000000000000000000000000e9
:020000040000fa
:08600000403d04000000000017
:020000040000fa
:08600800623c040000000000ee
:020000040000fa
:08601000983c040000000000b0
:020000040000fa
:0860180000300400000000004c
:020000040000fa
:08602000d43c04000000000064
:020000040000fa
:086028000a3d04000000000025
:020000040000fa
:08603000003004000000000034
:020000040000fa
:0860380000300400000000002c
:020000040000fa
:08604000003004000000000024
:020000040000fa
:0860480000300400000000001c
:020000040000fa
:08605000003004000000000014
:020000040000fa
:0860580000300400000000000c
:020000040000fa
:08606000003004000000000004
:020000040000fa
:086068000030040000000000fc
:020000040000fa
:086070000030040000000000f4
:020000040000fa
:086078000030040000000000ec
:020000040000fa
:086080000030040000000000e4
:020000040000fa
:08608800403604000000000096
:020000040000fa
:086090000030040000000000d4
:020000040000fa
:086098000030040000000000cc
:020000040000fa
:0860a0000030040000000000c4
:020000040000fa
:0860a800263b0400000000008b
:020000040000fa
:0860b0000030040000000000b4
:020000040000fa
:0860b8000030040000000000ac
:020000040000fa
:0860c0000030040000000000a4
:020000040000fa
:0860c80000300400000000009c
:020000040000fa
:0860d0001a3c0400000000006e
:020000040000fa
:0860d80000300400000000008c
:020000040000fa
:0860e000003004000000000084
:020000040000fa
:0860e80000300400000000007c
:020000040000fa
:0860f00050350400000000001f
:020000040000fa
:0860f800103504000000000057
:020000040000fa
:086100000e370400000000004e
:020000040000fa
:0861080000300400000000005b
:020000040000fa
:08611000003004000000000053
:020000040000fa
:0861180000300400000000004b
:020000040000fa
:086120008c35040000000000b2
:020000040000fa
:0861280000300400000000003b
:020000040000fa
:08613000003004000000000033
:020000040000fa
:0861380000300400000000002b
:020000040000fa
:08614000f23904000000000028
:020000040000fa
:0861480000300400000000001b
:020000040000fa
:08615000003004000000000013
:020000040000fa
:08615800d6390400000000002c
:020000040000fa
:08616000003004000000000003
:020000040000fa
:086168000030040000000000fb
:020000040000fa
:08617000e43904000000000006
:020000040000fa
:086178000030040000000000eb
:020000040000fa
:086180000030040000000000e3
:020000040000fa
:086188005c3604000000000079
:020000040000fa
:086190002a37040000000000a2
:020000040000fa
:086198000030040000000000cb
:020000040000fa
:0861a000b83504000000000006
:020000040000fa
:0861a8000030040000000000bb
:020000040000fa
:0861b0000030040000000000b3
:020000040000fa
:0861b8000030040000000000ab
:020000040000fa
:0861c0000030040000000000a3
:020000040000fa
:0861c80000300400000000009b
:020000040000fa
:0861d000003004000000000093
:020000040000fa
:0861d80000300400000000008b
:020000040000fa
:0861e000003004000000000083
:020000040000fa
:0861e80000300400000000007b
:020000040000fa
:0861f000003004000000000073
:020000040000fa
:0861f80000300400000000006b
:020000040000fa
:086200008237040000000000d9
:020000040000fa
:08620800c4370400000000008f
:020000040000fa
:08621000003004000000000052
:020000040000fa
:0862180000300400000000004a
:020000040000fa
:08622000003004000000000042
:020000040000fa
:0862280000300400000000003a
:020000040000fa
:08623000003004000000000032
:020000040000fa
:0862380000300400000000002a
:020000040000fa
:08624000003004000000000022
:020000040000fa
:0862480000300400000000001a
:020000040000fa
:08625000003004000000000012
:020000040000fa
:0862580000300400000000000a
:020000040000fa
:08626000003004000000000002
:020000040000fa
:086268000030040000000000fa
:020000040000fa
:086270000030040000000000f2
:020000040000fa
:086278000030040000000000ea
:020000040000fa
:086280000030040000000000e2
:020000040000fa
:086288000030040000000000da
:020000040000fa
:086290000030040000000000d2
:020000040000fa
:086298000030040000000000ca
:020000040000fa
:0862a0000030040000000000c2
:020000040000fa
:0862a8000030040000000000ba
:020000040000fa
:0862b0000030040000000000b2
:020000040000fa
:0862b8000030040000000000aa
:020000040000fa
:0862c0000030040000000000a2
:020000040000fa
:0862c80000300400000000009a
:020000040000fa
:0862d000003004000000000092
:020000040000fa
:0862d80000300400000000008a
:020000040000fa
:0862e000003004000000000082
:020000040000fa
:0862e80000300400000000007a
:020000040000fa
:0862f000003004000000000072
:020000040000fa
:0862f80000300400000000006a
:020000040000fa
:08630000003004000000000061
:020000040000fa
:08630800003004000000000059
:020000040000fa
:08631000003004000000000051
:020000040000fa
:08631800003004000000000049
:020000040000fa
:08632000003004000000000041
:020000040000fa
:08632800003004000000000039
:020000040000fa
:08633000003004000000000031
:020000040000fa
:08633800003004000000000029
:020000040000fa
:08634000003004000000000021
:020000040000fa
:08634800003004000000000019
:020000040000fa
:08635000003004000000000011
:020000040000fa
:08635800003004000000000009
:020000040000fa
:08636000003004000000000001
:020000040000fa
:086368000030040000000000f9
:020000040000fa
:086370000030040000000000f1
:020000040000fa
:086378000030040000000000e9
:020000040000fa
:086380000030040000000000e1
:020000040000fa
:086388000030040000000000d9
:020000040000fa
:086390000030040000000000d1
:020000040000fa
:0863980026380400000000009b
:020000040000fa
:0863a0000030040000000000c1
:020000040000fa
:0863a8000030040000000000b9
:020000040000fa
:0863b0000030040000000000b1
:020000040000fa
:0863b8000030040000000000a9
:020000040000fa
:0863c0000030040000000000a1
:020000040000fa
:0863c800003004000000000099
:020000040000fa
:0863d000003004000000000091
:020000040000fa
:0863d800003004000000000089
:020000040000fa
:0863e000003004000000000081
:020000040000fa
:0863e800063b04000000000068
:020000040000fa
:0863f000c236040000000000a9
:020000040000fa
:0863f800d03504000000000094
:020000040000fa
:08640000003004000000000060
:020000040000fa
:08640800003004000000000058
:020000040000fa
:08641000003004000000000050
:020000040000fa
:08641800003004000000000048
:020000040000fa
:08642000003004000000000040
:020000040000fa
:08642800003004000000000038
:020000040000fa
:08643000003004000000000030
:020000040000fa
:08643800003004000000000028
:020000040000fa
:08644000003004000000000020
:020000040000fa
:08644800003004000000000018
:020000040000fa
:08645000003004000000000010
:020000040000fa
:08645800003004000000000008
:020000040000fa
:08646000003004000000000000
:020000040000fa
:086468000030040000000000f8
:020000040000fa
:08647000be360400000000002c
:020000040000fa
:086478000030040000000000e8
:020000040000fa
:086480000030040000000000e0
:020000040000fa
:086488000030040000000000d8
:020000040000fa
:086490000030040000000000d0
:020000040000fa
:1064980000000000000000000000000000000000f4
:1064a80000000000000000000000000000000000e4
:1064b80000000000000000000000000000000000d4
:1064c80000000000000000000000000000000000c4
:0466e80000000000ae
:020000040000fa
:1066ec0020028000809fbe000723210000082000ac
:1066fc00b70078000101b8008381410005b0230088
:10670c000200e00008003a0005824100941b78006a
:10671c000344b00005824100940b78004f00be008a
:10672c002002880000000600058241001403780056
:10673c0083c1e80005824100140013000090b800ea
:10674c00869b4000e343b000058241000582410076
:10675c001403780083c1e800058241001400130083
:10676c000090b800868b40004f00be0020028800cd
:10677c00000006001108980000000600f0039000cd
:10678c00800a9000058253005080ca00c002780035
:10679c0045018800a00290001301c0007c00c800d5
:1067ac000000cb000600cc00d00090000130e100ce
:1067bc0004003c00e00090000130e10001003400d6
:1067cc008600780011089800b00290001301c000f8
:1067dc0001035300c00290001241c4000000cb0022
:1067ec005000cc0015018000052078000000060048
:020000040000fa
:0467fc00ffff370064
:020000040000fa
:106800001634040000000000000000000200000038
:106810000000000002000000020000000400000070
:0c6820000000000000000000000000006c
:020000040000fa
:10682c004f2821004e2722000e0188000000000096
:10683c00000020000000e0000200320000012000f7
:10684c002002880014000700da0407000000e000b2
:10685c0003003a00c05b2e0001002000020037004c
:10686c000000200001002000810f700001003200a8
:10687c000f000700000020000000e00002003200c2
:10688c000000020000000000eae20200000000002c
:10689c000040da000000fe00a0c420000000e00070
:1068ac000200320000202000900188000000060049
:1068bc00a1028800800478000000eb001f00370064
:1068cc00e284440054a0b4009905ba00e284440068
:1068dc0054a0b4009906ba00e284440054a0b40059
:1068ec000006eb00476fde00fd07b200ae0188002a
:1068fc00636ce10003003a000ad801000000eb00d1
:10690c000e003700606ce10008003a00004deb000f
:10691c000a05e800020039003420ec000af0a0005f
:10692c008b05e900f9ff3e00040037006168e100c7
:10693c00010032000086eb000b00070019c7ba00fb
:10694c001905ba000e04e00003003a000a00e0004a
:10695c00dbff3a0000000600fe07b200ae02880022
:10696c008a047800f5ff37000cd0a300e20f4d002d
:10697c001c003b0089027800354dba000a05e8007e
:10698c00020039003420ec000af0a0008b05e9006d
:10699c000f003200254dba000a05e800020039004c
:1069ac003420ec000af0a0008b05e900080032004e
:1069bc000c00e0000600320015cdba000a05e80014
:1069cc00020039003420ec000af0a0008b05e9002d
:1069dc008984e80054a0b4000b00e000e2ff3a0008
:1069ec00000006009902ba00055d78008b05e900ed
:1069fc00f7ff3200c82ade00055d78008b05e90040
:106a0c00f3ff32000c00e000f1ff320019ddba0098
:106a1c00eeff37003600f800809fbe00829fbe005c
:106a2c00849fbe00869fbe003200f8003400f80040
:106a3c0010002000a00188000020200000d0fe00e3
:106a4c000348a90086fe020000000000613c230000
:106a5c00800878001100e00002003d00403c23005b
:106a6c000008eb000348ab000200320030002000ad
:106a7c00d09889003400f9003200f9004f03be00b1
:106a8c004f02be004f01be004f00be003600f900a1
:106a9c00004006003600f800809fbe00829fbe00ba
:106aac00849fbe00869fbe003200f8003400f800c0
:106abc0010002000a00188000020200000d0fe0063
:106acc00ddc5ab000300320024c102000000000051
:106adc00ddc5a900dc45ab0003003200c8b70200dd
:106aec0000000000dc45a9000328a9003400f900cf
:106afc003200f9004f03be004f02be004f01be0032
:106b0c004f00be003600f900004006003600f800c9
:106b1c00809fbe00829fbe00849fbe00869fbe00e9
:106b2c003200f8003400f80010002000a0018800aa
:106b3c000020200000d0fe007cb502000000000008
:106b4c0003e8a9003400f9003200f9004f03be003d
:106b5c004f02be004f01be004f00be003600f900d0
:106b6c00004006003200f8003400f800881f78005e
:106b7c0018002000a80188000820200008d0fe0082
:106b8c004f0478000688a9003400f9003200f9009f
:106b9c00004006003600f800809fbe00829fbe00b9
:106bac00849fbe00869fbe001328a900a06123000d
:106bbc00100078006800600004003200a06123001f
:106bcc001040a0003328a90022003700f093810068
:106bdc0000d8a3000f0032003e62ab0008003a0060
:106bec00f1938100e78060008100d000e0f32c007d
:106bfc000080400010007800005388001700370018
:106c0c00a06123001030a000500020000053880029
:106c1c0010003700a06123001030a000e0272300f3
:106c2c0090007800e78060008100d000e2f52c0035
:106c3c008280400010007800670060000000d000e7
:106c4c00e2f42c000200400091007800108050000b
:106c5c000053880048b10200000000004f03be0042
:106c6c004f02be004f01be004f00be003600f900bf
:106c7c00004006003600f800809fbe00829fbe00d8
:106c8c00849fbe00869fbe000168a90048b1020027
:106c9c00000000004f03be004f02be004f01be00bb
:106cac004f00be003600f900004006003600f80028
:106cbc00809fbe00829fbe00849fbe00869fbe0048
:106ccc000628a9003ce2ab000200320048b10200e9
:106cdc0000000000e00720003c02b6001e0032005d
:106cec003cc2ab0005003200101020000211b600af
:106cfc0002003a0010102100d09889003c62ab00d1
:106d0c0005003200101020000211b60002003a00fb
:106d1c0020102100d09889003c22ab0005003200e5
:106d2c00101020000211b60002003a0030102100b1
:106d3c00d098890039e2a9003e22ab0003003a004a
:106d4c00201280003e22ab00fdff320000f02f002d
:106d5c003c22b60039e2a8004f03be004f02be0031
:106d6c004f01be004f00be003600f9000040060087
:106d7c0000000000004006003600f800809fbe00b6
:106d8c00829fbe00849fbe00869fbe001308a90090
:106d9c00808323001000780068006000040032003b
:106dac00808323001040a0003308a9001000370096
:106dbc00808323001030a000e0272300900078008f
:106dcc00e78060008100d000e2f52c00828040005a
:106ddc0010007800670060000000d000e2f42c0086
:106dec000200400091007800108050001053880081
:106dfc00a4e90200000000004f03be004f02be00d9
:106e0c004f01be004f00be003600f90000400600e6
:106e1c003600f800809fbe00829fbe00849fbe009b
:106e2c00869fbe000368a900a4e9020000000000d0
:106e3c004f03be004f02be004f01be004f00be000c
:106e4c003600f900004006003600f800809fbe00b6
:106e5c00829fbe00849fbe00869fbe000648a9008c
:106e6c0064e2ab0002003200a4e902000000000062
:106e7c0064c2ab000600320064c2a90010102000ee
:106e8c000211b60002003a0010202100d0988900af
:106e9c006462ab00060032006462a900101020008e
:106eac000211b60002003a0020202100d09889007f
:106ebc006422ab000a00320061e2a9006422a9003e
:106ecc00c0a423001008e800101020000211b60026
:106edc0002003a0030202100d098890061e2a8001d
:106eec004f03be004f02be004f01be004f00be005c
:106efc003600f900004006003600f800809fbe0006
:106f0c00829fbe00849fbe00869fbe003200f800a8
:106f1c003400f80010002000a001880000202000a0
:106f2c0000d0fe000868a9000070ec00eaea02003c
:106f3c0000000000ea9602000000000000d0bf0034
:106f4c006700600005003a003080800050808800a7
:106f5c00408080006080880001e8a8003400f900bf
:106f6c003200f9004f03be004f02be004f01be00bd
:106f7c004f00be003600f900004006003600f80055
:106f8c00809fbe00829fbe00849fbe00869fbe0075
:106f9c003200f8003400f80010002000a001880036
:106fac000020200000d0fe000888a90002f1ab00f0
:106fbc0005003200a2948100002321002180800072
:106fcc00010841000600370051968100a29481000f
:106fdc00f0838000000141000023210001084100e2
:106fec007633020000000000b0968100b09188005a
:106ffc00c0968100c0918800dafd020000000000fc
:10700c00728e02000000000058fe0200000000001a
:10701c0020fe020000000000b890020000000000fa
:10702c003400f9003200f9004f03be004f02be00dd
:10703c004f01be004f00be003600f90000400600b4
:10704c003600f800809fbe00829fbe00849fbe0069
:10705c00869fbe00889fbe008a1f78003200f80011
:10706c003400f80010002000a0018800002020004f
:10707c0000d0fe002e23ab00ad003a00495b80002f
:10708c00c34cdd006a5b80004355dd000210e2005a
:10709c001100320018002800880045000800780014
:1070ac001412b400d43d0200000000006a2d23002d
:1070bc00000d780088804400080078001212b4009b
:1070cc00d43d0200000000000000ea00812d2300e6
:1070dc009a085000100037001800280088804400df
:1070ec00080078001212b400d43d02000000000029
:1070fc00692d2300800c780088004500080078007a
:10710c001412b400d43d0200000000000000ea009c
:10711c00812d230099085000ded1bf00e34f5000b1
:10712c003700320004003e00e14f500016003200e0
:10713c0023003e0006003700e54f50004f003200a0
:10714c003e003900e64f50006b003a005a00370001
:10715c00a25b8000a2ef890000fe2f00760bb60028
:10716c00b000b300b05b8800f00f2e00822bb6008d
:10717c008a0bb60000a0a000505c880010c0b300c1
:10718c00def1b7007b003700a05b8000b0ef890018
:10719c0000fe2f00760bb6003000b300b05b880009
:1071ac00f00f2e008a2bb600820bb60000a0a000b8
:1071bc00105c880020c0b300def1b7006d00370012
:1071cc00a25b8000c2ef890000fe2f00b25b800042
:1071dc0082006000a100b300b15b8800f10f2e00ab
:1071ec0022b82000128960008a0bb6000020a00093
:1071fc00505c880030c0b300def1b7005d00370092
:10720c00a05b8000d0ef890000fe2f00b25b8000f5
:10721c00820060003100b300b15b88008a2bb6009d
:10722c00f00f2e00820bb60000a0a000105c8800ae
:10723c0040c0b300def1b7004e003700a05b800009
:10724c00e0ef890000fe2f00b25b8000820060003e
:10725c000110a000b15b8800f10f2e0022b82000b5
:10726c0012896000820bb6000020a000105c880020
:10727c0050c0b300def1b7003e003700a05b8000c9
:10728c00f0ef890000fe2f00b25b800082006000ee
:10729c003100b300b15b8800822bb600f00f2e00da
:1072ac00820bb60000a0a000105c880060c0b30088
:1072bc00def1b7002f003700a05b800000f08900e2
:1072cc0000fe2f00b25b8000820060000140a00035
:1072dc00b15b8800f10f2e0022b8200012896000eb
:1072ec00900bb6000020a000805c880070c0b3003a
:1072fc00def1b7001f003700a05b800010f08900a2
:10730c0000fe2f00b25b8000820060003100b300f1
:10731c00b15b8800902bb600f00f2e00820bb600ec
:10732c0000a0a000105c8800de71ef001100370097
:10733c00a05b80009190800001007800680bb40085
:10734c0000017800e4804000c308de000100510019
:10735c0090908800a1908000010078006c0bb40024
:10736c0000017800e4804000c308de0001005100f9
:10737c00a09088000f68a9003400f9003200f900d1
:10738c004f0578004f04be004f03be004f02be00f5
:10739c004f01be004f00be003600f9000040060051
:1073ac00801f78000568a9002568a900608c800002
:1073bc00e05088004f00780000400600801f7800e5
:1073cc0005c8a90025c8a900608c8000c04f8800a2
:1073dc004f00780000400600809fbe00821f78009e
:1073ec0004c8a900382aef00f08880008000e8006b
:1073fc00f18888008000eb00f60f5000e08f5800f9
:10740c007c003e0000060100160037001800370013
:10741c001c0037001d003700220037002300370006
:10742c002a0037002b0037003100370032003700bc
:10743c003800370039003700400037004100370072
:10744c0047003700480037004d0037004e0037002a
:10745c0052003700530037005b0037005c003700e8
:10746c0061003700000c200080118800610037009b
:10747c008002200080118800b1898000804878004b
:10748c005c0037001c22a8005a003700100c2000aa
:10749c008011880011ccb300b089800001487800bd
:1074ac00540037001c62a80052003700a011800065
:1074bc00b1898000804878004400dd002089880074
:1074cc001ca2a9001c82a8004a0037001c62a8005c
:1074dc0048003700a0118000b189800080487800f6
:1074ec004400dd00308988001c82a8004100370070
:1074fc001c62a8003f003700a0118000b1898000f9
:10750c00804878004400dd00408988001c82a80077
:10751c00380037001c62a80036003700a01180002c
:10752c00b189800080487800f003b2004600dd008d
:10753c00a08988001c82a8002e0037001c62a800bd
:10754c002c0037001c82a800a0118000bc00e300b6
:10755c002800320010002000008988002500370028
:10756c001c62a800230037003402e2000200320043
:10757c0010002000008988001c82a8001d00370024
:10758c001c62a8001b003700a01180006f00600077
:10759c002431b7001c82a800160037001c62a8001a
:1075ac0014003700a211800074810a000200000050
:1075bc00010078002631b7006f0061002831b70058
:1075cc001c82a8000b0037001c62a80009003700c1
:1075dc00f00320003402b6003431b7001ca2a8001e
:1075ec001c82a800030037001c42a80024c8a90074
:1075fc0029eaa9004f0178004f00be0000400600a8
:10760c00801f780012c8a9003c8eab00020032002b
:10761c0029eaa9001de2a9001de2a900f000200042
:10762c00e051880010002000008988001de2a800ad
:10763c001c42a80024c8a9004f0078000040060096
:10764c003600f800809fbe00829fbe00849fbe0063
:10765c00869fbe00881f78003200f8003400f800c6
:10766c0010002000a00188000020200000d0fe00a7
:10767c0001e8a9000060fe000411ab0032003a00e2
:10768c004c9a02000000000034ed020000000000e3
:10769c00cab7020000000000248e020000000000a7
:1076ac002cf0020000000000c2a602000000000046
:1076bc000211ab0008003a001e5502000000000049
:1076cc00f8e202000000000054f20200000000008a
:1076dc005ebb020000000000009481000000e0008e
:1076ec0002003d0042b30200000000007afc0200e0
:1076fc000000000078f80200000000006a9b020005
:10770c0000000000fe8102000000000050fb02009f
:10771c0000000000befd0200000000000288a8006e
:10772c000008e2000a003d000311ab0008003a001b
:10773c00d09881000000e00005003a0020002000f5
:10774c00d0988900020037001e550200000000008e
:10775c0010002000f01a88002e23ab001400320019
:10776c0000d0bf0051188000f41a80006011b800de
:10777c006701600002014100838149006101410001
:10778c00e0814900819bb9000110b80081004300e1
:10779c0000004200e0804800027d20000300200031
:1077ac00183e020000000000409e890015003700c2
:1077bc00010021009140780052188000f01a8000de
:1077cc008001eb0002034100838349006011b80083
:1077dc006781600082bab900869cb9000802420039
:1077ec000231b8008301420002004000e0804900f1
:1077fc00027d200003002000183e02000000000063
:10780c00409e89003400f9003200f9004f047800e2
:10781c004f03be004f02be004f01be004f00be0022
:10782c003600f900004006003600f800809fbe00cc
:10783c00829fbe00849fbe00869fbe003200f8006f
:10784c003400f80010002000a00188000020200067
:10785c0000d0fe000288a900f4f402000000000031
:10786c0092fe0200000000000c11e20009003a0038
:10787c00ecda020000000000008880009af302009d
:10788c000000000048b10200000000004001200090
:10789c00608888000c31ed003400f9003200f900ea
:1078ac004f03be004f02be004f01be004f00be0092
:1078bc003600f900004006003600f800809fbe003c
:1078cc00829fbe00849fbe00869fbe003200f800df
:1078dc003400f80010002000a001880000202000d7
:1078ec0000d0fe00c028a90042062000f1c0b30061
:1078fc000040eb00e8f40200000000005000200003
:10790c00d09889003400f9003200f9004f03be0012
:10791c004f02be004f01be004f00be003600f90002
:10792c00004006003600f800809fbe00829fbe001b
:10793c00849fbe00869fbe003200f8003400f80021
:10794c0010002000a00188000020200000d0fe00c4
:10795c0070fe02000000000050888800c068a9007a
:10796c0042062000f1c0b3000040eb00e8f4020036
:10797c000000000060002000d09889003400f9005d
:10798c003200f9004f03be004f02be004f01be0093
:10799c004f00be003600f900004006003600f8002b
:1079ac00809fbe00829fbe00849fbe00869fbe004b
:1079bc003200f8003400f80010002000a00188000c
:1079cc000020200000d0fe00c048a9004206200084
:1079dc00f1c0b3000040eb00e8f40200000000002e
:1079ec0070002000d09889003400f9003200f900b2
:1079fc004f03be004f02be004f01be004f00be0041
:107a0c003600f900004006003600f800809fbe00ea
:107a1c00829fbe00849fbe00869fbe003200f8008d
:107a2c003400f80010002000a00188000020200085
:107a3c0000d0fe00c088a90042062000f1c0b300af
:107a4c000040eb00e8f40200000000008000200081
:107a5c00d09889003400f9003200f9004f03be00c1
:107a6c004f02be004f01be004f00be003600f900b1
:107a7c00004006000040da000000fe0080037800a1
:107a8c000000eb001038e60000000600889fbe00e6
:107a9c008781cf00e28051000139dd000000280011
:107aac008002510005027800c12add000600240086
:107abc0006a3b90005a4b90000002f000981b90084
:107acc00060341008783490005ccb90000802000e3
:107adc000981b900060341008783490005ccb90030
:107aec0000b02f000981b9000603410087834900cb
:107afc0005ccb900003820000981b900060341000b
:107b0c008783490005ccb90000d62f000981b90044
:107b1c00060341008783490005ccb90000212000f1
:107b2c000981b900060341008783490005ccb900df
:107b3c0030e52f000981b900060341008783490015
:107b4c004f33de004138dd0000037300cfbbde0095
:107b5c000000280006034000e0834b004109de00d2
:107b6c00700011000233de000038dd0000037300ea
:107b7c0082bbde000100a3000500390024a825000b
:107b8c0004b0b9004f00de00c108dd000103700035
:107b9c00060078004f04be000000060001005000f3
:107bac0003003800000028004200ae00f0ff270060
:107bbc0000000600000005005400f800a102880037
:107bcc0080027800620040003549ba00e08048002d
:107bdc003204e0000410a700100032008301e90019
:107bec000e0032002549ba003204e0000410a70050
:107bfc000a0032008301e900080032000408a300e7
:107c0c00eeff320015c9ba003204e0000410a700e0
:107c1c00020032008301e900e8ff3a005400f90049
:107c2c0000000600839f68000100e00002003d0098
:107c3c0060001000e08018000300e00002003d002e
:107c4c0060011100e0811900460007004f00e000c0
:107c5c0002003b0060001000e080180000000600ed
:107c6c0014002000cd033700f4ff2f00cb033700a6
:107c7c000001be00260007000470a70003f0a1005d
:107c8c006509b100160032000d0035006828e100ce
:107c9c0006003500f0ff2f00f1ff27000300e00085
:107cac0013003b000100280000000500000040000c
:107cbc00818048008502e900fcff3a00080037008b
:107ccc00f88f420002003c008000eb000000050031
:107cdc008100d1000080d3008502e800fcff3a004f
:107cec000300e00002003b0060001000e080180080
:107cfc00000006004f89de0082017800c2033700c5
:107d0c006011b800d003370004002000a303370033
:107d1c00c70ade00f107b200f50fb200080032000e
:107d2c00e1cf4200020032000170a00024000500e7
:107d3c00810f7000010032000408050044000500aa
:107d4c00810f700002003a00140005008502e90062
:107d5c000000400081c04800fcff3b000170a00007
:107d6c00240005006022b800060220000000d000ac
:107d7c008180d2000482d2008582d2000000a00053
:107d8c000202520083825a000300310002024200b8
:107d9c0083824a000000a1000603e900f3ff3a00c9
:107dac000000060007f82700078361000638e10091
:107dbc0004003a00f70720008783610087037100f5
:107dcc0001003a0003f0a200889fbe008a9fbe000b
:107ddc008c9fbe00470ade000480a100c71ade009b
:107dec000580a100070028000785600087856100d9
:107dfc00f70f20000720e1009e0032000728e10069
:107e0c009c003200010678000400e000b40032004f
:107e1c00f7072000878060000170a0000500e000db
:107e2c00c0003200f7072000878161000370a000ba
:107e3c00050652000f003a000b50e1000b00320017
:107e4c000308e10002003a000200e1007e0032006b
:107e5c000204500083845800040031000001fd002e
:107e6c008101fd008402fd008a05fd006044b8001c
:107e7c00210037000520e10005003d000001fd0058
:107e8c008101fd008402fd008a05fd0005065200fb
:107e9c007a60e100050035000170a1004722dd0089
:107eac00848070008a807000630037006044b800e2
:107ebc00ef02660007ff2f00070666000500e000d2
:107ecc0006003400f08312008714dd000511de007b
:107edc00071bdd00060171008519de007060e100f2
:107eec00050035000904780082047800030178004d
:107efc008001eb00700656000b50e10003003a00c5
:107f0c000200400083804800040037006004140025
:107f1c00e0841c0002005800838058000188a300f4
:107f2c00060032008100d1000080d3008984d30088
:107f3c000884d3000402e800270037000178a3006e
:107f4c0025003a000100e000030032008186cf00da
:107f5c00698656000a0037008c0020000000e00003
:107f6c0004003a0009007800880478000004eb0053
:107f7c00700252008086cf000d0646000c06e90008
:107f8c007060e10006003500800078000900780080
:107f9c00880478000004eb00700656007002520052
:107fac000c00e0000c0034008c08dd00f00316001f
:107fbc000703de00868070000c00dd00074bde003e
:107fcc00060070008c4cdd000743de0086847400d4
:107fdc000c44dd000c0252006120e1002000350051
:107fec00610160000700280087816400f7ff27000b
:107ffc0087836400070374000300e000060032006e
:10800c0082037300040032000000e800e0804800a6
:10801c000188a3000e003a00f70f20000720e100b2
:10802c004a003d000170a1004722dd008100720072
:10803c008a8070000000be004f06be004f05be00d7
:10804c004f04be00000006006000b800faff3700c5
:10805c008100d1000080d3000402e800eeff37005d
:10806c000401780089017400a10107008a80700066
:10807c00f1ff3700f7010700070278000001fd004f
:10808c008101fd00f301070087027800850372006f
:10809c000778a300040032000001fd008101fd00ff
:1080ac0006020700e4ff3700850362000768a3009f
:1080bc00080032000b50e10003003200f0ff2f00eb
:1080cc00f1ff2700dcff37000001fd008101fd00fe
:1080dc00d9ff37000468a300d7ff3200faff37003e
:1080ec00f8ff2700888360000b003a000000e000d6
:1080fc0009003a008303640082837300020032009b
:10810c000200be00ccff37000b50e100ceff3a005e
:10811c000200be00c8ff370014002000810064007c
:10812c003eff3700f8ff27008883610004003a0007
:10813c000200e00002003a008c007800beff37001d
:10814c00150020008301640039ff370001f8270077
:10815c000000200081007500b7ff3700889fbe002b
:10816c008a9fbe008c9fbe001b0020000202be0036
:10817c000586680006002800060666004709de0032
:10818c00f20fb200820032000243e800800032009d
:10819c00c729de00f30fb2007d0032000343e80074
:1081ac007b003200f107b2000170a000f507b200ad
:1081bc000570a000c708dd004903de008680700052
:1081cc004700dd00c72add004923de0086827200ed
:1081dc004722dd000305510004035000858358003d
:1081ec000300310000004000818048000a05e900ce
:1081fc008c1f78008a9fbe000400500085805800b8
:10820c000402420085824a00000040008180480040
:10821c000005eb000004be006033b8000406be008d
:10822c000d48e10056003100050009004dccd80086
:10823c000c01b8000d02b8008481410060824a0034
:10824c008283530003045c0084845c0060055d0041
:10825c000a00e00025003a00800578000d40e1009e
:10826c0049003100880078000700780005000900fb
:10827c004d88d8000c01b8000d02b8008481410073
:10828c0060824a006003110083835b0004045c007d
:10829c00e0845c000900e00021003a004f01be00c0
:1082ac000300e0002b003200e301600007067300be
:1082bc008c81710001003200640070004200de000d
:1082cc004e5edd000c007000c258de0001e0a00024
:1082dc0083010700cf017800818071004f06be003a
:1082ec004f05be004f04be00000006008c83430007
:1082fc000d044c00e0844c0060054d000000e900ca
:10830c000a00e000d4ff32008c8343000d044c00c3
:10831c00e0844c0060054d000000e900ceff370002
:10832c000c0343008d834b0060044c00e0844c0034
:10833c000000e9000900e000d8ff32000c03430004
:10834c008d834b0060044c00e0844c000000e9007d
:10835c00d2ff37004200de004e5edd000c007000e4
:10836c00c258de0001e0a000cf0178000300e0005d
:10837c00daff320060001000e0801800d7ff3700f1
:10838c00f0ff2f00aaff3700f0ff2f00b9ff3700d6
:10839c000404be002f010700870678000004fd00ce
:1083ac008104fd002b010700078366000678a300fb
:1083bc00030032000960a7000800be002c00370043
:1083cc000d78a300020032000800be002800370020
:1083dc000778a30026003a0001f0a10009f0a100e3
:1083ec000668a30003003200f1ff2700f0ff2f0006
:1083fc00baff37000d68a300030032000800be006e
:10840c008c807000b5ff37000768a30007003a00a6
:10841c000648a30003003200f1ff2700f0ff2f00f5
:10842c00aeff37000d48a300030032006000b80017
:10843c008c807000a9ff37000748a30004003200ad
:10844c0001f82700000020008c807000a3ff37008b
:10845c00760107000004fd008104fd000205780090
:10846c00720107000802be008a01780059ff37002c
:10847c000160a000120220007291880097ff370063
:10848c000100e000120032000500e0001000320094
:10849c00889fbe008a9fbe008c9fbe000006eb002a
:1084ac0001f8a3000300320060001000e080180007
:1084bc000cf0a00005f8a3000300320060021200cb
:1084cc00e0821a000cf0a2008005eb0041ff37009f
:1084dc006000b80002000500038368000700280054
:1084ec0007036300470ade000480a100c71ade0000
:1084fc000580a100f70f20000720e10042003200a8
:10850c000728e10040003200889fbe008a9fbe0011
:10851c008c1f7800f107b200f307b2000400e000f2
:10852c00640032000170a0000500e0006800320019
:10853c000370a00085054200eb07b1000204b800ef
:10854c000302b8008484440060854a00020ab80023
:10855c00848444000a854a00030ab80004054500d7
:10856c00040033000804d0008984d2000a85d200ac
:10857c008b05e9006158e1003d0035000210200038
:10858c00090161000308200089816100f7072000c0
:10859c008783640008867300c84cde00c853dd0076
:1085ac00878474004855de000300e00006003200aa
:1085bc0082037600040032008904e80060054d0057
:1085cc000a88a3000c003a00f70f20000758e100be
:1085dc0044003d000a70a100c75ddd000a857500ee
:1085ec008a007300090078004f0678004f05be0022
:1085fc004f04be00000006000a05d1008984d30098
:10860c008b05e800f0ff3700881f7800060478001f
:10861c0090000700070278000001fd008101fd00b9
:10862c008c00070087027800850372000778a3008e
:10863c00050032000001fd008101fd009f000700d4
:10864c004f04780000000600850372000748a30061
:10865c0003003200f0ff2f00f1ff2700f8ff370076
:10866c000000200001f8270088807000f4ff37001c
:10867c00880178004848dd00808171004848de00a0
:10868c00c850dd0001007000c850de000604780000
:10869c000b0178001600070088807000d2ff3700ad
:1086ac000500e00005003200170020003a0007002a
:1086bc009dff370081037000f9ff3a0086007800b7
:1086cc004f0678004f05be004f04be0000000500a9
:1086dc0083037100f9ff3200270020002e000700f1
:1086ec0094ff370001f8270086807000f4ff3700f4
:1086fc000100e00026003200610111007810e10059
:10870c0023003c006022b8007010e100040035002a
:10871c0080027800010078008000eb0070015100ad
:10872c000200e0000900340070031100062add008d
:10873c00822ade008603dd00878272000200de00e2
:10874c00860bdd00070070008208de00848171005a
:10875c00f4ff270004826200848171000400280069
:10876c00848262006102600005f0a6000000060031
:10877c0004827100070032000000e800e08048002d
:10878c00000006000002be006000b800efff3700da
:10879c006000b80000000600889fbe000004eb00db
:1087ac006138e10016003a000100e00008003a00d0
:1087bc00c800de004800dd00880020000100e00059
:1087cc0003003a00c800de004800dd0068044400e5
:1087dc008184cf00e9845400060034008908dd0050
:1087ec00f08314008703de00878070000900dd0031
:1087fc0009044400610214004f04be00000006008e
:10880c000300e00008003a00c811de004811dd004a
:10881c00880020000300e00003003a00c811de00cd
:10882c004811dd00680444008384cf00e9845400bf
:10883c00060034008919dd00f08314008713de0074
:10884c00878171000911dd0009044400e102140064
:10885c00e9ff37002700200001f0a70017002000d7
:10886c00470bde00f60fb200040032000643e800ae
:10887c000a0032004702b300000006000103780032
:10888c00f607b2000603700002003a000703b300bb
:10889c00000006008702b300000006000103780008
:1088ac00f607b20006037000020032000770a00049
:1088bc00000006000760a000000006000478a3007a
:1088cc00040032000578a300030032000168a30005
:1088dc0001003a000200be000160a000000006008a
:1088ec0081017000270032008002eb0001f8a30028
:1088fc000300320060001000e0801800150020001a
:10890c00f40720000202420020003400f70320008c
:10891c0087036000060420000003630002082000a7
:10892c00000161004700de00c909dd000080710014
:10893c00c708de000600e000080032008703710063
:10894c00060032001000b0000180b0000188a300c6
:10895c0002003200c108de000402e800f107b20098
:10896c00f30f20000320e10003003d004722dd004f
:10897c00810072002900370001f827000000eb008d
:10898c00260037006000b8000000060068021200e4
:10899c007f20e100020034006000b8001f003700a7
:1089ac006011b8007020e1000400350080017800ef
:1089bc00010078008000eb00700252000400e0001f
:1089cc0009003400f00312000719dd008419de00e1
:1089dc000703dd00868171000400de00070bdd005b
:1089ec00060070008408de00f7ff27008383630015
:1089fc0087037100060028000303630007003200a0
:108a0c000700e00003003a0061016000028173007e
:108a1c00020032001000b0000180b0000500a6007a
:108a2c000000060001f0a000000006004f0ade0066
:108a3c004709de00f107b200f20fb2000b00320062
:108a4c00f207b1000170a000c708dd00c901de000b
:108a5c00838070004700dd000400a60000000600c3
:108a6c0060001000e080180000000600810f70000c
:108a7c0001003a00000006008182cf000500e000f2
:108a8c0010003e008082cf00ee8242007028e10090
:108a9c000400390007003e00800078000000eb0065
:108aac000e003700708312008600de000500dd002a
:108abc000a003700708352008600dd000000eb00d6
:108acc0006003700e28252008508dd007083120038
:108adc000603de00868070000500dd007507b0001f
:108aec000501ea000400a60000000600600010006a
:108afc00e080180000000600889fbe008a9fbe0020
:108b0c008c1f78000006eb00e00f5000e08f58003f
:108b1c00e00f5900e08f590007003d006044b80099
:108b2c006055b8000000540081805c0002015d00bb
:108b3c0083815d001c002000e00f5200e08f5a0082
:108b4c00e00f5b00e08f5b0007003d006044b80065
:108b5c006055b8000402540085825c0006035d0079
:108b6c0087835d000c00a200940007000c00e0005d
:108b7c00060032006022b8006033b80000005200da
:108b8c0081805a0002015b0083815b004f067800f4
:108b9c004f05be004f04be0000000600889fbe00bb
:108bac008a9fbe00841f78007c0007004f0078006d
:108bbc0011003300f0ff2f00838f6c0006003b0088
:108bcc00040565000a00a7000800370009f0a6009c
:108bdc001000200008003700820f5400838f5c00c7
:108bec00030039001000200001003e0000002000ae
:108bfc0009f0a7000000ea004f05be004f04be00bc
:108c0c000000e00000000600881f780003047800d4
:108c1c000300e00007003d0060001000e080180039
:108c2c0060011900e081190002003b0001f02d00e9
:108c3c00030037000400070008f0a70001f0a000b3
:108c4c004f04780000000600889fbe008a9fbe007b
:108c5c000082700004027100048271002600320050
:108c6c000004be000200be006011b8006b092000b9
:108c7c00950220000182cf000a0039000541b100a5
:108c8c000082cf00070039000541b1000982cf00f6
:108c9c00040039000541b1000882cf000100390001
:108cac000541b10005425200120032000a003b009f
:108cbc0082817100610164008100d1000080d300c9
:108ccc008984d3000884d3008b05e8000442e800b3
:108cdc00f7ff3a00070037000804440089844c0071
:108cec0000004800818048008b05e9000442e9003f
:108cfc00f9ff3a00030007004f05be004f04be0009
:108d0c000000060081002000618055000b003d0032
:108d1c000b00200061fe2f000100e1001d0034005b
:108d2c0082817100610164008904d1000884d30040
:108d3c000000e800faff3a007100200061006400b6
:108d4c00030070000200600009003200610444005e
:108d5c00e0844c000988a500050032008b05e80072
:108d6c006808e10002003a008904d1000884d300ad
:108d7c00f20f20000258e10005003d00c75ddd0048
:108d8c00f907b20089807500080078000000060021
:108d9c000bf827008b007800000005000004be00d3
:108dac00dbfb07000003be000405be000200be0092
:108dbc00d7fb0700844f750000000600889fbe009b
:108dcc008a9fbe008c9fbe000404b8000506b80044
:108ddc008904460060854e000606b8000a05460068
:108dec00e0854e000706b8008b054600040eb8005f
:108dfc00890446000a854e00e0854d00050eb8003a
:108e0c000a0546008b854e00060eb8008b05460001
:108e1c000416b8000a0546008b854e000516b800ee
:108e2c008b054600041eb8008b0546000800be00ea
:108e3c000a01be004f06be004f05be004f04be0027
:108e4c00000006000400fa00889fbe008a9fbe0046
:108e5c000004be004709de0003002000f20fb20040
:108e6c00f207b100f60f510030003c000200e000a8
:108e7c001c003500faff2f00fb0720000201e9005f
:108e8c00030033008b85d1000a85d300fbff37002c
:108e9c008b8164000a016000e00f5100e08f5900e3
:108eac00220032000200200003b82700c6fb070096
:108ebc00a0bf9f00b1bf9f00e00f5400e08f5c008b
:108ecc0002003d000a0444008b844c000a85ea0031
:108edc008b85ea008b8064000a0064000004be00ed
:108eec00110037000200200003b82700b6fb070072
:108efc00a0bf9f00b1bf9f00e00f5400e08f5c004b
:108f0c00020035006044b800070037000800440038
:108f1c0089804c00e00f5000e08f580002003200b6
:108f2c000800200009f82b000800be004f05be0009
:108f3c004f04be000080fa0000000600889fbe00af
:108f4c008a9fbe008c9fbe000004be00040020005f
:108f5c0005f827008583600004037800840f530014
:108f6c00858f5b0007003a000801be000800be00b8
:108f7c0059fd07000001be000800be0092fb07006f
:108f8c0010003700e00f5000e08f58000f003c003d
:108f9c008101780003f0a10000017800e00f51007e
:108fac00e08f59006a0032001002200030d789008f
:108fbc000801be000800be007afb07000001be00dd
:108fcc0066fc07000004be0061003700478cde0021
:108fdc00cf8cde00e00f5400e08f5c000f003a00f5
:108fec006044b80004003700000040008180480055
:108ffc0061044400e0844c000400200005082000bb
:10900c008181620004017800e00f5100e08f59006b
:10901c00f5ff320061041400e0841c00f807b10075
:10902c000980b10081017800f307b20000017800db
:10903c000200be000170a0000808a300020032006c
:10904c0000004000818048008984d1000884d3004e
:10905c0000004000818048009401200002002000a4
:10906c00031020006055b8006066b8000c03410086
:10907c008d834900800f5300818f5b0006003c00fc
:10908c00060641008786490006005000878058007c
:10909c000a0541008b854900000040008180480092
:1090ac008301d1000281d3000402e900efff3a00f2
:1090bc00e00f5000e08f58001b0032000226240005
:1090cc0023da20000000200001f8230035fb070004
:1090dc000200200003f82300e3fa07000000e00080
:1090ec00110035000226240023da200000002000a5
:1090fc0001f8230034fb07000200200003f82300d2
:10910c00d9fa07000000e0000300340062054500b6
:10911c00e0854d00040037006000b8006100650078
:10912c000005450081854d00c744dd000800200086
:10913c000000200001f0230008044000898448004e
:10914c008b85d1000a85d3000804450089844d0025
:10915c000800be004f06be004f05be004f04be0007
:10916c00000006000202be008001eb000700370081
:10917c00611bb800060140000683400016497800c8
:10918c0061025200e0825a008301e800e00f5200b5
:0c919c00e08f5a00f6ff3a0000000600c9
:020000040000fa
:1091a8000100000000000000200000000000000096
:1091b8000200000002000000210000000000000082
:1091c8000a00000006000000140000000000000073
:1091d800140000001a000000f40000000000000065
:1091e8001e0000002e000000940000000000000097
:1091f8002800000042000000940000000000000069
:109208003200000056000000a1000000000000002d
:10921800340000005a000000a00000000100000017
:10922800370000005c000000a00000000200000001
:10923800640000005e000000200000000000000044
:109248006500000060000000310000000000000020
:109258006900000064000000a00000000000000099
:109268006a00000066000000a10000000300000082
:109278006e0000006a000000a0000000040000006a
:10928800780000006c000000a00000000000000052
:10929800790000006e000000a0000000000000003f
:1092a8007a00000070000000b0000000000000001c
:1092b8008c00000072000000a10000000000000007
:1092c800910000007600000020000000000000006f
:1092d8009600000078000000a200000005000000d1
:1092e800a000000080000000a200000006000000ae
:1092f800aa00000088000000220000000000000012
:10930800b400000090000000a0000000070000006a
:10931800b800000092000000d10000000800000022
:10932800c800000096000000d10000000000000006
:10933800ca0000009a000000310000000000000090
:10934800cc0000009e000000b100000009000000f1
:10935800ce000000a2000000310000000000000064
:10936800d0000000a600000020000000000000005f
:10937800d2000000a800000021000000000000004a
:10938800d4000000ac000000a000000000000000b5
:10939800d5000000ae000000310000000000000011
:1093a800dc000000b20000003200000000000000f5
:1093b800e0000000ba000000b1000000000000005a
:1093c800e2000000be0000003200000000000000c3
:1093d8002c010000c6000000b200000000000000e0
:1093e8002f010000cc000000a000000000000000d9
:1093f80030010000ce000000b200000000000000b4
:1094080034010000d6000000300000000000000019
:1094180035010000d8000000a00000000000000096
:1094280036010000da0000003000000000000000f3
:109438005e010000dc000000b30000000000000036
:1094480063010000e6000000b0000000000000001a
:1094580090010000e8000000a10000000a000000e0
:109468009a010000ec000000a300000000000000ca
:10947800a0010000f8000000a000000000000000ab
:10948800a4010000fa000000d10000000000000064
:10949800c0010000fe000000d20000000000000033
:1094a800c401000006010000a00000000000000048
:1094b800c501000008010000b20000000000000023
:1094c800c80100000e010000d200000000000000ea
:1094d800cc01000016010000b000000000000000f0
:1094e800cd01000018010000a000000000000000ed
:1094f800ce0100001a010000510000000000000029
:10950800d60100001e010000d2000000000000008b
:10951800e001000026010000a20000000000000099
:10952800ea01000038010000b0000000000000005f
:10953800eb0100002e010000a20000000000000066
:10954800ef010000360100003000000000000000bc
:10955800f001000038010000d10000000000000008
:10956800f40100003c010000a10000000000000020
:10957800fe01000040010000d500000000000000ce
:109588003a02000080010000a40000000000000072
:1095980058020000a0010000a00000000000000028
:1095a80059020000a2010000b00000000000000005
:1095b8005a020000a4010000a10000000000000001
:1095c8006c020000a8010000b300000000000000c9
:1095d80080020000b8010000b30000000000000095
:1095e800a8020000c8010000a70000000000000059
:1095f8001f030000b6020000a000000000000000e9
:1096080084030000b8020000a3000000000000006e
:109618008c030000c8020000a00000000000000049
:10962800e803000000000000ec000000000000005b
:1096380088130000ca020000a0000000000000001b
:1096480089130000cc020000a20000000000000006
:1096580092130000d8020000a000000000000000e3
:1096680093130000da020000a200000000000000ce
:109678009c130000e6020000a000000000000000ab
:109688009d130000e8020000a20000000000000096
:10969800a6130000f4020000a00000000000000073
:1096a800a7130000f6020000a2000000000000005e
:1096b800b013000002030000a0000000000000003a
:1096c800b113000004030000a20000000000000025
:1096d800ba13000010030000a00000000000000002
:1096e800bb13000012030000a200000000000000ed
:1096f800c41300001e030000a000000000000000ca
:10970800c513000020030000a200000000000000b4
:10971800ce1300002c030000a00000000000000091
:10972800cf1300002e030000a2000000000000007c
:109738007c1500003a030000a000000000000000b3
:109748007d1500003e030000a2000000000000009c
:10975800811500003c030000a0000000000000008c
:109768008615000046030000a0000000000000006d
:10977800871500004a030000a20000000000000056
:109788008b15000048030000a00000000000000046
:109798009015000052030000a00000000000000027
:1097a8009115000056030000a20000000000000010
:1097b8009515000054030000a00000000000000000
:1097c8009a1500005e030000a000000000000000e1
:1097d8009b15000062030000a200000000000000ca
:1097e8009f15000060030000a000000000000000ba
:1097f800a41500006a030000a0000000000000009b
:10980800a51500006e030000a20000000000000083
:10981800a91500006c030000a00000000000000073
:10982800ae15000076030000a00000000000000054
:10983800af1500007a030000a2000000000000003d
:10984800b315000078030000a0000000000000002d
:10985800b815000082030000a0000000000000000e
:10986800b915000086030000a200000000000000f7
:10987800bd15000084030000a000000000000000e7
:10988800c21500008e030000a000000000000000c8
:10989800c315000092030000a200000000000000b1
:1098a800c715000090030000a000000000000000a1
:1098b800701700009a030000a200000000000000da
:1098c800721700009e030000a000000000000000c6
:1098d8007a170000a2030000a100000000000000a9
:1098e80084170000a6030000a1000000000000008b
:1098f8008e170000aa030000a1000000000000006d
:1099080098170000ae030000a1000000000000004e
:10991800a2170000b2030000a10000000000000030
:10992800ac170000b6030000a10000000000000012
:10993800b6170000ba030000a100000000000000f4
:10994800c0170000be030000a100000000000000d6
:10995800ca170000c2030000a100000000000000b8
:10996800d4170000c6030000a1000000000000009a
:10997800de170000ca030000a1000000000000007c
:10998800e8170000ce030000a1000000000000005e
:10999800f2170000d2030000a10000000000000040
:1099a800fc170000d6030000a10000000000000022
:1099b80006180000da030000a10000000000000003
:1099c80010180000de030000a100000000000000e5
:1099d800000000000000000000000000000000007f
:1099e800000000000000000000000000000000006f
:1099f800000000000000000000000000000000005f
:109a0800000000000000000000000000000000004e
:109a180000000000ff7f000000400000c825000093
:109a2800381a0000f613000016100000750d00002b
:109a3800900b0000220a0000040900001f08000023
:109a480063070000c606000042060000d0050000bb
:109a58006d05000016050000ff7f0000385a000061
:109a680000400000ea2f0000c8250000021f000087
:109a7800381a0000ae160000f6130000d2110000dc
:109a880016100000a80e0000750d0000700c0000f4
:109a9800900b0000cd0a0000220a0000ff7f0000a2
:109aa800c865000016500000004000007034000037
:109ab8000a2c0000c8250000fe2000003c1d000004
:109ac800381a0000c0170000b2150000f613000095
:109ad8007b12000034110000161000001a0f00005d
:109ae800ff7f00000a6c0000385a0000904b00000d
:109af80000400000fc360000ea2f00004e2a00005b
:109b0800c825000014220000021f00006c1c000081
:109b1800381a000053180000ae1600003c1500006b
:109b2800f6130000ff7f0000ea6f0000fe600000ef
:109b3800f653000004490000004000009d38000072
:109b48008b320000852d000052290000c825000036
:109b5800c42200002c200000ec1d0000f41b0000b3
:109b6800381a0000ae180000ff7f00008b7200005a
:109b7800c8650000385a000016500000634700000e
:109b880000400000be39000070340000ea2f0000d9
:109b98000a2c0000b1280000c82500003c23000062
:109ba800fe200000021f00003c1d0000ff7f000097
:109bb8007074000052690000025f0000b255000096
:109bc800754d00004246000000400000933a000036
:109bd800de350000c43100002e2e0000082b0000e6
:109be80040280000c8250000942300009b210000a5
:109bf800ff7f0000de7500000a6c0000c4620000f0
:109c0800385a00007b520000904b00006d45000060
:109c180000400000363b0000fc3600003d330000e9
:109c2800ea2f0000f42c00004e2a0000ed27000067
:109c3800c8250000ff7f0000fc7600002e6e0000a3
:109c4800c8650000ec5d0000ae560000165000002c
:109c5800224a0000ca44000000400000b73b000050
:109c6800e137000070340000583100008f2e0000ea
:109c78000a2c0000c1290000ff7f0000e1770000e6
:109c8800ea6f000040680000fe600000385a0000db
:109c9800f65300003c4e000004490000494400000f
:109ca800004000001f3c00009d3800006e35000099
:109cb8008b320000ea2f0000852d0000ff7f000096
:109cc8009d780000587100004e6a000094630000ff
:109cd8003c5d00004f570000d2510000c34c00000b
:109ce8001f480000e143000000400000763c0000ef
:109cf8003a39000045360000903300001431000066
:109d0800ff7f00003a7900008b7200000a6c0000a7
:109d1800c8650000d45f0000385a0000f8540000fd
:109d280016500000904b0000634700008a43000073
:109d380000400000be3c0000be390000fc360000b8
:109d480070340000ff7f0000be79000090730000af
:109d5800856d0000ad67000014620000c45c00005f
:109d6800c05700000c530000a84e0000924a0000a3
:109d7800c64600004243000000400000fc3c0000d2
:109d8800303a00009a370000ff7f0000307a000068
:109d980070740000cc6e0000526900000c64000072
:109da800025f0000385a0000b255000071510000ef
:109db800754d0000bb490000424600000443000006
:109dc80000400000313d0000933a0000ff7f000092
:109dd800937a000033750000ea6f0000c46a00003f
:109de800c8650000fe6000006c5c000013580000ad
:109df800f653000016500000704c000004490000a3
:109e0800d0450000cf420000004000005f3d000048
:109e1800ff7f0000ea7a0000de750000e6700000af
:109e28000a6c000052670000c4620000655e000012
:109e3800385a00003f5600007b520000ec4e0000ec
:109e4800904b0000664800006d450000a1420000ec
:109e580000400000571400002b0a00001505000000
:109e68008a020000b1010000d80000006b00000069
:109e780035000000ff1b0000ff0d0000fe0600007b
:109e88007f030000540200002a0100009500000032
:109e98004a000000fe530000ff290000fc140000e7
:109ea8007e0a0000fe0600007f030000bf010000dc
:109eb800df000000fcc30000fe610000f730000076
:109ec8007b1800005110000028080000140400004e
:109ed8000a02000000c100008140000001c000002b
:109ee8008041000001c000008041000000c1000066
:109ef8008140000001c000008041000000c1000056
:109f08008140000000c100008140000001c0000045
:109f18008041000001c000008041000000c1000035
:109f28008140000000c100008140000001c0000025
:109f38008041000000c100008140000001c0000015
:109f48008041000001c000008041000000c1000005
:109f58008140000001c000008041000000c10000f5
:109f68008140000000c100008140000001c00000e5
:109f78008041000000c100008140000001c00000d5
:109f88008041000001c000008041000000c10000c5
:109f98008140000000c100008140000001c00000b5
:109fa8008041000001c000008041000000c10000a5
:109fb8008140000001c000008041000000c1000095
:109fc8008140000000c100008140000001c0000085
:109fd8008041000001c000008041000000c1000075
:109fe8008140000000c100008140000001c0000065
:109ff8008041000000c100008140000001c0000055
:10a008008041000001c000008041000000c1000044
:10a018008140000000c100008140000001c0000034
:10a028008041000001c000008041000000c1000024
:10a038008140000001c000008041000000c1000014
:10a048008140000000c100008140000001c0000004
:10a058008041000000c100008140000001c00000f4
:10a068008041000001c000008041000000c10000e4
:10a078008140000001c000008041000000c10000d4
:10a088008140000000c100008140000001c00000c4
:10a098008041000001c000008041000000c10000b4
:10a0a8008140000000c100008140000001c00000a4
:10a0b8008041000000c100008140000001c0000094
:10a0c8008041000001c000008041000000c1000084
:10a0d8008140000000c00000c1010000c30300006f
:10a0e80002c20000c606000007c7000005c5000040
:10a0f800c4040000cc0c00000dcd00000fcf000000
:10a10800ce0e00000aca0000cb0b0000c9090000ef
:10a1180008c80000d818000019d900001bdb00008f
:10a12800da1a00001ede0000df1f0000dd1d00003f
:10a138001cdc000014d40000d5150000d71700005f
:10a1480016d60000d212000013d3000011d100006f
:10a15800d0100000f030000031f1000033f30000af
:10a16800f232000036f60000f7370000f53500003f
:10a1780034f400003cfc0000fd3d0000ff3f0000ff
:10a188003efe0000fa3a00003bfb000039f90000ef
:10a19800f838000028e80000e9290000eb2b00004f
:10a1a8002aea0000ee2e00002fef00002ded00003f
:10a1b800ec2c0000e424000025e5000027e700005f
:10a1c800e626000022e20000e3230000e12100006f
:10a1d80020e00000a060000061a1000063a300006f
:10a1e800a262000066a60000a7670000a56500003f
:10a1f80064a400006cac0000ad6d0000af6f0000ff
:10a208006eae0000aa6a00006bab000069a90000ee
:10a21800a868000078b80000b9790000bb7b00008e
:10a228007aba0000be7e00007fbf00007dbd00003e
:10a23800bc7c0000b474000075b5000077b700005e
:10a24800b676000072b20000b3730000b17100006e
:10a2580070b000005090000091510000935300002e
:10a26800529200009656000057970000559500003e
:10a27800945400009c5c00005d9d00005f9f0000fe
:10a288009e5e00005a9a00009b5b000099590000ee
:10a298005898000088480000498900004b8b00004e
:10a2a8008a4a00004e8e00008f4f00008d4d00003e
:10a2b8004c8c00004484000085450000874700005e
:10a2c800468600008242000043830000418100006e
:10a2d8008040000027010000670100003ffd0000ea
:10a2e80098010000c6ff0000a0ff0000dd0000008c
:10a2f80004fd00003f000000860100001601000078
:10a30800fc0000005cfe00004701000028fe000081
:10a3180055ff0000ed00000091fd0000f1ff000076
:10a328005b010000a0000000e70100008cfe0000b7
:10a338008501000005010000cb0000003afd000087
:10a34800deff00000b010000740000009cfd00000f
:10a35800e101000086fd0000840200000802000000
:10a368006afe00006902000070fd0000f8fd0000b0
:10a378003e000000cd000000c9010000bdfd000046
:10a388007aff000024020000d0fe00000a0000004e
:10a39800c5fd000029ff0000f7000000b400000020
:10a3a8008e0000008e000000770100009ffd000075
:10a3b800bd00000048fe000040ff00000afe00004b
:10a3c800700000002d010000ff0100008b0200005a
:10a3d800ebfd00007901000048fe0000a7ff000027
:10a3e8004601000075000000aafe000004020000fb
:10a3f800fefe00008bfd00004401000080ff00000d
:10a408007a010000c4fd00003f010000690200005d
:10a4180014ff0000bdfd00001ffe000096020000b2
:10a42800e4fe0000ed010000f3fe0000030300005d
:10a4380010ff000072ff0000a9fe000028010000c4
:10a4480096ff0000650000001d01000028fe0000c6
:10a458007ffd00002a000000c3fd0000eb010000a2
:10a468008eff0000dc010000fc0100005e0000001f
:10a47800dbfe00002b0100009aff0000fcff00003b
:10a4880017fe0000ac00000019000000b202000036
:10a49800f9000000cafd000046fe0000c4020000ea
:10a4a800b4fd000000010000cbff0000b600000072
:10a4b80060000000a60000001b01000041ff000032
:10a4c8009afe00007a000000e6ff000091fe0000fe
:10a4d800f4fe0000c0020000c8fd00004e010000ac
:10a4e8001702000010010000ccfd0000f4fd000080
:10a4f80074fd0000befd0000c2000000bdff0000aa
:10a50800aa020000b201000086000000e700000077
:10a51800a1ff00004eff000028ff0000c901000055
:10a5280056ff0000d8010000eefd000020010000e9
:10a538008201000061ff000009fe000052fe0000d9
:10a54800cefe00004c000000ec02000059000000a4
:10a558008a01000095ff00006c00000043fe000027
:10a56800ccfe00008400000074ff0000820200009e
:10a578009bff0000c8fd0000e0ff0000d8fe0000bf
:10a58800f1ff000046030000bffe00005b01000071
:10a59800c4ff0000dafd0000070000002f020000e1
:10a5a8006802000070fd0000eafe0000780100006b
:10a5b8005e010000eb01000013fe0000e8fe000051
:10a5c800bdfd0000ef000000a000000068ff0000d3
:10a5d80045fe0000a2fd00005f00000017ff00001c
:10a5e8006902000049ff0000230200003402000055
:10a5f800fbff000076ff0000a20000009bfe0000a9
:10a6080061ff0000d0ff0000610100004dff000065
:10a61800b4fd000071010000d6fe00000103000037
:10a62800bcfd00006c010000d5000000c1fe000068
:10a63800a5fe00004a01000000000000d50100004e
:10a64800f8ff00002cff00007dfe000075020000ee
:10a6580029ff00000fff00007bfd000067000000dd
:10a66800f902000045ff000036ff00006e020000fe
:10a67800460200003cfe0000f900000071ff0000e7
:10a688000100000022ff00003fff0000f5fe00006f
:10a698004d010000330100009fff0000a6fd0000ef
:10a6a8005f010000cefd000036020000bcfe000085
:10a6b800950100005b010000ebfd0000c7ff0000f2
:10a6c8003a000000effe000070000000cf0000001c
:10a6d8005ffe000068100000640000001400000025
:10a6e8000004000000000000681000006400000082
:10a6f80014000000000000000000000068100000c6
:10a70800640000001400000000fc0000ffff0000cf
:10a718006810000064000000140000000000000041
:10a7280000000000b0040000c80000009001000014
:10a738000004000000000000b0040000c800000091
:10a74800900100000000000000000000b0040000bc
:10a75800c80000009001000000fc0000ffff00009e
:10a76800b0040000c80000009001000000000000d4
:10a7780000000000e8030000e8030000a00f00004c
:10a788000004000000000000e8030000e8030000e7
:10a79800a00f00000000000000000000e803000017
:10a7a800e8030000a00f000000fc0000ffff00000d
:10a7b800e8030000e8030000a00f0000000000000c
:10a7c80000000000e8030000a00f0000204e000079
:10a7d8000004000000000000e8030000a00f0000d3
:10a7e800204e00000000000000000000e803000008
:10a7f800a00f0000204e000000fc0000ffff00003a
:10a80800e8030000a00f0000204e00000000000038
:10a8180000000000102700009001000055530000c0
:10a82800003000001700000088130000a00f00008f
:10a83800c80000000000000017000000a00f000082
:10a84800a00f00004006000000e000001500000016
:10a85800a00f0000d0070000401f000000a000006b
:10a868000f00000088130000e803000055530000a3
:10a8780000000000000000000000000000000000d0
:10a88800000000000000000000000000fe030000bf
:10a89800fc070000fa0b0000f80f0000f613000098
:10a8a800f4170000f21b0000f01f0000fe07000074
:10a8b800fc0f0000fa170000f81f0000f627000040
:10a8c800f42f0000f2370000f03f0000ff0b0000fb
:10a8d800ff170000ff230000ff2f0000ff3b0000d0
:10a8e800ff470000ff530000ff5f0000ff0f00005c
:10a8f800ff1f0000ff2f0000ff3f0000ff4f000078
:10a90800ff5f0000ff6f0000ff7f0000ff130000e3
:10a91800ff270000ff3b0000ff4f0000ff6300001f
:10a92800ff770000ff8b0000ff9f0000ff1700006b
:10a93800ff2f0000ff470000ff5f0000ff770000c7
:10a94800ff8f0000ffa70000ffbf0000ff1b0000f3
:10a95800ff370000ff530000ff6f0000ff8b00006f
:10a96800ffa70000ffc30000ffdf0000ff1f00007b
:10a97800ff3f0000ff5f0000ff7f0000ff9f000017
:10a98800ffbf0000ffdf0000ffff00000000000025
:10a9980032ef0000c0f30000bdf600000ff9000020
:10a9a80001fb0000b7fc000044fe0000b4ff0000fb
:10a9b800100100005d020000a0030000dc0400009c
:10a9c800150600004d07000086080000c4090000b5
:10a9d800090b0000570c0000b30d00001f0f00000a
:10a9e800a21000003f12000000140000ee15000045
:10a9f80019180000971a00008c1d0000342100006f
:10aa0800092600002d2d0000a73a000000000000d4
:10aa18000001000002030000040500000607000012
:10aa2800080c00001014000018200000304000003e
:04aa38000101000018
:020000040000fa
:10aa3c00e6874700889fbe008a9fbe008c9fbe00a1
:10aa4c008e1f780060988100e610e30005003a0044
:10aa5c000052e2000f0032005094810000e8a30085
:10aa6c000c0032004201200061c0b300a0c0b30052
:10aa7c00e8f4020000000000308780002087880086
:10aa8c0003f1a80003b1a9000311a9000331a90027
:10aa9c000100370003f1a900c030230090007800ba
:10aaac0031878800f8998100099a8100100078009c
:10aabc008000eb00f2122000820f5000e08f580053
:10aacc00530d3e00000601002f0137003d013700f9
:10aadc005e0137004e0d37006601370079013700f3
:10aaec00a3013700a5013700d80137001302370046
:10aafc00360237003c023700450d3700440d370055
:10ab0c00430d370041023700410d3700400d37002f
:10ab1c003f0d3700470237008d023700c302370064
:10ab2c003b0d3700f3023700390d3700380d370075
:10ab3c0068033700360d3700350d3700340d3700fc
:10ab4c00a3073700b20737002f053700d1053700b0
:10ab5c005a063700f6063700c30737002c0d3700ae
:10ab6c002b0d37002a0d370075093700280d3700db
:10ab7c00270d3700260d3700250d3700240d370023
:10ab8c00230d3700220d3700210d3700200d370023
:10ab9c009e093700d90937001d0d37001c0d3700f1
:10abac000a0a37002d0a3700a00a3700180d3700a3
:10abbc00170d37001e0b37002f0b3700140d370005
:10abcc00130d3700120d3700110d3700100d370023
:10abdc000f0d37000e0d37000d0d37000c0d370023
:10abec00380b37000a0d3700090d3700080d3700f8
:10abfc00070d3700060d3700050d3700040d370023
:10ac0c00030d3700020d37005f0b3700000d3700c6
:10ac1c00ff0c3700fe0c3700fd0c3700fc0c370026
:10ac2c00fb0c3700fa0c3700f90c3700f80c370026
:10ac3c009e0b37009d0b37009c0b37009b0b37008e
:10ac4c00f30c3700f20c3700f10c3700f00c370026
:10ac5c00ef0c3700ee0c3700160c3700270c3700c2
:10ac6c00410c3700450c3700e90c3700e80c370075
:10ac7c00e70c3700e60c3700e50c3700e40c370026
:10ac8c005f0c3700680c3700e10c3700e00c370024
:10ac9c00df0c3700de0c3700dd0c3700dc0c370026
:10acac00db0c3700da0c3700d90c3700d80c370026
:10acbc00d70c3700d60c3700d50c3700d40c370026
:10accc00d30c3700d20c3700d10c3700d00c370026
:10acdc00cf0c3700ce0c3700cd0c3700cc0c370026
:10acec00cb0c3700ca0c3700c90c3700c80c370026
:10acfc00c70c3700c60c3700c50c3700c40c370026
:10ad0c00c30c3700c20c3700c10c3700c00c370025
:10ad1c00bf0c3700be0c3700bd0c3700bc0c370025
:10ad2c00bb0c3700ba0c3700b90c3700b80c370025
:10ad3c00b70c3700b60c3700b50c3700b40c370025
:10ad4c00b30c3700b20c3700b10c3700b00c370025
:10ad5c00af0c3700ae0c3700ad0c3700ac0c370025
:10ad6c00ab0c3700aa0c3700a90c3700a80c370025
:10ad7c00a70c3700a60c3700a50c3700a40c370025
:10ad8c00a30c3700a20c3700a10c3700a00c370025
:10ad9c009f0c37009e0c37009d0c37009c0c370025
:10adac009b0c37009a0c3700990c3700980c370025
:10adbc00970c3700960c3700950c3700940c370025
:10adcc00930c3700920c3700910c3700900c370025
:10addc008f0c37008e0c37008d0c37008c0c370025
:10adec008b0c37008a0c3700150c3700180c370009
:10adfc001c0c37001f0c3700230c3700260c3700b7
:10ae0c002a0c37002d0c3700310c3700340c37006e
:10ae1c007f0c37007e0c37007d0c37007c0c370024
:10ae2c007b0c37007a0c3700790c3700780c370024
:10ae3c00770c3700760c3700750c3700740c370024
:10ae4c00730c3700720c3700710c3700700c370024
:10ae5c006f0c37006e0c37006d0c37006c0c370024
